{
  "contractName": "ERC20",
  "abi": [
    {
      "inputs": [
        {
          "internalType": "string",
          "name": "name_",
          "type": "string"
        },
        {
          "internalType": "string",
          "name": "symbol_",
          "type": "string"
        }
      ],
      "stateMutability": "nonpayable",
      "type": "constructor"
    },
    {
      "anonymous": false,
      "inputs": [
        {
          "indexed": true,
          "internalType": "address",
          "name": "owner",
          "type": "address"
        },
        {
          "indexed": true,
          "internalType": "address",
          "name": "spender",
          "type": "address"
        },
        {
          "indexed": false,
          "internalType": "uint256",
          "name": "value",
          "type": "uint256"
        }
      ],
      "name": "Approval",
      "type": "event"
    },
    {
      "anonymous": false,
      "inputs": [
        {
          "indexed": true,
          "internalType": "address",
          "name": "previousOwner",
          "type": "address"
        },
        {
          "indexed": true,
          "internalType": "address",
          "name": "newOwner",
          "type": "address"
        }
      ],
      "name": "OwnershipTransferred",
      "type": "event"
    },
    {
      "anonymous": false,
      "inputs": [
        {
          "indexed": true,
          "internalType": "address",
          "name": "from",
          "type": "address"
        },
        {
          "indexed": true,
          "internalType": "address",
          "name": "to",
          "type": "address"
        },
        {
          "indexed": false,
          "internalType": "uint256",
          "name": "value",
          "type": "uint256"
        }
      ],
      "name": "Transfer",
      "type": "event"
    },
    {
      "inputs": [],
      "name": "isOwner",
      "outputs": [
        {
          "internalType": "bool",
          "name": "",
          "type": "bool"
        }
      ],
      "stateMutability": "view",
      "type": "function"
    },
    {
      "inputs": [],
      "name": "owner",
      "outputs": [
        {
          "internalType": "address",
          "name": "",
          "type": "address"
        }
      ],
      "stateMutability": "view",
      "type": "function"
    },
    {
      "inputs": [],
      "name": "renounceOwnership",
      "outputs": [],
      "stateMutability": "nonpayable",
      "type": "function"
    },
    {
      "inputs": [
        {
          "internalType": "address",
          "name": "newOwner",
          "type": "address"
        }
      ],
      "name": "transferOwnership",
      "outputs": [],
      "stateMutability": "nonpayable",
      "type": "function"
    },
    {
      "inputs": [],
      "name": "name",
      "outputs": [
        {
          "internalType": "string",
          "name": "",
          "type": "string"
        }
      ],
      "stateMutability": "view",
      "type": "function"
    },
    {
      "inputs": [],
      "name": "symbol",
      "outputs": [
        {
          "internalType": "string",
          "name": "",
          "type": "string"
        }
      ],
      "stateMutability": "view",
      "type": "function"
    },
    {
      "inputs": [],
      "name": "decimals",
      "outputs": [
        {
          "internalType": "uint8",
          "name": "",
          "type": "uint8"
        }
      ],
      "stateMutability": "view",
      "type": "function"
    },
    {
      "inputs": [],
      "name": "totalSupply",
      "outputs": [
        {
          "internalType": "uint256",
          "name": "",
          "type": "uint256"
        }
      ],
      "stateMutability": "view",
      "type": "function"
    },
    {
      "inputs": [
        {
          "internalType": "address",
          "name": "account",
          "type": "address"
        }
      ],
      "name": "balanceOf",
      "outputs": [
        {
          "internalType": "uint256",
          "name": "",
          "type": "uint256"
        }
      ],
      "stateMutability": "view",
      "type": "function"
    },
    {
      "inputs": [
        {
          "internalType": "address",
          "name": "recipient",
          "type": "address"
        },
        {
          "internalType": "uint256",
          "name": "amount",
          "type": "uint256"
        }
      ],
      "name": "transfer",
      "outputs": [
        {
          "internalType": "bool",
          "name": "",
          "type": "bool"
        }
      ],
      "stateMutability": "nonpayable",
      "type": "function"
    },
    {
      "inputs": [
        {
          "internalType": "address",
          "name": "owner",
          "type": "address"
        },
        {
          "internalType": "address",
          "name": "spender",
          "type": "address"
        }
      ],
      "name": "allowance",
      "outputs": [
        {
          "internalType": "uint256",
          "name": "",
          "type": "uint256"
        }
      ],
      "stateMutability": "view",
      "type": "function"
    },
    {
      "inputs": [
        {
          "internalType": "address",
          "name": "spender",
          "type": "address"
        },
        {
          "internalType": "uint256",
          "name": "amount",
          "type": "uint256"
        }
      ],
      "name": "approve",
      "outputs": [
        {
          "internalType": "bool",
          "name": "",
          "type": "bool"
        }
      ],
      "stateMutability": "nonpayable",
      "type": "function"
    },
    {
      "inputs": [
        {
          "internalType": "address",
          "name": "sender",
          "type": "address"
        },
        {
          "internalType": "address",
          "name": "recipient",
          "type": "address"
        },
        {
          "internalType": "uint256",
          "name": "amount",
          "type": "uint256"
        }
      ],
      "name": "transferFrom",
      "outputs": [
        {
          "internalType": "bool",
          "name": "",
          "type": "bool"
        }
      ],
      "stateMutability": "nonpayable",
      "type": "function"
    },
    {
      "inputs": [
        {
          "internalType": "address",
          "name": "spender",
          "type": "address"
        },
        {
          "internalType": "uint256",
          "name": "addedValue",
          "type": "uint256"
        }
      ],
      "name": "increaseAllowance",
      "outputs": [
        {
          "internalType": "bool",
          "name": "",
          "type": "bool"
        }
      ],
      "stateMutability": "nonpayable",
      "type": "function"
    },
    {
      "inputs": [
        {
          "internalType": "address",
          "name": "spender",
          "type": "address"
        },
        {
          "internalType": "uint256",
          "name": "subtractedValue",
          "type": "uint256"
        }
      ],
      "name": "decreaseAllowance",
      "outputs": [
        {
          "internalType": "bool",
          "name": "",
          "type": "bool"
        }
      ],
      "stateMutability": "nonpayable",
      "type": "function"
    }
  ],
  "bytecode": "0x60806040523480156200001157600080fd5b5060405162001d7038038062001d70833981810160405281019062000037919062000273565b6000620000496200013d60201b60201c565b9050806000806101000a81548173ffffffffffffffffffffffffffffffffffffffff021916908373ffffffffffffffffffffffffffffffffffffffff1602179055508073ffffffffffffffffffffffffffffffffffffffff16600073ffffffffffffffffffffffffffffffffffffffff167f8be0079c531659141344cd1fd0a4f28419497f9722a3daafe3b4186f6b6457e060405160405180910390a3508160049080519060200190620000ff92919062000145565b5080600590805190602001906200011892919062000145565b506012600660006101000a81548160ff021916908360ff16021790555050506200047c565b600033905090565b82805462000153906200038d565b90600052602060002090601f016020900481019282620001775760008555620001c3565b82601f106200019257805160ff1916838001178555620001c3565b82800160010185558215620001c3579182015b82811115620001c2578251825591602001919060010190620001a5565b5b509050620001d29190620001d6565b5090565b5b80821115620001f1576000816000905550600101620001d7565b5090565b60006200020c620002068462000321565b620002f8565b9050828152602081018484840111156200022b576200022a6200045c565b5b6200023884828562000357565b509392505050565b600082601f83011262000258576200025762000457565b5b81516200026a848260208601620001f5565b91505092915050565b600080604083850312156200028d576200028c62000466565b5b600083015167ffffffffffffffff811115620002ae57620002ad62000461565b5b620002bc8582860162000240565b925050602083015167ffffffffffffffff811115620002e057620002df62000461565b5b620002ee8582860162000240565b9150509250929050565b60006200030462000317565b9050620003128282620003c3565b919050565b6000604051905090565b600067ffffffffffffffff8211156200033f576200033e62000428565b5b6200034a826200046b565b9050602081019050919050565b60005b83811015620003775780820151818401526020810190506200035a565b8381111562000387576000848401525b50505050565b60006002820490506001821680620003a657607f821691505b60208210811415620003bd57620003bc620003f9565b5b50919050565b620003ce826200046b565b810181811067ffffffffffffffff82111715620003f057620003ef62000428565b5b80604052505050565b7f4e487b7100000000000000000000000000000000000000000000000000000000600052602260045260246000fd5b7f4e487b7100000000000000000000000000000000000000000000000000000000600052604160045260246000fd5b600080fd5b600080fd5b600080fd5b600080fd5b6000601f19601f8301169050919050565b6118e4806200048c6000396000f3fe608060405234801561001057600080fd5b50600436106100f55760003560e01c8063715018a611610097578063a457c2d711610066578063a457c2d714610278578063a9059cbb146102a8578063dd62ed3e146102d8578063f2fde38b14610308576100f5565b8063715018a6146102145780638da5cb5b1461021e5780638f32d59b1461023c57806395d89b411461025a576100f5565b806323b872dd116100d357806323b872dd14610166578063313ce5671461019657806339509351146101b457806370a08231146101e4576100f5565b806306fdde03146100fa578063095ea7b31461011857806318160ddd14610148575b600080fd5b610102610324565b60405161010f9190611293565b60405180910390f35b610132600480360381019061012d919061106d565b6103b6565b60405161013f9190611278565b60405180910390f35b6101506103d4565b60405161015d91906113d5565b60405180910390f35b610180600480360381019061017b919061101a565b6103de565b60405161018d9190611278565b60405180910390f35b61019e6104df565b6040516101ab91906113f0565b60405180910390f35b6101ce60048036038101906101c9919061106d565b6104f6565b6040516101db9190611278565b60405180910390f35b6101fe60048036038101906101f99190610fad565b6105a2565b60405161020b91906113d5565b60405180910390f35b61021c6105eb565b005b6102266106f0565b604051610233919061125d565b60405180910390f35b610244610719565b6040516102519190611278565b60405180910390f35b610262610777565b60405161026f9190611293565b60405180910390f35b610292600480360381019061028d919061106d565b610809565b60405161029f9190611278565b60405180910390f35b6102c260048036038101906102bd919061106d565b6108fd565b6040516102cf9190611278565b60405180910390f35b6102f260048036038101906102ed9190610fda565b61091b565b6040516102ff91906113d5565b60405180910390f35b610322600480360381019061031d9190610fad565b6109a2565b005b60606004805461033390611539565b80601f016020809104026020016040519081016040528092919081815260200182805461035f90611539565b80156103ac5780601f10610381576101008083540402835291602001916103ac565b820191906000526020600020905b81548152906001019060200180831161038f57829003601f168201915b5050505050905090565b60006103ca6103c36109f5565b84846109fd565b6001905092915050565b6000600354905090565b60006103eb848484610bc8565b6000600260008673ffffffffffffffffffffffffffffffffffffffff1673ffffffffffffffffffffffffffffffffffffffff16815260200190815260200160002060006104366109f5565b73ffffffffffffffffffffffffffffffffffffffff1673ffffffffffffffffffffffffffffffffffffffff168152602001908152602001600020549050828110156104b6576040517f08c379a00000000000000000000000000000000000000000000000000000000081526004016104ad90611335565b60405180910390fd5b6104d3856104c26109f5565b85846104ce919061147d565b6109fd565b60019150509392505050565b6000600660009054906101000a900460ff16905090565b60006105986105036109f5565b8484600260006105116109f5565b73ffffffffffffffffffffffffffffffffffffffff1673ffffffffffffffffffffffffffffffffffffffff16815260200190815260200160002060008873ffffffffffffffffffffffffffffffffffffffff1673ffffffffffffffffffffffffffffffffffffffff168152602001908152602001600020546105939190611427565b6109fd565b6001905092915050565b6000600160008373ffffffffffffffffffffffffffffffffffffffff1673ffffffffffffffffffffffffffffffffffffffff168152602001908152602001600020549050919050565b6105f3610719565b610632576040517f08c379a000000000000000000000000000000000000000000000000000000000815260040161062990611355565b60405180910390fd5b600073ffffffffffffffffffffffffffffffffffffffff1660008054906101000a900473ffffffffffffffffffffffffffffffffffffffff1673ffffffffffffffffffffffffffffffffffffffff167f8be0079c531659141344cd1fd0a4f28419497f9722a3daafe3b4186f6b6457e060405160405180910390a360008060006101000a81548173ffffffffffffffffffffffffffffffffffffffff021916908373ffffffffffffffffffffffffffffffffffffffff160217905550565b60008060009054906101000a900473ffffffffffffffffffffffffffffffffffffffff16905090565b60008060009054906101000a900473ffffffffffffffffffffffffffffffffffffffff1673ffffffffffffffffffffffffffffffffffffffff1661075b6109f5565b73ffffffffffffffffffffffffffffffffffffffff1614905090565b60606005805461078690611539565b80601f01602080910402602001604051908101604052809291908181526020018280546107b290611539565b80156107ff5780601f106107d4576101008083540402835291602001916107ff565b820191906000526020600020905b8154815290600101906020018083116107e257829003601f168201915b5050505050905090565b600080600260006108186109f5565b73ffffffffffffffffffffffffffffffffffffffff1673ffffffffffffffffffffffffffffffffffffffff16815260200190815260200160002060008573ffffffffffffffffffffffffffffffffffffffff1673ffffffffffffffffffffffffffffffffffffffff168152602001908152602001600020549050828110156108d5576040517f08c379a00000000000000000000000000000000000000000000000000000000081526004016108cc906113b5565b60405180910390fd5b6108f26108e06109f5565b8585846108ed919061147d565b6109fd565b600191505092915050565b600061091161090a6109f5565b8484610bc8565b6001905092915050565b6000600260008473ffffffffffffffffffffffffffffffffffffffff1673ffffffffffffffffffffffffffffffffffffffff16815260200190815260200160002060008373ffffffffffffffffffffffffffffffffffffffff1673ffffffffffffffffffffffffffffffffffffffff16815260200190815260200160002054905092915050565b6109aa610719565b6109e9576040517f08c379a00000000000000000000000000000000000000000000000000000000081526004016109e090611355565b60405180910390fd5b6109f281610e4c565b50565b600033905090565b600073ffffffffffffffffffffffffffffffffffffffff168373ffffffffffffffffffffffffffffffffffffffff161415610a6d576040517f08c379a0000000000000000000000000000000000000000000000000000000008152600401610a6490611395565b60405180910390fd5b600073ffffffffffffffffffffffffffffffffffffffff168273ffffffffffffffffffffffffffffffffffffffff161415610add576040517f08c379a0000000000000000000000000000000000000000000000000000000008152600401610ad4906112f5565b60405180910390fd5b80600260008573ffffffffffffffffffffffffffffffffffffffff1673ffffffffffffffffffffffffffffffffffffffff16815260200190815260200160002060008473ffffffffffffffffffffffffffffffffffffffff1673ffffffffffffffffffffffffffffffffffffffff168152602001908152602001600020819055508173ffffffffffffffffffffffffffffffffffffffff168373ffffffffffffffffffffffffffffffffffffffff167f8c5be1e5ebec7d5bd14f71427d1e84f3dd0314c0f7b2291e5b200ac8c7c3b92583604051610bbb91906113d5565b60405180910390a3505050565b600073ffffffffffffffffffffffffffffffffffffffff168373ffffffffffffffffffffffffffffffffffffffff161415610c38576040517f08c379a0000000000000000000000000000000000000000000000000000000008152600401610c2f90611375565b60405180910390fd5b600073ffffffffffffffffffffffffffffffffffffffff168273ffffffffffffffffffffffffffffffffffffffff161415610ca8576040517f08c379a0000000000000000000000000000000000000000000000000000000008152600401610c9f906112b5565b60405180910390fd5b610cb3838383610f79565b6000600160008573ffffffffffffffffffffffffffffffffffffffff1673ffffffffffffffffffffffffffffffffffffffff16815260200190815260200160002054905081811015610d3a576040517f08c379a0000000000000000000000000000000000000000000000000000000008152600401610d3190611315565b60405180910390fd5b818103600160008673ffffffffffffffffffffffffffffffffffffffff1673ffffffffffffffffffffffffffffffffffffffff1681526020019081526020016000208190555081600160008573ffffffffffffffffffffffffffffffffffffffff1673ffffffffffffffffffffffffffffffffffffffff1681526020019081526020016000206000828254610dcf9190611427565b925050819055508273ffffffffffffffffffffffffffffffffffffffff168473ffffffffffffffffffffffffffffffffffffffff167fddf252ad1be2c89b69c2b068fc378daa952ba7f163c4a11628f55a4df523b3ef84604051610e3391906113d5565b60405180910390a3610e46848484610f7e565b50505050565b600073ffffffffffffffffffffffffffffffffffffffff168173ffffffffffffffffffffffffffffffffffffffff161415610ebc576040517f08c379a0000000000000000000000000000000000000000000000000000000008152600401610eb3906112d5565b60405180910390fd5b8073ffffffffffffffffffffffffffffffffffffffff1660008054906101000a900473ffffffffffffffffffffffffffffffffffffffff1673ffffffffffffffffffffffffffffffffffffffff167f8be0079c531659141344cd1fd0a4f28419497f9722a3daafe3b4186f6b6457e060405160405180910390a3806000806101000a81548173ffffffffffffffffffffffffffffffffffffffff021916908373ffffffffffffffffffffffffffffffffffffffff16021790555050565b505050565b505050565b600081359050610f9281611880565b92915050565b600081359050610fa781611897565b92915050565b600060208284031215610fc357610fc26115c9565b5b6000610fd184828501610f83565b91505092915050565b60008060408385031215610ff157610ff06115c9565b5b6000610fff85828601610f83565b925050602061101085828601610f83565b9150509250929050565b600080600060608486031215611033576110326115c9565b5b600061104186828701610f83565b935050602061105286828701610f83565b925050604061106386828701610f98565b9150509250925092565b60008060408385031215611084576110836115c9565b5b600061109285828601610f83565b92505060206110a385828601610f98565b9150509250929050565b6110b6816114b1565b82525050565b6110c5816114c3565b82525050565b60006110d68261140b565b6110e08185611416565b93506110f0818560208601611506565b6110f9816115ce565b840191505092915050565b6000611111602383611416565b915061111c826115df565b604082019050919050565b6000611134602683611416565b915061113f8261162e565b604082019050919050565b6000611157602283611416565b91506111628261167d565b604082019050919050565b600061117a602683611416565b9150611185826116cc565b604082019050919050565b600061119d602883611416565b91506111a88261171b565b604082019050919050565b60006111c0602083611416565b91506111cb8261176a565b602082019050919050565b60006111e3602583611416565b91506111ee82611793565b604082019050919050565b6000611206602483611416565b9150611211826117e2565b604082019050919050565b6000611229602583611416565b915061123482611831565b604082019050919050565b611248816114ef565b82525050565b611257816114f9565b82525050565b600060208201905061127260008301846110ad565b92915050565b600060208201905061128d60008301846110bc565b92915050565b600060208201905081810360008301526112ad81846110cb565b905092915050565b600060208201905081810360008301526112ce81611104565b9050919050565b600060208201905081810360008301526112ee81611127565b9050919050565b6000602082019050818103600083015261130e8161114a565b9050919050565b6000602082019050818103600083015261132e8161116d565b9050919050565b6000602082019050818103600083015261134e81611190565b9050919050565b6000602082019050818103600083015261136e816111b3565b9050919050565b6000602082019050818103600083015261138e816111d6565b9050919050565b600060208201905081810360008301526113ae816111f9565b9050919050565b600060208201905081810360008301526113ce8161121c565b9050919050565b60006020820190506113ea600083018461123f565b92915050565b6000602082019050611405600083018461124e565b92915050565b600081519050919050565b600082825260208201905092915050565b6000611432826114ef565b915061143d836114ef565b9250827fffffffffffffffffffffffffffffffffffffffffffffffffffffffffffffffff038211156114725761147161156b565b5b828201905092915050565b6000611488826114ef565b9150611493836114ef565b9250828210156114a6576114a561156b565b5b828203905092915050565b60006114bc826114cf565b9050919050565b60008115159050919050565b600073ffffffffffffffffffffffffffffffffffffffff82169050919050565b6000819050919050565b600060ff82169050919050565b60005b83811015611524578082015181840152602081019050611509565b83811115611533576000848401525b50505050565b6000600282049050600182168061155157607f821691505b602082108114156115655761156461159a565b5b50919050565b7f4e487b7100000000000000000000000000000000000000000000000000000000600052601160045260246000fd5b7f4e487b7100000000000000000000000000000000000000000000000000000000600052602260045260246000fd5b600080fd5b6000601f19601f8301169050919050565b7f45524332303a207472616e7366657220746f20746865207a65726f206164647260008201527f6573730000000000000000000000000000000000000000000000000000000000602082015250565b7f4f776e61626c653a206e6577206f776e657220697320746865207a65726f206160008201527f6464726573730000000000000000000000000000000000000000000000000000602082015250565b7f45524332303a20617070726f766520746f20746865207a65726f20616464726560008201527f7373000000000000000000000000000000000000000000000000000000000000602082015250565b7f45524332303a207472616e7366657220616d6f756e742065786365656473206260008201527f616c616e63650000000000000000000000000000000000000000000000000000602082015250565b7f45524332303a207472616e7366657220616d6f756e742065786365656473206160008201527f6c6c6f77616e6365000000000000000000000000000000000000000000000000602082015250565b7f4f776e61626c653a2063616c6c6572206973206e6f7420746865206f776e6572600082015250565b7f45524332303a207472616e736665722066726f6d20746865207a65726f20616460008201527f6472657373000000000000000000000000000000000000000000000000000000602082015250565b7f45524332303a20617070726f76652066726f6d20746865207a65726f2061646460008201527f7265737300000000000000000000000000000000000000000000000000000000602082015250565b7f45524332303a2064656372656173656420616c6c6f77616e63652062656c6f7760008201527f207a65726f000000000000000000000000000000000000000000000000000000602082015250565b611889816114b1565b811461189457600080fd5b50565b6118a0816114ef565b81146118ab57600080fd5b5056fea2646970667358221220ea6abdfab11e5192caf5514b66589f0c25b1d5282c7e1fb20eb76468b34d6dbe64736f6c63430008060033",
  "immutableReferences": {},
  "source": "/**\n *Submitted for verification at Etherscan.io on 2021-07-20\n*/\n\n// SPDX-License-Identifier: MIT\n\npragma solidity ^0.8.6;\n\n\ninterface IERC20{\n     function totalSupply() external view returns (uint256);\n     function balanceOf(address account) external view returns (uint256);\n     function transfer(address recipient, uint256 amount) external returns (bool);\n     function allowance(address owner, address spender) external view returns (uint256);\n     function approve(address spender, uint256 amount) external returns (bool);\n     function transferFrom(address sender, address recipient, uint256 amount) external returns (bool);\n     event Transfer(address indexed from, address indexed to, uint256 value);\n     event Approval(address indexed owner, address indexed spender, uint256 value);\n}\n\nlibrary Address {\n   \n    function isContract(address account) internal view returns (bool) {\n        // According to EIP-1052, 0x0 is the value returned for not-yet created accounts\n        // and 0xc5d2460186f7233c927e7db2dcc703c0e500b653ca82273b7bfad8045d85a470 is returned\n        // for accounts without code, i.e. `keccak256('')`\n        bytes32 codehash;\n        bytes32 accountHash = 0xc5d2460186f7233c927e7db2dcc703c0e500b653ca82273b7bfad8045d85a470;\n        // solhint-disable-next-line no-inline-assembly\n        assembly { codehash := extcodehash(account) }\n        return (codehash != accountHash && codehash != 0x0);\n    }\n   \n    function toPayable(address account) internal pure returns (address payable) {\n        return payable(address(uint160(account)));\n    }\n\n    function sendValue(address payable recipient, uint256 amount) internal {\n        require(address(this).balance >= amount, \"Address: insufficient balance\");\n\n        // solhint-disable-next-line avoid-call-value\n        (bool success, ) = recipient.call{value:amount}(\"\");\n        require(success, \"Address: unable to send value, recipient may have reverted\");\n    }\n}\n\ncontract Context {\n   \n    constructor ()  { }\n   \n\n    function _msgSender() internal view returns (address payable) {\n        return payable(msg.sender);\n    }\n\n    function _msgData() internal view returns (bytes memory) {\n        this; \n        return msg.data;\n    }\n}\n\ncontract Ownable is Context {\n    address private _owner;\n\n    event OwnershipTransferred(address indexed previousOwner, address indexed newOwner);\n\n  \n    constructor ()  {\n        address msgSender = _msgSender();\n        _owner = msgSender;\n        emit OwnershipTransferred(address(0), msgSender);\n    }\n\n   \n    function owner() external view returns (address) {\n        return _owner;\n    }\n\n    \n    modifier onlyOwner() {\n        require(isOwner(), \"Ownable: caller is not the owner\");\n        _;\n    }\n\n   \n    function isOwner() public view returns (bool) {\n        return _msgSender() == _owner;\n    }\n\n    function renounceOwnership() external onlyOwner {\n        emit OwnershipTransferred(_owner, address(0));\n        _owner = address(0);\n    }\n\n \n    function transferOwnership(address newOwner) external onlyOwner {\n        _transferOwnership(newOwner);\n    }\n\n   \n    function _transferOwnership(address newOwner) internal {\n        require(newOwner != address(0), \"Ownable: new owner is the zero address\");\n        emit OwnershipTransferred(_owner, newOwner);\n        _owner = newOwner;\n    }\n}\n\ncontract ERC20 is Context, IERC20,Ownable {\n   \n\n    mapping (address => uint256) private _balances;\n\n    mapping (address => mapping (address => uint256)) private _allowances;\n\n    uint256 private _totalSupply;\n    string private  _name;\n    string private _symbol;\n    uint8 private _decimals;\n    \n    constructor(string memory name_, string memory symbol_)  {\n        _name = name_;\n        _symbol = symbol_;\n        _decimals = 18;\n    }\n    \n  \n    function name() external view returns (string memory) {\n        return _name;\n    }\n\n\n    function symbol() external view returns (string memory) {\n        return _symbol;\n    }\n    \n    \n     function decimals() external view returns (uint8) {\n        return _decimals;\n    }\n\n\n  \n    function totalSupply() external view override returns (uint256) {\n        return _totalSupply;\n    }\n\n  \n    function balanceOf(address account) external view override returns (uint256) {\n        return _balances[account];\n    }\n\n   \n    function transfer(address recipient, uint256 amount) external override returns (bool) {\n        _transfer(_msgSender(), recipient, amount);\n        return true;\n    }\n\n    function allowance(address owner, address spender) external view override returns (uint256) {\n        return _allowances[owner][spender];\n    }\n\n  \n    function approve(address spender, uint256 amount) external override returns (bool) {\n        _approve(_msgSender(), spender, amount);\n        return true;\n    }\n\n   function transferFrom(\n        address sender,\n        address recipient,\n        uint256 amount\n    ) external virtual override returns (bool) {\n        _transfer(sender, recipient, amount);\n\n        uint256 currentAllowance = _allowances[sender][_msgSender()];\n        require(currentAllowance >= amount, \"ERC20: transfer amount exceeds allowance\");\n    \n        _approve(sender, _msgSender(), currentAllowance - amount);\n \n\n        return true;\n    }\n\n   \n   function increaseAllowance(address spender, uint256 addedValue) external virtual returns (bool) {\n        _approve(_msgSender(), spender, _allowances[_msgSender()][spender] + addedValue);\n        return true;\n    }\n   \n   function decreaseAllowance(address spender, uint256 subtractedValue) external virtual returns (bool) {\n        uint256 currentAllowance = _allowances[_msgSender()][spender];\n        require(currentAllowance >= subtractedValue, \"ERC20: decreased allowance below zero\");\n      \n            _approve(_msgSender(), spender, currentAllowance - subtractedValue);\n    \n\n        return true;\n    }\n\n    \n    function _transfer(\n        address sender,\n        address recipient,\n        uint256 amount\n    ) internal virtual {\n        require(sender != address(0), \"ERC20: transfer from the zero address\");\n        require(recipient != address(0), \"ERC20: transfer to the zero address\");\n\n        _beforeTokenTransfer(sender, recipient, amount);\n\n        uint256 senderBalance = _balances[sender];\n        require(senderBalance >= amount, \"ERC20: transfer amount exceeds balance\");\n        unchecked {\n            _balances[sender] = senderBalance - amount;\n        }\n        _balances[recipient] += amount;\n\n        emit Transfer(sender, recipient, amount);\n\n        _afterTokenTransfer(sender, recipient, amount);\n    }\n\n  \n    function _mint(address account, uint256 amount) internal virtual {\n        require(account != address(0), \"ERC20: mint to the zero address\");\n\n        _beforeTokenTransfer(address(0), account, amount);\n\n        _totalSupply += amount;\n        _balances[account] += amount;\n        emit Transfer(address(0), account, amount);\n\n        _afterTokenTransfer(address(0), account, amount);\n    }\n   \n    function _burn(address account, uint256 amount) internal virtual {\n        require(account != address(0), \"ERC20: burn from the zero address\");\n\n        _beforeTokenTransfer(account, address(0), amount);\n\n        uint256 accountBalance = _balances[account];\n        require(accountBalance >= amount, \"ERC20: burn amount exceeds balance\");\n        unchecked {\n            _balances[account] = accountBalance - amount;\n        }\n        _totalSupply -= amount;\n\n        emit Transfer(account, address(0), amount);\n\n        _afterTokenTransfer(account, address(0), amount);\n    }\n   \n   function _approve(\n        address owner,\n        address spender,\n        uint256 amount\n    ) internal virtual {\n        require(owner != address(0), \"ERC20: approve from the zero address\");\n        require(spender != address(0), \"ERC20: approve to the zero address\");\n\n        _allowances[owner][spender] = amount;\n        emit Approval(owner, spender, amount);\n    }\n   \n\n    function _beforeTokenTransfer(\n        address from,\n        address to,\n        uint256 amount\n    ) internal virtual {}\n    \n    function _afterTokenTransfer(\n        address from,\n        address to,\n        uint256 amount\n    ) internal virtual {}\n\n}\n\ncontract PLEToken is ERC20{\n    \n   constructor() ERC20(\"Plethori\",\"PLE\") {\n       _mint(_msgSender(), 100e6 ether);\n   }\n\n}",
  "sourcePath": "/Users/markyosef/Downloads/plethori/contracts/PLEToken.sol",
  "compiler": {
    "name": "solc",
    "version": "0.8.6+commit.11564f7e.Emscripten.clang"
  },
  "schemaVersion": "3.4.3",
  "updatedAt": "2021-11-09T19:06:05.969Z",
  "devdoc": {
    "kind": "dev",
    "methods": {},
    "version": 1
  },
  "userdoc": {
    "kind": "user",
    "methods": {},
    "version": 1
  }
}