{
  "contractName": "PLEStaking",
  "abi": [
    {
      "anonymous": false,
      "inputs": [
        {
          "indexed": false,
          "internalType": "address",
          "name": "account",
          "type": "address"
        },
        {
          "indexed": false,
          "internalType": "uint256",
          "name": "amount",
          "type": "uint256"
        }
      ],
      "name": "ClaimedRewards",
      "type": "event"
    },
    {
      "anonymous": false,
      "inputs": [
        {
          "indexed": false,
          "internalType": "address",
          "name": "account",
          "type": "address"
        }
      ],
      "name": "Initialized",
      "type": "event"
    },
    {
      "anonymous": false,
      "inputs": [
        {
          "indexed": true,
          "internalType": "address",
          "name": "previousOwner",
          "type": "address"
        },
        {
          "indexed": true,
          "internalType": "address",
          "name": "newOwner",
          "type": "address"
        }
      ],
      "name": "OwnershipTransferred",
      "type": "event"
    },
    {
      "anonymous": false,
      "inputs": [
        {
          "indexed": false,
          "internalType": "address",
          "name": "account",
          "type": "address"
        }
      ],
      "name": "Paused",
      "type": "event"
    },
    {
      "anonymous": false,
      "inputs": [
        {
          "indexed": false,
          "internalType": "address",
          "name": "account",
          "type": "address"
        },
        {
          "indexed": false,
          "internalType": "uint256",
          "name": "amount",
          "type": "uint256"
        }
      ],
      "name": "PayedFee",
      "type": "event"
    },
    {
      "anonymous": false,
      "inputs": [
        {
          "indexed": false,
          "internalType": "address",
          "name": "account",
          "type": "address"
        },
        {
          "indexed": false,
          "internalType": "uint256",
          "name": "amount",
          "type": "uint256"
        }
      ],
      "name": "RestakedRewards",
      "type": "event"
    },
    {
      "anonymous": false,
      "inputs": [
        {
          "indexed": false,
          "internalType": "address",
          "name": "emergencyAddress",
          "type": "address"
        },
        {
          "indexed": false,
          "internalType": "uint256",
          "name": "amount",
          "type": "uint256"
        }
      ],
      "name": "RewardsWithdrawnEmergently",
      "type": "event"
    },
    {
      "anonymous": false,
      "inputs": [
        {
          "indexed": false,
          "internalType": "address",
          "name": "account",
          "type": "address"
        },
        {
          "indexed": false,
          "internalType": "uint256",
          "name": "amount",
          "type": "uint256"
        }
      ],
      "name": "Staked",
      "type": "event"
    },
    {
      "anonymous": false,
      "inputs": [
        {
          "indexed": false,
          "internalType": "bool",
          "name": "_takeStakeFee",
          "type": "bool"
        },
        {
          "indexed": false,
          "internalType": "bool",
          "name": "_takeUnstakeFee",
          "type": "bool"
        },
        {
          "indexed": false,
          "internalType": "bool",
          "name": "_takeRestakeFee",
          "type": "bool"
        }
      ],
      "name": "SwitchedFees",
      "type": "event"
    },
    {
      "anonymous": false,
      "inputs": [
        {
          "indexed": false,
          "internalType": "bool",
          "name": "enableRewards",
          "type": "bool"
        }
      ],
      "name": "SwitchedRewards",
      "type": "event"
    },
    {
      "anonymous": false,
      "inputs": [
        {
          "indexed": false,
          "internalType": "address",
          "name": "account",
          "type": "address"
        }
      ],
      "name": "Unpaused",
      "type": "event"
    },
    {
      "anonymous": false,
      "inputs": [
        {
          "indexed": false,
          "internalType": "address",
          "name": "account",
          "type": "address"
        },
        {
          "indexed": false,
          "internalType": "uint256",
          "name": "amount",
          "type": "uint256"
        }
      ],
      "name": "Unstaked",
      "type": "event"
    },
    {
      "inputs": [],
      "name": "RESTAKE_FEE_RATE",
      "outputs": [
        {
          "internalType": "uint256",
          "name": "",
          "type": "uint256"
        }
      ],
      "stateMutability": "view",
      "type": "function"
    },
    {
      "inputs": [],
      "name": "REWARD_RATE",
      "outputs": [
        {
          "internalType": "uint256",
          "name": "",
          "type": "uint256"
        }
      ],
      "stateMutability": "view",
      "type": "function"
    },
    {
      "inputs": [],
      "name": "STAKE_FEE_RATE",
      "outputs": [
        {
          "internalType": "uint256",
          "name": "",
          "type": "uint256"
        }
      ],
      "stateMutability": "view",
      "type": "function"
    },
    {
      "inputs": [],
      "name": "UNSTAKE_FEE_RATE",
      "outputs": [
        {
          "internalType": "uint256",
          "name": "",
          "type": "uint256"
        }
      ],
      "stateMutability": "view",
      "type": "function"
    },
    {
      "inputs": [],
      "name": "availableRewards",
      "outputs": [
        {
          "internalType": "uint256",
          "name": "",
          "type": "uint256"
        }
      ],
      "stateMutability": "view",
      "type": "function"
    },
    {
      "inputs": [],
      "name": "feeAddress",
      "outputs": [
        {
          "internalType": "address",
          "name": "",
          "type": "address"
        }
      ],
      "stateMutability": "view",
      "type": "function"
    },
    {
      "inputs": [],
      "name": "initialized",
      "outputs": [
        {
          "internalType": "bool",
          "name": "",
          "type": "bool"
        }
      ],
      "stateMutability": "view",
      "type": "function"
    },
    {
      "inputs": [],
      "name": "owner",
      "outputs": [
        {
          "internalType": "address",
          "name": "",
          "type": "address"
        }
      ],
      "stateMutability": "view",
      "type": "function"
    },
    {
      "inputs": [],
      "name": "paused",
      "outputs": [
        {
          "internalType": "bool",
          "name": "",
          "type": "bool"
        }
      ],
      "stateMutability": "view",
      "type": "function"
    },
    {
      "inputs": [],
      "name": "renounceOwnership",
      "outputs": [],
      "stateMutability": "nonpayable",
      "type": "function"
    },
    {
      "inputs": [
        {
          "internalType": "address",
          "name": "",
          "type": "address"
        }
      ],
      "name": "stakeHolders",
      "outputs": [
        {
          "internalType": "uint256",
          "name": "stakedTokens",
          "type": "uint256"
        },
        {
          "internalType": "uint256",
          "name": "lastClaimedBlock",
          "type": "uint256"
        },
        {
          "internalType": "uint256",
          "name": "totalEarnedTokens",
          "type": "uint256"
        }
      ],
      "stateMutability": "view",
      "type": "function"
    },
    {
      "inputs": [],
      "name": "stopRewardsBlock",
      "outputs": [
        {
          "internalType": "uint256",
          "name": "",
          "type": "uint256"
        }
      ],
      "stateMutability": "view",
      "type": "function"
    },
    {
      "inputs": [],
      "name": "takeRestakeFee",
      "outputs": [
        {
          "internalType": "bool",
          "name": "",
          "type": "bool"
        }
      ],
      "stateMutability": "view",
      "type": "function"
    },
    {
      "inputs": [],
      "name": "takeStakeFee",
      "outputs": [
        {
          "internalType": "bool",
          "name": "",
          "type": "bool"
        }
      ],
      "stateMutability": "view",
      "type": "function"
    },
    {
      "inputs": [],
      "name": "takeUnstakeFee",
      "outputs": [
        {
          "internalType": "bool",
          "name": "",
          "type": "bool"
        }
      ],
      "stateMutability": "view",
      "type": "function"
    },
    {
      "inputs": [],
      "name": "token",
      "outputs": [
        {
          "internalType": "contract IERC20",
          "name": "",
          "type": "address"
        }
      ],
      "stateMutability": "view",
      "type": "function"
    },
    {
      "inputs": [],
      "name": "totalStaked",
      "outputs": [
        {
          "internalType": "uint256",
          "name": "",
          "type": "uint256"
        }
      ],
      "stateMutability": "view",
      "type": "function"
    },
    {
      "inputs": [
        {
          "internalType": "address",
          "name": "newOwner",
          "type": "address"
        }
      ],
      "name": "transferOwnership",
      "outputs": [],
      "stateMutability": "nonpayable",
      "type": "function"
    },
    {
      "inputs": [
        {
          "internalType": "address",
          "name": "account",
          "type": "address"
        }
      ],
      "name": "balanceOf",
      "outputs": [
        {
          "internalType": "uint256",
          "name": "",
          "type": "uint256"
        }
      ],
      "stateMutability": "view",
      "type": "function"
    },
    {
      "inputs": [
        {
          "internalType": "address",
          "name": "account",
          "type": "address"
        }
      ],
      "name": "unclaimedRewardsOf",
      "outputs": [
        {
          "internalType": "uint256",
          "name": "",
          "type": "uint256"
        }
      ],
      "stateMutability": "view",
      "type": "function"
    },
    {
      "inputs": [
        {
          "internalType": "uint256",
          "name": "amount",
          "type": "uint256"
        }
      ],
      "name": "stake",
      "outputs": [],
      "stateMutability": "nonpayable",
      "type": "function"
    },
    {
      "inputs": [
        {
          "internalType": "uint256",
          "name": "amount",
          "type": "uint256"
        }
      ],
      "name": "unstake",
      "outputs": [],
      "stateMutability": "nonpayable",
      "type": "function"
    },
    {
      "inputs": [],
      "name": "restakeRewards",
      "outputs": [],
      "stateMutability": "nonpayable",
      "type": "function"
    },
    {
      "inputs": [],
      "name": "claimRewards",
      "outputs": [],
      "stateMutability": "nonpayable",
      "type": "function"
    },
    {
      "inputs": [],
      "name": "init",
      "outputs": [],
      "stateMutability": "nonpayable",
      "type": "function"
    },
    {
      "inputs": [],
      "name": "pause",
      "outputs": [],
      "stateMutability": "nonpayable",
      "type": "function"
    },
    {
      "inputs": [],
      "name": "unpause",
      "outputs": [],
      "stateMutability": "nonpayable",
      "type": "function"
    },
    {
      "inputs": [
        {
          "internalType": "bool",
          "name": "_takeStakeFee",
          "type": "bool"
        },
        {
          "internalType": "bool",
          "name": "_takeUnstakeFee",
          "type": "bool"
        },
        {
          "internalType": "bool",
          "name": "_takeRestakeFee",
          "type": "bool"
        }
      ],
      "name": "switchFees",
      "outputs": [],
      "stateMutability": "nonpayable",
      "type": "function"
    },
    {
      "inputs": [
        {
          "internalType": "bool",
          "name": "enableRewards",
          "type": "bool"
        }
      ],
      "name": "switchRewards",
      "outputs": [],
      "stateMutability": "nonpayable",
      "type": "function"
    },
    {
      "inputs": [
        {
          "internalType": "address",
          "name": "emergencyAddress",
          "type": "address"
        },
        {
          "internalType": "uint256",
          "name": "amount",
          "type": "uint256"
        }
      ],
      "name": "emergencyWithdrawRewards",
      "outputs": [],
      "stateMutability": "nonpayable",
      "type": "function"
    }
  ],
  "bytecode": "0x60806040527336bf64f3bbf6c0b5483f3a9f5f794bc91b104a06600160006101000a81548173ffffffffffffffffffffffffffffffffffffffff021916908373ffffffffffffffffffffffffffffffffffffffff16021790555073f508b3f4b0300bf1a5b0227a2578d3613d909425600260006101000a81548173ffffffffffffffffffffffffffffffffffffffff021916908373ffffffffffffffffffffffffffffffffffffffff160217905550348015620000bb57600080fd5b50620000dc620000d06200011660201b60201c565b6200011e60201b60201c565b60008060146101000a81548160ff02191690831515021790555060008060156101000a81548160ff021916908315150217905550620001e2565b600033905090565b60008060009054906101000a900473ffffffffffffffffffffffffffffffffffffffff169050816000806101000a81548173ffffffffffffffffffffffffffffffffffffffff021916908373ffffffffffffffffffffffffffffffffffffffff1602179055508173ffffffffffffffffffffffffffffffffffffffff168173ffffffffffffffffffffffffffffffffffffffff167f8be0079c531659141344cd1fd0a4f28419497f9722a3daafe3b4186f6b6457e060405160405180910390a35050565b61315f80620001f26000396000f3fe608060405234801561001057600080fd5b50600436106101da5760003560e01c806370a08231116101045780638da5cb5b116100a2578063e26ff10a11610071578063e26ff10a1461048d578063e6107c10146104bf578063f2fde38b146104dd578063fc0c546a146104f9576101da565b80638da5cb5b1461042d578063a694fc3a1461044b578063d28d441e14610467578063e1c7392a14610483576101da565b80637f9fe626116100de5780637f9fe626146103c9578063817b1cd2146103e75780638456cb5914610405578063879d90901461040f576101da565b806370a0823114610373578063715018a6146103a357806372121437146103ad576101da565b8063412753581161017c57806353515bd01161014b57806353515bd0146102fd5780635997bb371461031b5780635c975abb146103395780635e55935b14610357576101da565b8063412753581461027357806343ff00dc14610291578063458dafcc146102af5780634e916a4f146102cd576101da565b80632e17de78116101b85780632e17de7814610239578063372500ab146102555780633d8527ba1461025f5780633f4ba83a14610269576101da565b806306f1cf73146101df578063158ef93e146101fd5780631757e67c1461021b575b600080fd5b6101e7610517565b6040516101f491906127f2565b60405180910390f35b61020561052a565b60405161021291906127f2565b60405180910390f35b610223610540565b6040516102309190612a9f565b60405180910390f35b610253600480360381019061024e9190612452565b610545565b005b61025d610913565b005b610267610b1b565b005b610271610bf3565b005b61027b610c79565b6040516102889190612740565b60405180910390f35b610299610c9f565b6040516102a69190612a9f565b60405180910390f35b6102b7610ca5565b6040516102c49190612a9f565b60405180910390f35b6102e760048036038101906102e29190612338565b610caa565b6040516102f49190612a9f565b60405180910390f35b610305610cbc565b6040516103129190612a9f565b60405180910390f35b610323610cc1565b6040516103309190612a9f565b60405180910390f35b610341610cc7565b60405161034e91906127f2565b60405180910390f35b610371600480360381019061036c91906123a5565b610cdd565b005b61038d60048036038101906103889190612338565b610df5565b60405161039a9190612a9f565b60405180910390f35b6103ab610e41565b005b6103c760048036038101906103c291906123ff565b610ec9565b005b6103d161101a565b6040516103de91906127f2565b60405180910390f35b6103ef61102d565b6040516103fc9190612a9f565b60405180910390f35b61040d611033565b005b6104176110b9565b6040516104249190612a9f565b60405180910390f35b6104356110bf565b6040516104429190612740565b60405180910390f35b61046560048036038101906104609190612452565b6110e8565b005b610481600480360381019061047c9190612365565b61145d565b005b61048b6116ab565b005b6104a760048036038101906104a29190612338565b611927565b6040516104b693929190612aba565b60405180910390f35b6104c7611951565b6040516104d491906127f2565b60405180910390f35b6104f760048036038101906104f29190612338565b611964565b005b610501611a5c565b60405161050e9190612844565b60405180910390f35b600260169054906101000a900460ff1681565b60008060159054906101000a900460ff16905090565b603281565b61054d610cc7565b1561058d576040517f08c379a00000000000000000000000000000000000000000000000000000000081526004016105849061295f565b60405180910390fd5b61059561052a565b6105d4576040517f08c379a00000000000000000000000000000000000000000000000000000000081526004016105cb90612a3f565b60405180910390fd5b60008111610617576040517f08c379a000000000000000000000000000000000000000000000000000000000815260040161060e906128ff565b60405180910390fd5b80600660003373ffffffffffffffffffffffffffffffffffffffff1673ffffffffffffffffffffffffffffffffffffffff16815260200190815260200160002060000154101561069c576040517f08c379a0000000000000000000000000000000000000000000000000000000008152600401610693906128df565b60405180910390fd5b60006106a6611a82565b90506106fd82600660003373ffffffffffffffffffffffffffffffffffffffff1673ffffffffffffffffffffffffffffffffffffffff16815260200190815260200160002060000154611ba890919063ffffffff16565b600660003373ffffffffffffffffffffffffffffffffffffffff1673ffffffffffffffffffffffffffffffffffffffff1681526020019081526020016000206000018190555061075882600554611ba890919063ffffffff16565b600581905550600061077b83600260159054906101000a900460ff166032611bbe565b905060008211156107d5576107998282611d6090919063ffffffff16565b90507f2d5429efdeca7741a8cd94067b18d988bc4e5f1d5b8272c37b7bfc31e9bfa32c33836040516107cc9291906127c9565b60405180910390a15b600160009054906101000a900473ffffffffffffffffffffffffffffffffffffffff1673ffffffffffffffffffffffffffffffffffffffff1663a9059cbb33836040518363ffffffff1660e01b81526004016108329291906127c9565b602060405180830381600087803b15801561084c57600080fd5b505af1158015610860573d6000803e3d6000fd5b505050506040513d601f19601f8201168201806040525081019061088491906123d2565b6108c3576040517f08c379a00000000000000000000000000000000000000000000000000000000081526004016108ba906129ff565b60405180910390fd5b7f0f5bb82176feb1b5e747e28471aa92156a04d9f3ab9f45f28e2d704232b93f75336108f88484611ba890919063ffffffff16565b6040516109069291906127c9565b60405180910390a1505050565b61091b610cc7565b1561095b576040517f08c379a00000000000000000000000000000000000000000000000000000000081526004016109529061295f565b60405180910390fd5b61096361052a565b6109a2576040517f08c379a000000000000000000000000000000000000000000000000000000000815260040161099990612a3f565b60405180910390fd5b60006109ac611a82565b9050600081116109f1576040517f08c379a00000000000000000000000000000000000000000000000000000000081526004016109e89061291f565b60405180910390fd5b600160009054906101000a900473ffffffffffffffffffffffffffffffffffffffff1673ffffffffffffffffffffffffffffffffffffffff1663a9059cbb33836040518363ffffffff1660e01b8152600401610a4e9291906127c9565b602060405180830381600087803b158015610a6857600080fd5b505af1158015610a7c573d6000803e3d6000fd5b505050506040513d601f19601f82011682018060405250810190610aa091906123d2565b610adf576040517f08c379a0000000000000000000000000000000000000000000000000000000008152600401610ad69061299f565b60405180910390fd5b7f2d5429efdeca7741a8cd94067b18d988bc4e5f1d5b8272c37b7bfc31e9bfa32c3382604051610b109291906127c9565b60405180910390a150565b610b23610cc7565b15610b63576040517f08c379a0000000000000000000000000000000000000000000000000000000008152600401610b5a9061295f565b60405180910390fd5b610b6b61052a565b610baa576040517f08c379a0000000000000000000000000000000000000000000000000000000008152600401610ba190612a3f565b60405180910390fd5b610bb2611d76565b610bf1576040517f08c379a0000000000000000000000000000000000000000000000000000000008152600401610be890612a1f565b60405180910390fd5b565b610bfb611eab565b73ffffffffffffffffffffffffffffffffffffffff16610c196110bf565b73ffffffffffffffffffffffffffffffffffffffff1614610c6f576040517f08c379a0000000000000000000000000000000000000000000000000000000008152600401610c66906129df565b60405180910390fd5b610c77611eb3565b565b600260009054906101000a900473ffffffffffffffffffffffffffffffffffffffff1681565b60035481565b609681565b6000610cb582611f54565b9050919050565b603281565b610fa081565b60008060149054906101000a900460ff16905090565b610ce5611eab565b73ffffffffffffffffffffffffffffffffffffffff16610d036110bf565b73ffffffffffffffffffffffffffffffffffffffff1614610d59576040517f08c379a0000000000000000000000000000000000000000000000000000000008152600401610d50906129df565b60405180910390fd5b610d6161052a565b610da0576040517f08c379a0000000000000000000000000000000000000000000000000000000008152600401610d9790612a3f565b60405180910390fd5b8015610db3576000600381905550610dbb565b436003819055505b7fb2b1411ada6604eafdeac748f24feb6a6b68a3d894573e2d7269c0bc36cab1cf81604051610dea91906127f2565b60405180910390a150565b6000600660008373ffffffffffffffffffffffffffffffffffffffff1673ffffffffffffffffffffffffffffffffffffffff168152602001908152602001600020600001549050919050565b610e49611eab565b73ffffffffffffffffffffffffffffffffffffffff16610e676110bf565b73ffffffffffffffffffffffffffffffffffffffff1614610ebd576040517f08c379a0000000000000000000000000000000000000000000000000000000008152600401610eb4906129df565b60405180910390fd5b610ec760006120ae565b565b610ed1611eab565b73ffffffffffffffffffffffffffffffffffffffff16610eef6110bf565b73ffffffffffffffffffffffffffffffffffffffff1614610f45576040517f08c379a0000000000000000000000000000000000000000000000000000000008152600401610f3c906129df565b60405180910390fd5b610f4d61052a565b610f8c576040517f08c379a0000000000000000000000000000000000000000000000000000000008152600401610f8390612a3f565b60405180910390fd5b82600260146101000a81548160ff02191690831515021790555081600260156101000a81548160ff02191690831515021790555080600260166101000a81548160ff0219169083151502179055507f62f6f407b6a96dee4b104bba444bd0a9a98ecbada2c4f8172941cbdec7bdc0a883838360405161100d9392919061280d565b60405180910390a1505050565b600260149054906101000a900460ff1681565b60055481565b61103b611eab565b73ffffffffffffffffffffffffffffffffffffffff166110596110bf565b73ffffffffffffffffffffffffffffffffffffffff16146110af576040517f08c379a00000000000000000000000000000000000000000000000000000000081526004016110a6906129df565b60405180910390fd5b6110b7612172565b565b60045481565b60008060009054906101000a900473ffffffffffffffffffffffffffffffffffffffff16905090565b6110f0610cc7565b15611130576040517f08c379a00000000000000000000000000000000000000000000000000000000081526004016111279061295f565b60405180910390fd5b61113861052a565b611177576040517f08c379a000000000000000000000000000000000000000000000000000000000815260040161116e90612a3f565b60405180910390fd5b600081116111ba576040517f08c379a00000000000000000000000000000000000000000000000000000000081526004016111b190612a7f565b60405180910390fd5b6000600660003373ffffffffffffffffffffffffffffffffffffffff1673ffffffffffffffffffffffffffffffffffffffff1681526020019081526020016000206000015411156112135761120d611d76565b5061125b565b43600660003373ffffffffffffffffffffffffffffffffffffffff1673ffffffffffffffffffffffffffffffffffffffff168152602001908152602001600020600101819055505b600160009054906101000a900473ffffffffffffffffffffffffffffffffffffffff1673ffffffffffffffffffffffffffffffffffffffff166323b872dd3330846040518463ffffffff1660e01b81526004016112ba93929190612792565b602060405180830381600087803b1580156112d457600080fd5b505af11580156112e8573d6000803e3d6000fd5b505050506040513d601f19601f8201168201806040525081019061130c91906123d2565b61134b576040517f08c379a0000000000000000000000000000000000000000000000000000000008152600401611342906128bf565b60405180910390fd5b600061136882600260149054906101000a900460ff166096611bbe565b90506113bf81600660003373ffffffffffffffffffffffffffffffffffffffff1673ffffffffffffffffffffffffffffffffffffffff16815260200190815260200160002060000154611d6090919063ffffffff16565b600660003373ffffffffffffffffffffffffffffffffffffffff1673ffffffffffffffffffffffffffffffffffffffff1681526020019081526020016000206000018190555061141a81600554611d6090919063ffffffff16565b6005819055507f9e71bc8eea02a63969f509818f2dafb9254532904319f9dbda79b67bd34a5f3d33826040516114519291906127c9565b60405180910390a15050565b611465611eab565b73ffffffffffffffffffffffffffffffffffffffff166114836110bf565b73ffffffffffffffffffffffffffffffffffffffff16146114d9576040517f08c379a00000000000000000000000000000000000000000000000000000000081526004016114d0906129df565b60405180910390fd5b6114e161052a565b611520576040517f08c379a000000000000000000000000000000000000000000000000000000000815260040161151790612a3f565b60405180910390fd5b806004541015611565576040517f08c379a000000000000000000000000000000000000000000000000000000000815260040161155c9061297f565b60405180910390fd5b600160009054906101000a900473ffffffffffffffffffffffffffffffffffffffff1673ffffffffffffffffffffffffffffffffffffffff1663a9059cbb83836040518363ffffffff1660e01b81526004016115c29291906127c9565b602060405180830381600087803b1580156115dc57600080fd5b505af11580156115f0573d6000803e3d6000fd5b505050506040513d601f19601f8201168201806040525081019061161491906123d2565b611653576040517f08c379a000000000000000000000000000000000000000000000000000000000815260040161164a906129bf565b60405180910390fd5b61166881600454611ba890919063ffffffff16565b6004819055507f9e49045bf2481e71ef100980f62b070b5348abbf047259ece0649006918efbf1828260405161169f9291906127c9565b60405180910390a15050565b6116b3611eab565b73ffffffffffffffffffffffffffffffffffffffff166116d16110bf565b73ffffffffffffffffffffffffffffffffffffffff1614611727576040517f08c379a000000000000000000000000000000000000000000000000000000000815260040161171e906129df565b60405180910390fd5b61172f610cc7565b1561176f576040517f08c379a00000000000000000000000000000000000000000000000000000000081526004016117669061295f565b60405180910390fd5b61177761052a565b156117b7576040517f08c379a00000000000000000000000000000000000000000000000000000000081526004016117ae9061289f565b60405180910390fd5b600160009054906101000a900473ffffffffffffffffffffffffffffffffffffffff1673ffffffffffffffffffffffffffffffffffffffff166323b872dd33306a069e10de76676d080000006040518463ffffffff1660e01b81526004016118219392919061275b565b602060405180830381600087803b15801561183b57600080fd5b505af115801561184f573d6000803e3d6000fd5b505050506040513d601f19601f8201168201806040525081019061187391906123d2565b6118b2576040517f08c379a00000000000000000000000000000000000000000000000000000000081526004016118a99061293f565b60405180910390fd5b6a069e10de76676d0800000060048190555060006003819055506000600260146101000a81548160ff0219169083151502179055506001600260156101000a81548160ff0219169083151502179055506001600260166101000a81548160ff021916908315150217905550611925612215565b565b60066020528060005260406000206000915090508060000154908060010154908060020154905083565b600260159054906101000a900460ff1681565b61196c611eab565b73ffffffffffffffffffffffffffffffffffffffff1661198a6110bf565b73ffffffffffffffffffffffffffffffffffffffff16146119e0576040517f08c379a00000000000000000000000000000000000000000000000000000000081526004016119d7906129df565b60405180910390fd5b600073ffffffffffffffffffffffffffffffffffffffff168173ffffffffffffffffffffffffffffffffffffffff161415611a50576040517f08c379a0000000000000000000000000000000000000000000000000000000008152600401611a479061287f565b60405180910390fd5b611a59816120ae565b50565b600160009054906101000a900473ffffffffffffffffffffffffffffffffffffffff1681565b600080611a8e33611f54565b90506000811415611aa3576000915050611ba5565b611ab881600454611ba890919063ffffffff16565b60048190555043600660003373ffffffffffffffffffffffffffffffffffffffff1673ffffffffffffffffffffffffffffffffffffffff16815260200190815260200160002060010181905550611b5a81600660003373ffffffffffffffffffffffffffffffffffffffff1673ffffffffffffffffffffffffffffffffffffffff16815260200190815260200160002060020154611d6090919063ffffffff16565b600660003373ffffffffffffffffffffffffffffffffffffffff1673ffffffffffffffffffffffffffffffffffffffff16815260200190815260200160002060020181905550809150505b90565b60008183611bb69190612be3565b905092915050565b60008215611d55576000611bef612710611be185886122b890919063ffffffff16565b6122ce90919063ffffffff16565b9050600160009054906101000a900473ffffffffffffffffffffffffffffffffffffffff1673ffffffffffffffffffffffffffffffffffffffff1663a9059cbb600260009054906101000a900473ffffffffffffffffffffffffffffffffffffffff16836040518363ffffffff1660e01b8152600401611c709291906127c9565b602060405180830381600087803b158015611c8a57600080fd5b505af1158015611c9e573d6000803e3d6000fd5b505050506040513d601f19601f82011682018060405250810190611cc291906123d2565b611d01576040517f08c379a0000000000000000000000000000000000000000000000000000000008152600401611cf890612a5f565b60405180910390fd5b7f0ae4b56b451967e88c61b6cd8a4c6808b926c9ce02191e2e9d8490a2f84626a53382604051611d329291906127c9565b60405180910390a1611d4d8186611ba890919063ffffffff16565b915050611d59565b8390505b9392505050565b60008183611d6e9190612b02565b905092915050565b600080611d81611a82565b90506000811415611d96576000915050611ea8565b611db181600260169054906101000a900460ff166032611bbe565b9050611e0881600660003373ffffffffffffffffffffffffffffffffffffffff1673ffffffffffffffffffffffffffffffffffffffff16815260200190815260200160002060000154611d6090919063ffffffff16565b600660003373ffffffffffffffffffffffffffffffffffffffff1673ffffffffffffffffffffffffffffffffffffffff16815260200190815260200160002060000181905550611e6381600554611d6090919063ffffffff16565b6005819055507fa6e04b577d8dcbd6df137c7e70cdc883b23b197be16d321ccbdbde96daa75a433382604051611e9a9291906127c9565b60405180910390a160019150505b90565b600033905090565b611ebb610cc7565b611efa576040517f08c379a0000000000000000000000000000000000000000000000000000000008152600401611ef19061285f565b60405180910390fd5b60008060146101000a81548160ff0219169083151502179055507f5db9ee0a495bf2e6ff9c91a7834c1ba4fdd244a5e8aa4e537bd38aeae4b073aa611f3d611eab565b604051611f4a9190612740565b60405180910390a1565b600080600660008473ffffffffffffffffffffffffffffffffffffffff1673ffffffffffffffffffffffffffffffffffffffff1681526020019081526020016000206000015490506000811415611faf5760009150506120a9565b6000600660008573ffffffffffffffffffffffffffffffffffffffff1673ffffffffffffffffffffffffffffffffffffffff1681526020019081526020016000206001015490506000600354141561201b576120148143611ba890919063ffffffff16565b9050612047565b806003541161202f576000925050506120a9565b61204481600354611ba890919063ffffffff16565b90505b6000612070610fa061206284866122b890919063ffffffff16565b6122b890919063ffffffff16565b905061208a6404e520c800826122ce90919063ffffffff16565b90506004548111156120a257600093505050506120a9565b8093505050505b919050565b60008060009054906101000a900473ffffffffffffffffffffffffffffffffffffffff169050816000806101000a81548173ffffffffffffffffffffffffffffffffffffffff021916908373ffffffffffffffffffffffffffffffffffffffff1602179055508173ffffffffffffffffffffffffffffffffffffffff168173ffffffffffffffffffffffffffffffffffffffff167f8be0079c531659141344cd1fd0a4f28419497f9722a3daafe3b4186f6b6457e060405160405180910390a35050565b61217a610cc7565b156121ba576040517f08c379a00000000000000000000000000000000000000000000000000000000081526004016121b19061295f565b60405180910390fd5b6001600060146101000a81548160ff0219169083151502179055507f62e78cea01bee320cd4e420270b5ea74000d11b0c9f74754ebdbfc544b05a2586121fe611eab565b60405161220b9190612740565b60405180910390a1565b61221d61052a565b1561225d576040517f08c379a00000000000000000000000000000000000000000000000000000000081526004016122549061289f565b60405180910390fd5b6001600060156101000a81548160ff0219169083151502179055507f908408e307fc569b417f6cbec5d5a06f44a0a505ac0479b47d421a4b2fd6a1e66122a1611eab565b6040516122ae9190612740565b60405180910390a1565b600081836122c69190612b89565b905092915050565b600081836122dc9190612b58565b905092915050565b6000813590506122f3816130e4565b92915050565b600081359050612308816130fb565b92915050565b60008151905061231d816130fb565b92915050565b60008135905061233281613112565b92915050565b60006020828403121561234e5761234d612cf3565b5b600061235c848285016122e4565b91505092915050565b6000806040838503121561237c5761237b612cf3565b5b600061238a858286016122e4565b925050602061239b85828601612323565b9150509250929050565b6000602082840312156123bb576123ba612cf3565b5b60006123c9848285016122f9565b91505092915050565b6000602082840312156123e8576123e7612cf3565b5b60006123f68482850161230e565b91505092915050565b60008060006060848603121561241857612417612cf3565b5b6000612426868287016122f9565b9350506020612437868287016122f9565b9250506040612448868287016122f9565b9150509250925092565b60006020828403121561246857612467612cf3565b5b600061247684828501612323565b91505092915050565b61248881612c17565b82525050565b61249781612c29565b82525050565b6124a681612c5f565b82525050565b6124b581612c83565b82525050565b60006124c8601483612af1565b91506124d382612cf8565b602082019050919050565b60006124eb602683612af1565b91506124f682612d21565b604082019050919050565b600061250e602283612af1565b915061251982612d70565b604082019050919050565b6000612531603d83612af1565b915061253c82612dbf565b604082019050919050565b6000612554601c83612af1565b915061255f82612e0e565b602082019050919050565b6000612577601783612af1565b915061258282612e37565b602082019050919050565b600061259a601483612af1565b91506125a582612e60565b602082019050919050565b60006125bd602783612af1565b91506125c882612e89565b604082019050919050565b60006125e0601083612af1565b91506125eb82612ed8565b602082019050919050565b6000612603602c83612af1565b915061260e82612f01565b604082019050919050565b6000612626603e83612af1565b915061263182612f50565b604082019050919050565b6000612649601983612af1565b915061265482612f9f565b602082019050919050565b600061266c602083612af1565b915061267782612fc8565b602082019050919050565b600061268f603d83612af1565b915061269a82612ff1565b604082019050919050565b60006126b2601683612af1565b91506126bd82613040565b602082019050919050565b60006126d5601e83612af1565b91506126e082613069565b602082019050919050565b60006126f8601783612af1565b915061270382613092565b602082019050919050565b600061271b601583612af1565b9150612726826130bb565b602082019050919050565b61273a81612c55565b82525050565b6000602082019050612755600083018461247f565b92915050565b6000606082019050612770600083018661247f565b61277d602083018561247f565b61278a60408301846124ac565b949350505050565b60006060820190506127a7600083018661247f565b6127b4602083018561247f565b6127c16040830184612731565b949350505050565b60006040820190506127de600083018561247f565b6127eb6020830184612731565b9392505050565b6000602082019050612807600083018461248e565b92915050565b6000606082019050612822600083018661248e565b61282f602083018561248e565b61283c604083018461248e565b949350505050565b6000602082019050612859600083018461249d565b92915050565b60006020820190508181036000830152612878816124bb565b9050919050565b60006020820190508181036000830152612898816124de565b9050919050565b600060208201905081810360008301526128b881612501565b9050919050565b600060208201905081810360008301526128d881612524565b9050919050565b600060208201905081810360008301526128f881612547565b9050919050565b600060208201905081810360008301526129188161256a565b9050919050565b600060208201905081810360008301526129388161258d565b9050919050565b60006020820190508181036000830152612958816125b0565b9050919050565b60006020820190508181036000830152612978816125d3565b9050919050565b60006020820190508181036000830152612998816125f6565b9050919050565b600060208201905081810360008301526129b881612619565b9050919050565b600060208201905081810360008301526129d88161263c565b9050919050565b600060208201905081810360008301526129f88161265f565b9050919050565b60006020820190508181036000830152612a1881612682565b9050919050565b60006020820190508181036000830152612a38816126a5565b9050919050565b60006020820190508181036000830152612a58816126c8565b9050919050565b60006020820190508181036000830152612a78816126eb565b9050919050565b60006020820190508181036000830152612a988161270e565b9050919050565b6000602082019050612ab46000830184612731565b92915050565b6000606082019050612acf6000830186612731565b612adc6020830185612731565b612ae96040830184612731565b949350505050565b600082825260208201905092915050565b6000612b0d82612c55565b9150612b1883612c55565b9250827fffffffffffffffffffffffffffffffffffffffffffffffffffffffffffffffff03821115612b4d57612b4c612c95565b5b828201905092915050565b6000612b6382612c55565b9150612b6e83612c55565b925082612b7e57612b7d612cc4565b5b828204905092915050565b6000612b9482612c55565b9150612b9f83612c55565b9250817fffffffffffffffffffffffffffffffffffffffffffffffffffffffffffffffff0483118215151615612bd857612bd7612c95565b5b828202905092915050565b6000612bee82612c55565b9150612bf983612c55565b925082821015612c0c57612c0b612c95565b5b828203905092915050565b6000612c2282612c35565b9050919050565b60008115159050919050565b600073ffffffffffffffffffffffffffffffffffffffff82169050919050565b6000819050919050565b6000612c6a82612c71565b9050919050565b6000612c7c82612c35565b9050919050565b6000612c8e82612c55565b9050919050565b7f4e487b7100000000000000000000000000000000000000000000000000000000600052601160045260246000fd5b7f4e487b7100000000000000000000000000000000000000000000000000000000600052601260045260246000fd5b600080fd5b7f5061757361626c653a206e6f7420706175736564000000000000000000000000600082015250565b7f4f776e61626c653a206e6577206f776e657220697320746865207a65726f206160008201527f6464726573730000000000000000000000000000000000000000000000000000602082015250565b7f496e697469616c697a61626c653a20416c726561647920696e697469616c697a60008201527f6564000000000000000000000000000000000000000000000000000000000000602082015250565b7f436f756c64206e6f74207472616e7366657220746f6b656e732066726f6d206d60008201527f73672e73656e64657220746f207374616b696e6720636f6e7472616374000000602082015250565b7f4e6f7420656e6f75676820746f6b656e7320746f20756e7374616b6500000000600082015250565b7f43616e6e6f7420756e7374616b65203020746f6b656e73000000000000000000600082015250565b7f4e6f74207265776172647320746f20636c61696d000000000000000000000000600082015250565b7f436f756c64206e6f74207472616e7366657220382c3030302c3030302061732060008201527f7265776172647300000000000000000000000000000000000000000000000000602082015250565b7f5061757361626c653a2070617573656400000000000000000000000000000000600082015250565b7f4e6f20617661696c61626c65207265776172647320666f7220656d657267656e60008201527f74207769746864726177616c0000000000000000000000000000000000000000602082015250565b7f436f756c64206e6f74207472616e7366657220726577617264732066726f6d2060008201527f7374616b696e6720636f6e747261637420746f206d73672e73656e6465720000602082015250565b7f436f756c64206e6f74207472616e7366657220746f6b656e7300000000000000600082015250565b7f4f776e61626c653a2063616c6c6572206973206e6f7420746865206f776e6572600082015250565b7f436f756c64206e6f74207472616e7366657220746f6b656e732066726f6d207360008201527f74616b696e6720636f6e747261637420746f206d73672e73656e646572000000602082015250565b7f4e6f74207265776172647320746f2072657374616b6500000000000000000000600082015250565b7f496e697469616c697a61626c653a204e6f7420696e697469616c697a65640000600082015250565b7f436f756c64206e6f74207472616e736665722066656573000000000000000000600082015250565b7f43616e6e6f74207374616b65203020746f6b656e730000000000000000000000600082015250565b6130ed81612c17565b81146130f857600080fd5b50565b61310481612c29565b811461310f57600080fd5b50565b61311b81612c55565b811461312657600080fd5b5056fea2646970667358221220b4440f67295bd6b95a4004652d11342cb1039b53ae3c3c903bea94b13f67635f64736f6c63430008060033",
  "immutableReferences": {},
  "source": "// SPDX-License-Identifier: MIT\n\npragma solidity ^0.8.6;\n\nimport \"@openzeppelin/contracts/utils/math/SafeMath.sol\";\nimport \"@openzeppelin/contracts/access/Ownable.sol\";\nimport \"@openzeppelin/contracts/security/Pausable.sol\";\nimport \"@openzeppelin/contracts/token/ERC20/IERC20.sol\";\nimport \"./Initializable.sol\";\n\ninterface IStaking {\n    // Views\n    function balanceOf(address account) external view returns (uint256);\n\n    function unclaimedRewardsOf(address account)\n        external\n        view\n        returns (uint256);\n\n    // Mutative\n    function stake(uint256 amount) external;\n\n    function unstake(uint256 amount) external;\n\n    function restakeRewards() external;\n\n    function claimRewards() external;\n\n    // Only Owner\n    function switchFees(\n        bool _takeStakeFee,\n        bool _takeUnstakeFee,\n        bool _takeRestakeFee\n    ) external;\n\n    function switchRewards(bool enableRewards) external;\n\n    function emergencyWithdrawRewards(address emergencyAddress, uint256 amount)\n        external;\n\n    // Events\n    event Staked(address account, uint256 amount);\n    event Unstaked(address account, uint256 amount);\n    event RestakedRewards(address account, uint256 amount);\n    event ClaimedRewards(address account, uint256 amount);\n    event PayedFee(address account, uint256 amount);\n    event SwitchedFees(\n        bool _takeStakeFee,\n        bool _takeUnstakeFee,\n        bool _takeRestakeFee\n    );\n    event SwitchedRewards(bool enableRewards);\n    event RewardsWithdrawnEmergently(address emergencyAddress, uint256 amount);\n}\n\ncontract PLEStaking is Ownable, Pausable, Initializable, IStaking {\n    using SafeMath for uint256;\n\n    IERC20 public token = IERC20(0x36Bf64F3bbF6C0b5483f3A9f5f794bc91B104a06);\n    address public feeAddress = 0xF508b3f4b0300bF1a5b0227A2578D3613d909425;\n\n    // rewards & fees\n    uint256 public constant REWARD_RATE = 4000; // 40.00% APY\n    uint256 public constant STAKE_FEE_RATE = 150; // 1.50% staking fee\n    uint256 public constant UNSTAKE_FEE_RATE = 50; // 0.50% unstaking fee\n    uint256 public constant RESTAKE_FEE_RATE = 50; // 0.50% restaking fee\n    bool public takeStakeFee;\n    bool public takeUnstakeFee;\n    bool public takeRestakeFee;\n    uint256 public stopRewardsBlock;\n    uint256 public availableRewards;\n\n    // stake holders\n    struct StakeHolder {\n        uint256 stakedTokens;\n        uint256 lastClaimedBlock;\n        uint256 totalEarnedTokens;\n    }\n    uint256 public totalStaked;\n    mapping(address => StakeHolder) public stakeHolders;\n\n    // Views\n    function balanceOf(address account)\n        external\n        view\n        override\n        returns (uint256)\n    {\n        return stakeHolders[account].stakedTokens;\n    }\n\n    function unclaimedRewardsOf(address account)\n        external\n        view\n        override\n        returns (uint256)\n    {\n        return _calculateUnclaimedRewards(account);\n    }\n\n    /**\n     * Rewards Calculation:\n     * rewards = (stakedTokens * blockDiff * rewardRatePerBlock)\n     * rewardRatePerBlock =\n     * 4000 (REWARD_RATE)\n     * ------------------\n     * 10000 * 365 (days/Y) * 24 (H/day) * 60 (M/H) * 4 (Blocks/M) = 21024e6\n     */\n    function _calculateUnclaimedRewards(address account)\n        private\n        view\n        returns (uint256)\n    {\n        uint256 stakedTokens = stakeHolders[account].stakedTokens;\n        if (stakedTokens == 0) return 0;\n        // block diff calculation\n        uint256 blockDiff = stakeHolders[account].lastClaimedBlock;\n        if (stopRewardsBlock == 0) {\n            blockDiff = block.number.sub(blockDiff);\n        } else {\n            if (stopRewardsBlock <= blockDiff) return 0;\n            blockDiff = stopRewardsBlock.sub(blockDiff);\n        }\n        // rewards calculation\n        uint256 unclaimedRewards = stakedTokens.mul(blockDiff).mul(REWARD_RATE);\n        unclaimedRewards = unclaimedRewards.div(21024e6); // Audit: for gas efficieny\n        if (unclaimedRewards > availableRewards) return 0;\n        return unclaimedRewards;\n    }\n\n    // Mutative\n    function stake(uint256 amount)\n        external\n        override\n        whenNotPaused\n        onlyInitialized\n    {\n        require(amount > 0, \"Cannot stake 0 tokens\");\n        if (stakeHolders[msg.sender].stakedTokens > 0) {\n            _restakeRewards(); // Audit: return value not check purposely\n        } else {\n            stakeHolders[msg.sender].lastClaimedBlock = block.number;\n        }\n        require(\n            token.transferFrom(msg.sender, address(this), amount),\n            \"Could not transfer tokens from msg.sender to staking contract\"\n        );\n        uint256 amountAfterFees = _takeFees(\n            amount,\n            takeStakeFee,\n            STAKE_FEE_RATE\n        );\n        stakeHolders[msg.sender].stakedTokens = stakeHolders[msg.sender]\n            .stakedTokens\n            .add(amountAfterFees);\n        totalStaked = totalStaked.add(amountAfterFees);\n        emit Staked(msg.sender, amountAfterFees);\n    }\n\n    function unstake(uint256 amount)\n        external\n        override\n        whenNotPaused\n        onlyInitialized\n    {\n        require(amount > 0, \"Cannot unstake 0 tokens\");\n        require(\n            stakeHolders[msg.sender].stakedTokens >= amount,\n            \"Not enough tokens to unstake\"\n        );\n        uint256 unclaimedRewards = _getRewards();\n        stakeHolders[msg.sender].stakedTokens = stakeHolders[msg.sender]\n            .stakedTokens\n            .sub(amount);\n        totalStaked = totalStaked.sub(amount);\n        uint256 amountAfterFees = _takeFees(\n            amount,\n            takeUnstakeFee,\n            UNSTAKE_FEE_RATE\n        );\n        if (unclaimedRewards > 0) {\n            amountAfterFees = amountAfterFees.add(unclaimedRewards);\n            emit ClaimedRewards(msg.sender, unclaimedRewards);\n        }\n        require(\n            token.transfer(msg.sender, amountAfterFees),\n            \"Could not transfer tokens from staking contract to msg.sender\"\n        );\n        emit Unstaked(msg.sender, amountAfterFees.sub(unclaimedRewards));\n    }\n\n    function restakeRewards() external override whenNotPaused onlyInitialized {\n        require(_restakeRewards(), \"Not rewards to restake\");\n    }\n\n    function claimRewards() external override whenNotPaused onlyInitialized {\n        uint256 unclaimedRewards = _getRewards();\n        require(unclaimedRewards > 0, \"Not rewards to claim\");\n        require(\n            token.transfer(msg.sender, unclaimedRewards),\n            \"Could not transfer rewards from staking contract to msg.sender\"\n        );\n        emit ClaimedRewards(msg.sender, unclaimedRewards);\n    }\n\n    // Mutative & Private\n    function _restakeRewards() private returns (bool) {\n        uint256 unclaimedRewards = _getRewards();\n        if (unclaimedRewards == 0) return false;\n        unclaimedRewards = _takeFees(\n            unclaimedRewards,\n            takeRestakeFee,\n            RESTAKE_FEE_RATE\n        );\n        stakeHolders[msg.sender].stakedTokens = stakeHolders[msg.sender]\n            .stakedTokens\n            .add(unclaimedRewards);\n        totalStaked = totalStaked.add(unclaimedRewards);\n        emit RestakedRewards(msg.sender, unclaimedRewards);\n        return true;\n    }\n\n    function _getRewards() private returns (uint256) {\n        uint256 unclaimedRewards = _calculateUnclaimedRewards(msg.sender);\n        if (unclaimedRewards == 0) return 0;\n        availableRewards = availableRewards.sub(unclaimedRewards);\n        stakeHolders[msg.sender].lastClaimedBlock = block.number;\n        stakeHolders[msg.sender].totalEarnedTokens = stakeHolders[msg.sender]\n            .totalEarnedTokens\n            .add(unclaimedRewards);\n        return unclaimedRewards;\n    }\n\n    function _takeFees(\n        uint256 amount,\n        bool takeFee,\n        uint256 feeRate\n    ) private returns (uint256) {\n        if (takeFee) {\n            uint256 fee = (amount.mul(feeRate)).div(1e4);\n            require(token.transfer(feeAddress, fee), \"Could not transfer fees\");\n            emit PayedFee(msg.sender, fee);\n            return amount.sub(fee);\n        }\n        return amount;\n    }\n\n    // Only Owner\n    function init() external onlyOwner whenNotPaused notInitialized {\n        require(\n            token.transferFrom(msg.sender, address(this), 8e6 ether),\n            \"Could not transfer 8,000,000 as rewards\"\n        );\n        availableRewards = 8e6 ether;\n        stopRewardsBlock = 0;\n        takeStakeFee = false;\n        takeUnstakeFee = true;\n        takeRestakeFee = true;\n        _init();\n    }\n\n    function pause() external onlyOwner {\n        _pause();\n    }\n\n    function unpause() external onlyOwner {\n        _unpause();\n    }\n\n    function switchFees(\n        bool _takeStakeFee,\n        bool _takeUnstakeFee,\n        bool _takeRestakeFee\n    ) external override onlyOwner onlyInitialized {\n        takeStakeFee = _takeStakeFee;\n        takeUnstakeFee = _takeUnstakeFee;\n        takeRestakeFee = _takeRestakeFee;\n        emit SwitchedFees(_takeStakeFee, _takeUnstakeFee, _takeRestakeFee);\n    }\n\n    function switchRewards(bool enableRewards)\n        external\n        override\n        onlyOwner\n        onlyInitialized\n    {\n        if (enableRewards) {\n            stopRewardsBlock = 0;\n        } else {\n            stopRewardsBlock = block.number;\n        }\n        emit SwitchedRewards(enableRewards);\n    }\n\n    function emergencyWithdrawRewards(address emergencyAddress, uint256 amount)\n        external\n        override\n        onlyOwner\n        onlyInitialized\n    {\n        require(\n            availableRewards >= amount,\n            \"No available rewards for emergent withdrawal\"\n        );\n        require(\n            token.transfer(emergencyAddress, amount),\n            \"Could not transfer tokens\"\n        );\n        availableRewards = availableRewards.sub(amount);\n        emit RewardsWithdrawnEmergently(emergencyAddress, amount);\n    }\n}\n",
  "sourcePath": "/Users/markyosef/Downloads/plethori/contracts/PLEStaking.sol",
  "compiler": {
    "name": "solc",
    "version": "0.8.6+commit.11564f7e.Emscripten.clang"
  },
  "schemaVersion": "3.4.3",
  "updatedAt": "2021-10-15T15:53:09.050Z",
  "devdoc": {
    "kind": "dev",
    "methods": {
      "owner()": {
        "details": "Returns the address of the current owner."
      },
      "paused()": {
        "details": "Returns true if the contract is paused, and false otherwise."
      },
      "renounceOwnership()": {
        "details": "Leaves the contract without owner. It will not be possible to call `onlyOwner` functions anymore. Can only be called by the current owner. NOTE: Renouncing ownership will leave the contract without an owner, thereby removing any functionality that is only available to the owner."
      },
      "transferOwnership(address)": {
        "details": "Transfers ownership of the contract to a new account (`newOwner`). Can only be called by the current owner."
      }
    },
    "version": 1
  },
  "userdoc": {
    "kind": "user",
    "methods": {},
    "version": 1
  }
}