{
  "contractName": "PLEStaking",
  "abi": [
    {
      "anonymous": false,
      "inputs": [
        {
          "indexed": false,
          "internalType": "address",
          "name": "account",
          "type": "address"
        },
        {
          "indexed": false,
          "internalType": "uint256",
          "name": "amount",
          "type": "uint256"
        }
      ],
      "name": "ClaimedRewards",
      "type": "event"
    },
    {
      "anonymous": false,
      "inputs": [
        {
          "indexed": false,
          "internalType": "address",
          "name": "account",
          "type": "address"
        }
      ],
      "name": "Initialized",
      "type": "event"
    },
    {
      "anonymous": false,
      "inputs": [
        {
          "indexed": true,
          "internalType": "address",
          "name": "previousOwner",
          "type": "address"
        },
        {
          "indexed": true,
          "internalType": "address",
          "name": "newOwner",
          "type": "address"
        }
      ],
      "name": "OwnershipTransferred",
      "type": "event"
    },
    {
      "anonymous": false,
      "inputs": [
        {
          "indexed": false,
          "internalType": "address",
          "name": "account",
          "type": "address"
        }
      ],
      "name": "Paused",
      "type": "event"
    },
    {
      "anonymous": false,
      "inputs": [
        {
          "indexed": false,
          "internalType": "address",
          "name": "account",
          "type": "address"
        },
        {
          "indexed": false,
          "internalType": "uint256",
          "name": "amount",
          "type": "uint256"
        }
      ],
      "name": "PayedFee",
      "type": "event"
    },
    {
      "anonymous": false,
      "inputs": [
        {
          "indexed": false,
          "internalType": "address",
          "name": "account",
          "type": "address"
        },
        {
          "indexed": false,
          "internalType": "uint256",
          "name": "amount",
          "type": "uint256"
        }
      ],
      "name": "RestakedRewards",
      "type": "event"
    },
    {
      "anonymous": false,
      "inputs": [
        {
          "indexed": false,
          "internalType": "address",
          "name": "emergencyAddress",
          "type": "address"
        },
        {
          "indexed": false,
          "internalType": "uint256",
          "name": "amount",
          "type": "uint256"
        }
      ],
      "name": "RewardsWithdrawnEmergently",
      "type": "event"
    },
    {
      "anonymous": false,
      "inputs": [
        {
          "indexed": false,
          "internalType": "address",
          "name": "account",
          "type": "address"
        },
        {
          "indexed": false,
          "internalType": "uint256",
          "name": "amount",
          "type": "uint256"
        }
      ],
      "name": "Staked",
      "type": "event"
    },
    {
      "anonymous": false,
      "inputs": [
        {
          "indexed": false,
          "internalType": "bool",
          "name": "_takeStakeFee",
          "type": "bool"
        },
        {
          "indexed": false,
          "internalType": "bool",
          "name": "_takeUnstakeFee",
          "type": "bool"
        },
        {
          "indexed": false,
          "internalType": "bool",
          "name": "_takeRestakeFee",
          "type": "bool"
        }
      ],
      "name": "SwitchedFees",
      "type": "event"
    },
    {
      "anonymous": false,
      "inputs": [
        {
          "indexed": false,
          "internalType": "bool",
          "name": "enableRewards",
          "type": "bool"
        }
      ],
      "name": "SwitchedRewards",
      "type": "event"
    },
    {
      "anonymous": false,
      "inputs": [
        {
          "indexed": false,
          "internalType": "address",
          "name": "account",
          "type": "address"
        }
      ],
      "name": "Unpaused",
      "type": "event"
    },
    {
      "anonymous": false,
      "inputs": [
        {
          "indexed": false,
          "internalType": "address",
          "name": "account",
          "type": "address"
        },
        {
          "indexed": false,
          "internalType": "uint256",
          "name": "amount",
          "type": "uint256"
        }
      ],
      "name": "Unstaked",
      "type": "event"
    },
    {
      "inputs": [],
      "name": "BLOCKS_IN_YEAR_MULTIPLIED",
      "outputs": [
        {
          "internalType": "uint256",
          "name": "",
          "type": "uint256"
        }
      ],
      "stateMutability": "view",
      "type": "function"
    },
    {
      "inputs": [],
      "name": "RESTAKE_FEE_RATE",
      "outputs": [
        {
          "internalType": "uint256",
          "name": "",
          "type": "uint256"
        }
      ],
      "stateMutability": "view",
      "type": "function"
    },
    {
      "inputs": [],
      "name": "REWARD_RATE",
      "outputs": [
        {
          "internalType": "uint256",
          "name": "",
          "type": "uint256"
        }
      ],
      "stateMutability": "view",
      "type": "function"
    },
    {
      "inputs": [],
      "name": "STAKE_FEE_RATE",
      "outputs": [
        {
          "internalType": "uint256",
          "name": "",
          "type": "uint256"
        }
      ],
      "stateMutability": "view",
      "type": "function"
    },
    {
      "inputs": [],
      "name": "UNSTAKE_FEE_RATE",
      "outputs": [
        {
          "internalType": "uint256",
          "name": "",
          "type": "uint256"
        }
      ],
      "stateMutability": "view",
      "type": "function"
    },
    {
      "inputs": [],
      "name": "availableRewards",
      "outputs": [
        {
          "internalType": "uint256",
          "name": "",
          "type": "uint256"
        }
      ],
      "stateMutability": "view",
      "type": "function"
    },
    {
      "inputs": [],
      "name": "feeAddress",
      "outputs": [
        {
          "internalType": "address",
          "name": "",
          "type": "address"
        }
      ],
      "stateMutability": "view",
      "type": "function"
    },
    {
      "inputs": [],
      "name": "initialized",
      "outputs": [
        {
          "internalType": "bool",
          "name": "",
          "type": "bool"
        }
      ],
      "stateMutability": "view",
      "type": "function"
    },
    {
      "inputs": [],
      "name": "owner",
      "outputs": [
        {
          "internalType": "address",
          "name": "",
          "type": "address"
        }
      ],
      "stateMutability": "view",
      "type": "function"
    },
    {
      "inputs": [],
      "name": "paused",
      "outputs": [
        {
          "internalType": "bool",
          "name": "",
          "type": "bool"
        }
      ],
      "stateMutability": "view",
      "type": "function"
    },
    {
      "inputs": [],
      "name": "renounceOwnership",
      "outputs": [],
      "stateMutability": "nonpayable",
      "type": "function"
    },
    {
      "inputs": [
        {
          "internalType": "address",
          "name": "",
          "type": "address"
        }
      ],
      "name": "stakeHolders",
      "outputs": [
        {
          "internalType": "uint256",
          "name": "stakedTokens",
          "type": "uint256"
        },
        {
          "internalType": "uint256",
          "name": "lastClaimedBlock",
          "type": "uint256"
        },
        {
          "internalType": "uint256",
          "name": "totalEarnedTokens",
          "type": "uint256"
        },
        {
          "internalType": "uint256",
          "name": "totalFeesPayed",
          "type": "uint256"
        }
      ],
      "stateMutability": "view",
      "type": "function"
    },
    {
      "inputs": [],
      "name": "stopRewardsBlock",
      "outputs": [
        {
          "internalType": "uint256",
          "name": "",
          "type": "uint256"
        }
      ],
      "stateMutability": "view",
      "type": "function"
    },
    {
      "inputs": [],
      "name": "takeRestakeFee",
      "outputs": [
        {
          "internalType": "bool",
          "name": "",
          "type": "bool"
        }
      ],
      "stateMutability": "view",
      "type": "function"
    },
    {
      "inputs": [],
      "name": "takeStakeFee",
      "outputs": [
        {
          "internalType": "bool",
          "name": "",
          "type": "bool"
        }
      ],
      "stateMutability": "view",
      "type": "function"
    },
    {
      "inputs": [],
      "name": "takeUnstakeFee",
      "outputs": [
        {
          "internalType": "bool",
          "name": "",
          "type": "bool"
        }
      ],
      "stateMutability": "view",
      "type": "function"
    },
    {
      "inputs": [],
      "name": "token",
      "outputs": [
        {
          "internalType": "contract IERC20",
          "name": "",
          "type": "address"
        }
      ],
      "stateMutability": "view",
      "type": "function"
    },
    {
      "inputs": [],
      "name": "totalStaked",
      "outputs": [
        {
          "internalType": "uint256",
          "name": "",
          "type": "uint256"
        }
      ],
      "stateMutability": "view",
      "type": "function"
    },
    {
      "inputs": [
        {
          "internalType": "address",
          "name": "newOwner",
          "type": "address"
        }
      ],
      "name": "transferOwnership",
      "outputs": [],
      "stateMutability": "nonpayable",
      "type": "function"
    },
    {
      "inputs": [
        {
          "internalType": "address",
          "name": "account",
          "type": "address"
        }
      ],
      "name": "balanceOf",
      "outputs": [
        {
          "internalType": "uint256",
          "name": "",
          "type": "uint256"
        }
      ],
      "stateMutability": "view",
      "type": "function"
    },
    {
      "inputs": [],
      "name": "numberOfStakeHolders",
      "outputs": [
        {
          "internalType": "uint256",
          "name": "",
          "type": "uint256"
        }
      ],
      "stateMutability": "view",
      "type": "function"
    },
    {
      "inputs": [
        {
          "internalType": "address",
          "name": "account",
          "type": "address"
        }
      ],
      "name": "unclaimedRewardsOf",
      "outputs": [
        {
          "internalType": "uint256",
          "name": "",
          "type": "uint256"
        }
      ],
      "stateMutability": "view",
      "type": "function"
    },
    {
      "inputs": [
        {
          "internalType": "uint256",
          "name": "begin",
          "type": "uint256"
        },
        {
          "internalType": "uint256",
          "name": "end",
          "type": "uint256"
        }
      ],
      "name": "unclaimedRewardsOfUsers",
      "outputs": [
        {
          "internalType": "uint256",
          "name": "",
          "type": "uint256"
        }
      ],
      "stateMutability": "view",
      "type": "function"
    },
    {
      "inputs": [
        {
          "internalType": "uint256",
          "name": "amount",
          "type": "uint256"
        }
      ],
      "name": "stake",
      "outputs": [],
      "stateMutability": "nonpayable",
      "type": "function"
    },
    {
      "inputs": [
        {
          "internalType": "uint256",
          "name": "amount",
          "type": "uint256"
        }
      ],
      "name": "unstake",
      "outputs": [],
      "stateMutability": "nonpayable",
      "type": "function"
    },
    {
      "inputs": [],
      "name": "restakeRewards",
      "outputs": [],
      "stateMutability": "nonpayable",
      "type": "function"
    },
    {
      "inputs": [],
      "name": "claimRewards",
      "outputs": [],
      "stateMutability": "nonpayable",
      "type": "function"
    },
    {
      "inputs": [],
      "name": "init",
      "outputs": [],
      "stateMutability": "nonpayable",
      "type": "function"
    },
    {
      "inputs": [],
      "name": "pause",
      "outputs": [],
      "stateMutability": "nonpayable",
      "type": "function"
    },
    {
      "inputs": [],
      "name": "unpause",
      "outputs": [],
      "stateMutability": "nonpayable",
      "type": "function"
    },
    {
      "inputs": [
        {
          "internalType": "bool",
          "name": "_takeStakeFee",
          "type": "bool"
        },
        {
          "internalType": "bool",
          "name": "_takeUnstakeFee",
          "type": "bool"
        },
        {
          "internalType": "bool",
          "name": "_takeRestakeFee",
          "type": "bool"
        }
      ],
      "name": "switchFees",
      "outputs": [],
      "stateMutability": "nonpayable",
      "type": "function"
    },
    {
      "inputs": [
        {
          "internalType": "bool",
          "name": "enableRewards",
          "type": "bool"
        }
      ],
      "name": "switchRewards",
      "outputs": [],
      "stateMutability": "nonpayable",
      "type": "function"
    },
    {
      "inputs": [
        {
          "internalType": "address",
          "name": "emergencyAddress",
          "type": "address"
        },
        {
          "internalType": "uint256",
          "name": "amount",
          "type": "uint256"
        }
      ],
      "name": "emergencyWithdrawRewards",
      "outputs": [],
      "stateMutability": "nonpayable",
      "type": "function"
    }
  ],
  "bytecode": "0x6080604052733873965e73d9a21f88e645ce40b7db187fde4931600160006101000a81548173ffffffffffffffffffffffffffffffffffffffff021916908373ffffffffffffffffffffffffffffffffffffffff160217905550738b176d1d547afd831e5c74787e4ec6d184a5078e600260006101000a81548173ffffffffffffffffffffffffffffffffffffffff021916908373ffffffffffffffffffffffffffffffffffffffff160217905550348015620000bb57600080fd5b50620000dc620000d06200011660201b60201c565b6200011e60201b60201c565b60008060146101000a81548160ff02191690831515021790555060008060156101000a81548160ff021916908315150217905550620001e2565b600033905090565b60008060009054906101000a900473ffffffffffffffffffffffffffffffffffffffff169050816000806101000a81548173ffffffffffffffffffffffffffffffffffffffff021916908373ffffffffffffffffffffffffffffffffffffffff1602179055508173ffffffffffffffffffffffffffffffffffffffff168173ffffffffffffffffffffffffffffffffffffffff167f8be0079c531659141344cd1fd0a4f28419497f9722a3daafe3b4186f6b6457e060405160405180910390a35050565b6136fc80620001f26000396000f3fe608060405234801561001057600080fd5b50600436106101fb5760003560e01c80636dba522a1161011a5780638da5cb5b116100ad578063e1c7392a1161007c578063e1c7392a14610510578063e26ff10a1461051a578063e6107c101461054d578063f2fde38b1461056b578063fc0c546a14610587576101fb565b80638da5cb5b1461049c578063a694fc3a146104ba578063aa9e1753146104d6578063d28d441e146104f4576101fb565b80637f9fe626116100e95780637f9fe62614610438578063817b1cd2146104565780638456cb5914610474578063879d90901461047e576101fb565b80636dba522a146103b257806370a08231146103e2578063715018a614610412578063721214371461041c576101fb565b8063412753581161019257806353515bd01161016157806353515bd01461033c5780635997bb371461035a5780635c975abb146103785780635e55935b14610396576101fb565b806341275358146102b257806343ff00dc146102d0578063458dafcc146102ee5780634e916a4f1461030c576101fb565b80632e17de78116101ce5780632e17de7814610278578063372500ab146102945780633d8527ba1461029e5780633f4ba83a146102a8576101fb565b806306f1cf7314610200578063158ef93e1461021e5780631757e67c1461023c57806323fed5aa1461025a575b600080fd5b6102086105a5565b6040516102159190612cda565b60405180910390f35b6102266105b8565b6040516102339190612cda565b60405180910390f35b6102446105ce565b6040516102519190612f87565b60405180910390f35b6102626105d3565b60405161026f9190612f87565b60405180910390f35b610292600480360381019061028d91906128fa565b6105dc565b005b61029c610a0b565b005b6102a6610c13565b005b6102b0610ceb565b005b6102ba610d71565b6040516102c79190612c28565b60405180910390f35b6102d8610d97565b6040516102e59190612f87565b60405180910390f35b6102f6610d9d565b6040516103039190612f87565b60405180910390f35b610326600480360381019061032191906127e0565b610da2565b6040516103339190612f87565b60405180910390f35b610344610db4565b6040516103519190612f87565b60405180910390f35b610362610db9565b60405161036f9190612f87565b60405180910390f35b610380610dbf565b60405161038d9190612cda565b60405180910390f35b6103b060048036038101906103ab919061284d565b610dd5565b005b6103cc60048036038101906103c79190612927565b610eed565b6040516103d99190612f87565b60405180910390f35b6103fc60048036038101906103f791906127e0565b610f64565b6040516104099190612f87565b60405180910390f35b61041a610fb0565b005b610436600480360381019061043191906128a7565b611038565b005b610440611189565b60405161044d9190612cda565b60405180910390f35b61045e61119c565b60405161046b9190612f87565b60405180910390f35b61047c6111a2565b005b610486611228565b6040516104939190612f87565b60405180910390f35b6104a461122e565b6040516104b19190612c28565b60405180910390f35b6104d460048036038101906104cf91906128fa565b611257565b005b6104de6115e1565b6040516104eb9190612f87565b60405180910390f35b61050e6004803603810190610509919061280d565b6115f2565b005b610518611840565b005b610534600480360381019061052f91906127e0565b611abc565b6040516105449493929190612fa2565b60405180910390f35b610555611aec565b6040516105629190612cda565b60405180910390f35b610585600480360381019061058091906127e0565b611aff565b005b61058f611bf7565b60405161059c9190612d2c565b60405180910390f35b600260169054906101000a900460ff1681565b60008060159054906101000a900460ff16905090565b603281565b6404e520c80081565b6105e4610dbf565b15610624576040517f08c379a000000000000000000000000000000000000000000000000000000000815260040161061b90612e47565b60405180910390fd5b61062c6105b8565b61066b576040517f08c379a000000000000000000000000000000000000000000000000000000000815260040161066290612f27565b60405180910390fd5b600081116106ae576040517f08c379a00000000000000000000000000000000000000000000000000000000081526004016106a590612de7565b60405180910390fd5b80600660003373ffffffffffffffffffffffffffffffffffffffff1673ffffffffffffffffffffffffffffffffffffffff168152602001908152602001600020600001541015610733576040517f08c379a000000000000000000000000000000000000000000000000000000000815260040161072a90612dc7565b60405180910390fd5b600061073d611c1d565b905061079482600660003373ffffffffffffffffffffffffffffffffffffffff1673ffffffffffffffffffffffffffffffffffffffff16815260200190815260200160002060000154611d4390919063ffffffff16565b600660003373ffffffffffffffffffffffffffffffffffffffff1673ffffffffffffffffffffffffffffffffffffffff168152602001908152602001600020600001819055506107ef82600554611d4390919063ffffffff16565b6005819055506000600660003373ffffffffffffffffffffffffffffffffffffffff1673ffffffffffffffffffffffffffffffffffffffff16815260200190815260200160002060000154141561085657610854336007611d5990919063ffffffff16565b505b600061087383600260159054906101000a900460ff166032611d89565b905060008211156108cd576108918282611fc690919063ffffffff16565b90507f2d5429efdeca7741a8cd94067b18d988bc4e5f1d5b8272c37b7bfc31e9bfa32c33836040516108c4929190612cb1565b60405180910390a15b600160009054906101000a900473ffffffffffffffffffffffffffffffffffffffff1673ffffffffffffffffffffffffffffffffffffffff1663a9059cbb33836040518363ffffffff1660e01b815260040161092a929190612cb1565b602060405180830381600087803b15801561094457600080fd5b505af1158015610958573d6000803e3d6000fd5b505050506040513d601f19601f8201168201806040525081019061097c919061287a565b6109bb576040517f08c379a00000000000000000000000000000000000000000000000000000000081526004016109b290612f07565b60405180910390fd5b7f0f5bb82176feb1b5e747e28471aa92156a04d9f3ab9f45f28e2d704232b93f75336109f08484611d4390919063ffffffff16565b6040516109fe929190612cb1565b60405180910390a1505050565b610a13610dbf565b15610a53576040517f08c379a0000000000000000000000000000000000000000000000000000000008152600401610a4a90612e47565b60405180910390fd5b610a5b6105b8565b610a9a576040517f08c379a0000000000000000000000000000000000000000000000000000000008152600401610a9190612f27565b60405180910390fd5b6000610aa4611c1d565b905060008111610ae9576040517f08c379a0000000000000000000000000000000000000000000000000000000008152600401610ae090612e07565b60405180910390fd5b600160009054906101000a900473ffffffffffffffffffffffffffffffffffffffff1673ffffffffffffffffffffffffffffffffffffffff1663a9059cbb33836040518363ffffffff1660e01b8152600401610b46929190612cb1565b602060405180830381600087803b158015610b6057600080fd5b505af1158015610b74573d6000803e3d6000fd5b505050506040513d601f19601f82011682018060405250810190610b98919061287a565b610bd7576040517f08c379a0000000000000000000000000000000000000000000000000000000008152600401610bce90612e87565b60405180910390fd5b7f2d5429efdeca7741a8cd94067b18d988bc4e5f1d5b8272c37b7bfc31e9bfa32c3382604051610c08929190612cb1565b60405180910390a150565b610c1b610dbf565b15610c5b576040517f08c379a0000000000000000000000000000000000000000000000000000000008152600401610c5290612e47565b60405180910390fd5b610c636105b8565b610ca2576040517f08c379a0000000000000000000000000000000000000000000000000000000008152600401610c9990612f27565b60405180910390fd5b610caa611fdc565b610ce9576040517f08c379a0000000000000000000000000000000000000000000000000000000008152600401610ce090612ea7565b60405180910390fd5b565b610cf3612111565b73ffffffffffffffffffffffffffffffffffffffff16610d1161122e565b73ffffffffffffffffffffffffffffffffffffffff1614610d67576040517f08c379a0000000000000000000000000000000000000000000000000000000008152600401610d5e90612ee7565b60405180910390fd5b610d6f612119565b565b600260009054906101000a900473ffffffffffffffffffffffffffffffffffffffff1681565b60035481565b609681565b6000610dad826121ba565b9050919050565b603281565b610fa081565b60008060149054906101000a900460ff16905090565b610ddd612111565b73ffffffffffffffffffffffffffffffffffffffff16610dfb61122e565b73ffffffffffffffffffffffffffffffffffffffff1614610e51576040517f08c379a0000000000000000000000000000000000000000000000000000000008152600401610e4890612ee7565b60405180910390fd5b610e596105b8565b610e98576040517f08c379a0000000000000000000000000000000000000000000000000000000008152600401610e8f90612f27565b60405180910390fd5b8015610eab576000600381905550610eb3565b436003819055505b7fb2b1411ada6604eafdeac748f24feb6a6b68a3d894573e2d7269c0bc36cab1cf81604051610ee29190612cda565b60405180910390a150565b6000806000905060008490505b8381108015610f115750610f0e6007612314565b81105b15610f5957610f44610f35610f3083600761232990919063ffffffff16565b6121ba565b83611fc690919063ffffffff16565b91508080610f519061318b565b915050610efa565b508091505092915050565b6000600660008373ffffffffffffffffffffffffffffffffffffffff1673ffffffffffffffffffffffffffffffffffffffff168152602001908152602001600020600001549050919050565b610fb8612111565b73ffffffffffffffffffffffffffffffffffffffff16610fd661122e565b73ffffffffffffffffffffffffffffffffffffffff161461102c576040517f08c379a000000000000000000000000000000000000000000000000000000000815260040161102390612ee7565b60405180910390fd5b6110366000612343565b565b611040612111565b73ffffffffffffffffffffffffffffffffffffffff1661105e61122e565b73ffffffffffffffffffffffffffffffffffffffff16146110b4576040517f08c379a00000000000000000000000000000000000000000000000000000000081526004016110ab90612ee7565b60405180910390fd5b6110bc6105b8565b6110fb576040517f08c379a00000000000000000000000000000000000000000000000000000000081526004016110f290612f27565b60405180910390fd5b82600260146101000a81548160ff02191690831515021790555081600260156101000a81548160ff02191690831515021790555080600260166101000a81548160ff0219169083151502179055507f62f6f407b6a96dee4b104bba444bd0a9a98ecbada2c4f8172941cbdec7bdc0a883838360405161117c93929190612cf5565b60405180910390a1505050565b600260149054906101000a900460ff1681565b60055481565b6111aa612111565b73ffffffffffffffffffffffffffffffffffffffff166111c861122e565b73ffffffffffffffffffffffffffffffffffffffff161461121e576040517f08c379a000000000000000000000000000000000000000000000000000000000815260040161121590612ee7565b60405180910390fd5b611226612407565b565b60045481565b60008060009054906101000a900473ffffffffffffffffffffffffffffffffffffffff16905090565b61125f610dbf565b1561129f576040517f08c379a000000000000000000000000000000000000000000000000000000000815260040161129690612e47565b60405180910390fd5b6112a76105b8565b6112e6576040517f08c379a00000000000000000000000000000000000000000000000000000000081526004016112dd90612f27565b60405180910390fd5b60008111611329576040517f08c379a000000000000000000000000000000000000000000000000000000000815260040161132090612f67565b60405180910390fd5b6000600660003373ffffffffffffffffffffffffffffffffffffffff1673ffffffffffffffffffffffffffffffffffffffff1681526020019081526020016000206000015411156113825761137c611fdc565b506113ca565b43600660003373ffffffffffffffffffffffffffffffffffffffff1673ffffffffffffffffffffffffffffffffffffffff168152602001908152602001600020600101819055505b600160009054906101000a900473ffffffffffffffffffffffffffffffffffffffff1673ffffffffffffffffffffffffffffffffffffffff166323b872dd3330846040518463ffffffff1660e01b815260040161142993929190612c7a565b602060405180830381600087803b15801561144357600080fd5b505af1158015611457573d6000803e3d6000fd5b505050506040513d601f19601f8201168201806040525081019061147b919061287a565b6114ba576040517f08c379a00000000000000000000000000000000000000000000000000000000081526004016114b190612da7565b60405180910390fd5b60006114d782600260149054906101000a900460ff166096611d89565b905061152e81600660003373ffffffffffffffffffffffffffffffffffffffff1673ffffffffffffffffffffffffffffffffffffffff16815260200190815260200160002060000154611fc690919063ffffffff16565b600660003373ffffffffffffffffffffffffffffffffffffffff1673ffffffffffffffffffffffffffffffffffffffff1681526020019081526020016000206000018190555061158981600554611fc690919063ffffffff16565b6005819055506115a33360076124aa90919063ffffffff16565b507f9e71bc8eea02a63969f509818f2dafb9254532904319f9dbda79b67bd34a5f3d33826040516115d5929190612cb1565b60405180910390a15050565b60006115ed6007612314565b905090565b6115fa612111565b73ffffffffffffffffffffffffffffffffffffffff1661161861122e565b73ffffffffffffffffffffffffffffffffffffffff161461166e576040517f08c379a000000000000000000000000000000000000000000000000000000000815260040161166590612ee7565b60405180910390fd5b6116766105b8565b6116b5576040517f08c379a00000000000000000000000000000000000000000000000000000000081526004016116ac90612f27565b60405180910390fd5b8060045410156116fa576040517f08c379a00000000000000000000000000000000000000000000000000000000081526004016116f190612e67565b60405180910390fd5b600160009054906101000a900473ffffffffffffffffffffffffffffffffffffffff1673ffffffffffffffffffffffffffffffffffffffff1663a9059cbb83836040518363ffffffff1660e01b8152600401611757929190612cb1565b602060405180830381600087803b15801561177157600080fd5b505af1158015611785573d6000803e3d6000fd5b505050506040513d601f19601f820116820180604052508101906117a9919061287a565b6117e8576040517f08c379a00000000000000000000000000000000000000000000000000000000081526004016117df90612ec7565b60405180910390fd5b6117fd81600454611d4390919063ffffffff16565b6004819055507f9e49045bf2481e71ef100980f62b070b5348abbf047259ece0649006918efbf18282604051611834929190612cb1565b60405180910390a15050565b611848612111565b73ffffffffffffffffffffffffffffffffffffffff1661186661122e565b73ffffffffffffffffffffffffffffffffffffffff16146118bc576040517f08c379a00000000000000000000000000000000000000000000000000000000081526004016118b390612ee7565b60405180910390fd5b6118c4610dbf565b15611904576040517f08c379a00000000000000000000000000000000000000000000000000000000081526004016118fb90612e47565b60405180910390fd5b61190c6105b8565b1561194c576040517f08c379a000000000000000000000000000000000000000000000000000000000815260040161194390612d87565b60405180910390fd5b600160009054906101000a900473ffffffffffffffffffffffffffffffffffffffff1673ffffffffffffffffffffffffffffffffffffffff166323b872dd33306a069e10de76676d080000006040518463ffffffff1660e01b81526004016119b693929190612c43565b602060405180830381600087803b1580156119d057600080fd5b505af11580156119e4573d6000803e3d6000fd5b505050506040513d601f19601f82011682018060405250810190611a08919061287a565b611a47576040517f08c379a0000000000000000000000000000000000000000000000000000000008152600401611a3e90612e27565b60405180910390fd5b6a069e10de76676d0800000060048190555060006003819055506000600260146101000a81548160ff0219169083151502179055506001600260156101000a81548160ff0219169083151502179055506001600260166101000a81548160ff021916908315150217905550611aba6124da565b565b60066020528060005260406000206000915090508060000154908060010154908060020154908060030154905084565b600260159054906101000a900460ff1681565b611b07612111565b73ffffffffffffffffffffffffffffffffffffffff16611b2561122e565b73ffffffffffffffffffffffffffffffffffffffff1614611b7b576040517f08c379a0000000000000000000000000000000000000000000000000000000008152600401611b7290612ee7565b60405180910390fd5b600073ffffffffffffffffffffffffffffffffffffffff168173ffffffffffffffffffffffffffffffffffffffff161415611beb576040517f08c379a0000000000000000000000000000000000000000000000000000000008152600401611be290612d67565b60405180910390fd5b611bf481612343565b50565b600160009054906101000a900473ffffffffffffffffffffffffffffffffffffffff1681565b600080611c29336121ba565b90506000811415611c3e576000915050611d40565b611c5381600454611d4390919063ffffffff16565b60048190555043600660003373ffffffffffffffffffffffffffffffffffffffff1673ffffffffffffffffffffffffffffffffffffffff16815260200190815260200160002060010181905550611cf581600660003373ffffffffffffffffffffffffffffffffffffffff1673ffffffffffffffffffffffffffffffffffffffff16815260200190815260200160002060020154611fc690919063ffffffff16565b600660003373ffffffffffffffffffffffffffffffffffffffff1673ffffffffffffffffffffffffffffffffffffffff16815260200190815260200160002060020181905550809150505b90565b60008183611d5191906130d9565b905092915050565b6000611d81836000018373ffffffffffffffffffffffffffffffffffffffff1660001b61257d565b905092915050565b60008215611fbb576000611dba612710611dac858861269190919063ffffffff16565b6126a790919063ffffffff16565b9050600160009054906101000a900473ffffffffffffffffffffffffffffffffffffffff1673ffffffffffffffffffffffffffffffffffffffff1663a9059cbb600260009054906101000a900473ffffffffffffffffffffffffffffffffffffffff16836040518363ffffffff1660e01b8152600401611e3b929190612cb1565b602060405180830381600087803b158015611e5557600080fd5b505af1158015611e69573d6000803e3d6000fd5b505050506040513d601f19601f82011682018060405250810190611e8d919061287a565b611ecc576040517f08c379a0000000000000000000000000000000000000000000000000000000008152600401611ec390612f47565b60405180910390fd5b611f2181600660003373ffffffffffffffffffffffffffffffffffffffff1673ffffffffffffffffffffffffffffffffffffffff16815260200190815260200160002060030154611fc690919063ffffffff16565b600660003373ffffffffffffffffffffffffffffffffffffffff1673ffffffffffffffffffffffffffffffffffffffff168152602001908152602001600020600301819055507f0ae4b56b451967e88c61b6cd8a4c6808b926c9ce02191e2e9d8490a2f84626a53382604051611f98929190612cb1565b60405180910390a1611fb38186611d4390919063ffffffff16565b915050611fbf565b8390505b9392505050565b60008183611fd49190612ff8565b905092915050565b600080611fe7611c1d565b90506000811415611ffc57600091505061210e565b61201781600260169054906101000a900460ff166032611d89565b905061206e81600660003373ffffffffffffffffffffffffffffffffffffffff1673ffffffffffffffffffffffffffffffffffffffff16815260200190815260200160002060000154611fc690919063ffffffff16565b600660003373ffffffffffffffffffffffffffffffffffffffff1673ffffffffffffffffffffffffffffffffffffffff168152602001908152602001600020600001819055506120c981600554611fc690919063ffffffff16565b6005819055507fa6e04b577d8dcbd6df137c7e70cdc883b23b197be16d321ccbdbde96daa75a433382604051612100929190612cb1565b60405180910390a160019150505b90565b600033905090565b612121610dbf565b612160576040517f08c379a000000000000000000000000000000000000000000000000000000000815260040161215790612d47565b60405180910390fd5b60008060146101000a81548160ff0219169083151502179055507f5db9ee0a495bf2e6ff9c91a7834c1ba4fdd244a5e8aa4e537bd38aeae4b073aa6121a3612111565b6040516121b09190612c28565b60405180910390a1565b600080600660008473ffffffffffffffffffffffffffffffffffffffff1673ffffffffffffffffffffffffffffffffffffffff168152602001908152602001600020600001549050600081141561221557600091505061230f565b6000600660008573ffffffffffffffffffffffffffffffffffffffff1673ffffffffffffffffffffffffffffffffffffffff168152602001908152602001600020600101549050600060035414156122815761227a8143611d4390919063ffffffff16565b90506122ad565b80600354116122955760009250505061230f565b6122aa81600354611d4390919063ffffffff16565b90505b60006122d6610fa06122c8848661269190919063ffffffff16565b61269190919063ffffffff16565b90506122f06404e520c800826126a790919063ffffffff16565b9050600454811115612308576000935050505061230f565b8093505050505b919050565b6000612322826000016126bd565b9050919050565b600061233883600001836126ce565b60001c905092915050565b60008060009054906101000a900473ffffffffffffffffffffffffffffffffffffffff169050816000806101000a81548173ffffffffffffffffffffffffffffffffffffffff021916908373ffffffffffffffffffffffffffffffffffffffff1602179055508173ffffffffffffffffffffffffffffffffffffffff168173ffffffffffffffffffffffffffffffffffffffff167f8be0079c531659141344cd1fd0a4f28419497f9722a3daafe3b4186f6b6457e060405160405180910390a35050565b61240f610dbf565b1561244f576040517f08c379a000000000000000000000000000000000000000000000000000000000815260040161244690612e47565b60405180910390fd5b6001600060146101000a81548160ff0219169083151502179055507f62e78cea01bee320cd4e420270b5ea74000d11b0c9f74754ebdbfc544b05a258612493612111565b6040516124a09190612c28565b60405180910390a1565b60006124d2836000018373ffffffffffffffffffffffffffffffffffffffff1660001b6126f9565b905092915050565b6124e26105b8565b15612522576040517f08c379a000000000000000000000000000000000000000000000000000000000815260040161251990612d87565b60405180910390fd5b6001600060156101000a81548160ff0219169083151502179055507f908408e307fc569b417f6cbec5d5a06f44a0a505ac0479b47d421a4b2fd6a1e6612566612111565b6040516125739190612c28565b60405180910390a1565b600080836001016000848152602001908152602001600020549050600081146126855760006001826125af91906130d9565b90506000600186600001805490506125c791906130d9565b90508181146126365760008660000182815481106125e8576125e7613261565b5b906000526020600020015490508087600001848154811061260c5761260b613261565b5b90600052602060002001819055508387600101600083815260200190815260200160002081905550505b8560000180548061264a57612649613232565b5b60019003818190600052602060002001600090559055856001016000868152602001908152602001600020600090556001935050505061268b565b60009150505b92915050565b6000818361269f919061307f565b905092915050565b600081836126b5919061304e565b905092915050565b600081600001805490509050919050565b60008260000182815481106126e6576126e5613261565b5b9060005260206000200154905092915050565b60006127058383612769565b61275e578260000182908060018154018082558091505060019003906000526020600020016000909190919091505582600001805490508360010160008481526020019081526020016000208190555060019050612763565b600090505b92915050565b600080836001016000848152602001908152602001600020541415905092915050565b60008135905061279b81613681565b92915050565b6000813590506127b081613698565b92915050565b6000815190506127c581613698565b92915050565b6000813590506127da816136af565b92915050565b6000602082840312156127f6576127f5613290565b5b60006128048482850161278c565b91505092915050565b6000806040838503121561282457612823613290565b5b60006128328582860161278c565b9250506020612843858286016127cb565b9150509250929050565b60006020828403121561286357612862613290565b5b6000612871848285016127a1565b91505092915050565b6000602082840312156128905761288f613290565b5b600061289e848285016127b6565b91505092915050565b6000806000606084860312156128c0576128bf613290565b5b60006128ce868287016127a1565b93505060206128df868287016127a1565b92505060406128f0868287016127a1565b9150509250925092565b6000602082840312156129105761290f613290565b5b600061291e848285016127cb565b91505092915050565b6000806040838503121561293e5761293d613290565b5b600061294c858286016127cb565b925050602061295d858286016127cb565b9150509250929050565b6129708161310d565b82525050565b61297f8161311f565b82525050565b61298e81613155565b82525050565b61299d81613179565b82525050565b60006129b0601483612fe7565b91506129bb82613295565b602082019050919050565b60006129d3602683612fe7565b91506129de826132be565b604082019050919050565b60006129f6602283612fe7565b9150612a018261330d565b604082019050919050565b6000612a19603d83612fe7565b9150612a248261335c565b604082019050919050565b6000612a3c601c83612fe7565b9150612a47826133ab565b602082019050919050565b6000612a5f601783612fe7565b9150612a6a826133d4565b602082019050919050565b6000612a82601383612fe7565b9150612a8d826133fd565b602082019050919050565b6000612aa5602783612fe7565b9150612ab082613426565b604082019050919050565b6000612ac8601083612fe7565b9150612ad382613475565b602082019050919050565b6000612aeb602c83612fe7565b9150612af68261349e565b604082019050919050565b6000612b0e603e83612fe7565b9150612b19826134ed565b604082019050919050565b6000612b31601583612fe7565b9150612b3c8261353c565b602082019050919050565b6000612b54601983612fe7565b9150612b5f82613565565b602082019050919050565b6000612b77602083612fe7565b9150612b828261358e565b602082019050919050565b6000612b9a603d83612fe7565b9150612ba5826135b7565b604082019050919050565b6000612bbd601e83612fe7565b9150612bc882613606565b602082019050919050565b6000612be0601783612fe7565b9150612beb8261362f565b602082019050919050565b6000612c03601583612fe7565b9150612c0e82613658565b602082019050919050565b612c228161314b565b82525050565b6000602082019050612c3d6000830184612967565b92915050565b6000606082019050612c586000830186612967565b612c656020830185612967565b612c726040830184612994565b949350505050565b6000606082019050612c8f6000830186612967565b612c9c6020830185612967565b612ca96040830184612c19565b949350505050565b6000604082019050612cc66000830185612967565b612cd36020830184612c19565b9392505050565b6000602082019050612cef6000830184612976565b92915050565b6000606082019050612d0a6000830186612976565b612d176020830185612976565b612d246040830184612976565b949350505050565b6000602082019050612d416000830184612985565b92915050565b60006020820190508181036000830152612d60816129a3565b9050919050565b60006020820190508181036000830152612d80816129c6565b9050919050565b60006020820190508181036000830152612da0816129e9565b9050919050565b60006020820190508181036000830152612dc081612a0c565b9050919050565b60006020820190508181036000830152612de081612a2f565b9050919050565b60006020820190508181036000830152612e0081612a52565b9050919050565b60006020820190508181036000830152612e2081612a75565b9050919050565b60006020820190508181036000830152612e4081612a98565b9050919050565b60006020820190508181036000830152612e6081612abb565b9050919050565b60006020820190508181036000830152612e8081612ade565b9050919050565b60006020820190508181036000830152612ea081612b01565b9050919050565b60006020820190508181036000830152612ec081612b24565b9050919050565b60006020820190508181036000830152612ee081612b47565b9050919050565b60006020820190508181036000830152612f0081612b6a565b9050919050565b60006020820190508181036000830152612f2081612b8d565b9050919050565b60006020820190508181036000830152612f4081612bb0565b9050919050565b60006020820190508181036000830152612f6081612bd3565b9050919050565b60006020820190508181036000830152612f8081612bf6565b9050919050565b6000602082019050612f9c6000830184612c19565b92915050565b6000608082019050612fb76000830187612c19565b612fc46020830186612c19565b612fd16040830185612c19565b612fde6060830184612c19565b95945050505050565b600082825260208201905092915050565b60006130038261314b565b915061300e8361314b565b9250827fffffffffffffffffffffffffffffffffffffffffffffffffffffffffffffffff03821115613043576130426131d4565b5b828201905092915050565b60006130598261314b565b91506130648361314b565b92508261307457613073613203565b5b828204905092915050565b600061308a8261314b565b91506130958361314b565b9250817fffffffffffffffffffffffffffffffffffffffffffffffffffffffffffffffff04831182151516156130ce576130cd6131d4565b5b828202905092915050565b60006130e48261314b565b91506130ef8361314b565b925082821015613102576131016131d4565b5b828203905092915050565b60006131188261312b565b9050919050565b60008115159050919050565b600073ffffffffffffffffffffffffffffffffffffffff82169050919050565b6000819050919050565b600061316082613167565b9050919050565b60006131728261312b565b9050919050565b60006131848261314b565b9050919050565b60006131968261314b565b91507fffffffffffffffffffffffffffffffffffffffffffffffffffffffffffffffff8214156131c9576131c86131d4565b5b600182019050919050565b7f4e487b7100000000000000000000000000000000000000000000000000000000600052601160045260246000fd5b7f4e487b7100000000000000000000000000000000000000000000000000000000600052601260045260246000fd5b7f4e487b7100000000000000000000000000000000000000000000000000000000600052603160045260246000fd5b7f4e487b7100000000000000000000000000000000000000000000000000000000600052603260045260246000fd5b600080fd5b7f5061757361626c653a206e6f7420706175736564000000000000000000000000600082015250565b7f4f776e61626c653a206e6577206f776e657220697320746865207a65726f206160008201527f6464726573730000000000000000000000000000000000000000000000000000602082015250565b7f496e697469616c697a61626c653a20416c726561647920696e697469616c697a60008201527f6564000000000000000000000000000000000000000000000000000000000000602082015250565b7f436f756c64206e6f74207472616e7366657220746f6b656e732066726f6d206d60008201527f73672e73656e64657220746f207374616b696e6720636f6e7472616374000000602082015250565b7f4e6f7420656e6f75676820746f6b656e7320746f20756e7374616b6500000000600082015250565b7f43616e6e6f7420756e7374616b65203020746f6b656e73000000000000000000600082015250565b7f4e6f207265776172647320746f20636c61696d00000000000000000000000000600082015250565b7f436f756c64206e6f74207472616e7366657220382c3030302c3030302061732060008201527f7265776172647300000000000000000000000000000000000000000000000000602082015250565b7f5061757361626c653a2070617573656400000000000000000000000000000000600082015250565b7f4e6f20617661696c61626c65207265776172647320666f7220656d657267656e60008201527f74207769746864726177616c0000000000000000000000000000000000000000602082015250565b7f436f756c64206e6f74207472616e7366657220726577617264732066726f6d2060008201527f7374616b696e6720636f6e747261637420746f206d73672e73656e6465720000602082015250565b7f4e6f207265776172647320746f2072657374616b650000000000000000000000600082015250565b7f436f756c64206e6f74207472616e7366657220746f6b656e7300000000000000600082015250565b7f4f776e61626c653a2063616c6c6572206973206e6f7420746865206f776e6572600082015250565b7f436f756c64206e6f74207472616e7366657220746f6b656e732066726f6d207360008201527f74616b696e6720636f6e747261637420746f206d73672e73656e646572000000602082015250565b7f496e697469616c697a61626c653a204e6f7420696e697469616c697a65640000600082015250565b7f436f756c64206e6f74207472616e736665722066656573000000000000000000600082015250565b7f43616e6e6f74207374616b65203020746f6b656e730000000000000000000000600082015250565b61368a8161310d565b811461369557600080fd5b50565b6136a18161311f565b81146136ac57600080fd5b50565b6136b88161314b565b81146136c357600080fd5b5056fea2646970667358221220a6dcfc3719ffeb3cd76a2f9e1e102ce9437bf158ebf1ac8c6e0d1d7ef7ebdc7b64736f6c63430008060033",
  "immutableReferences": {},
  "source": "// SPDX-License-Identifier: MIT\n\npragma solidity ^0.8.6;\n\nimport \"@openzeppelin/contracts/utils/math/SafeMath.sol\";\nimport \"@openzeppelin/contracts/access/Ownable.sol\";\nimport \"@openzeppelin/contracts/security/Pausable.sol\";\nimport \"@openzeppelin/contracts/token/ERC20/IERC20.sol\";\nimport \"@openzeppelin/contracts/utils/structs/EnumerableSet.sol\";\nimport \"./Initializable.sol\";\n\ninterface IStaking {\n    // Views\n    function balanceOf(address account) external view returns (uint256);\n\n    function numberOfStakeHolders() external view returns (uint256);\n\n    function unclaimedRewardsOf(address account)\n        external\n        view\n        returns (uint256);\n\n    function unclaimedRewardsOfUsers(uint256 begin, uint256 end)\n        external\n        view\n        returns (uint256);\n\n    // Mutative\n    function stake(uint256 amount) external;\n\n    function unstake(uint256 amount) external;\n\n    function restakeRewards() external;\n\n    function claimRewards() external;\n\n    // Only Owner\n    function switchFees(\n        bool _takeStakeFee,\n        bool _takeUnstakeFee,\n        bool _takeRestakeFee\n    ) external;\n\n    function switchRewards(bool enableRewards) external;\n\n    function emergencyWithdrawRewards(address emergencyAddress, uint256 amount)\n        external;\n\n    // Events\n    event Staked(address account, uint256 amount);\n    event Unstaked(address account, uint256 amount);\n    event RestakedRewards(address account, uint256 amount);\n    event ClaimedRewards(address account, uint256 amount);\n    event PayedFee(address account, uint256 amount);\n    event SwitchedFees(\n        bool _takeStakeFee,\n        bool _takeUnstakeFee,\n        bool _takeRestakeFee\n    );\n    event SwitchedRewards(bool enableRewards);\n    event RewardsWithdrawnEmergently(address emergencyAddress, uint256 amount);\n}\n\ncontract PLEStaking is Ownable, Pausable, Initializable, IStaking {\n    using SafeMath for uint256;\n    using EnumerableSet for EnumerableSet.AddressSet;\n\n    IERC20 public token = IERC20(0x3873965e73d9A21F88e645ce40B7db187FDE4931);\n    address public feeAddress = 0x8B176d1D547aFd831E5c74787e4ec6d184a5078E;\n\n    // rewards & fees\n    uint256 public constant REWARD_RATE = 4000; // 40.00% APY\n    uint256 public constant BLOCKS_IN_YEAR_MULTIPLIED = 21024e6;\n    uint256 public constant STAKE_FEE_RATE = 150; // 1.50% staking fee\n    uint256 public constant UNSTAKE_FEE_RATE = 50; // 0.50% unstaking fee\n    uint256 public constant RESTAKE_FEE_RATE = 50; // 0.50% restaking fee\n    bool public takeStakeFee;\n    bool public takeUnstakeFee;\n    bool public takeRestakeFee;\n    uint256 public stopRewardsBlock;\n    uint256 public availableRewards;\n\n    // stake holders\n    struct StakeHolder {\n        uint256 stakedTokens;\n        uint256 lastClaimedBlock;\n        uint256 totalEarnedTokens;\n        uint256 totalFeesPayed;\n    }\n    uint256 public totalStaked;\n    mapping(address => StakeHolder) public stakeHolders;\n    EnumerableSet.AddressSet private holders;\n\n    // Views\n    function balanceOf(address account)\n        external\n        view\n        override\n        returns (uint256)\n    {\n        return stakeHolders[account].stakedTokens;\n    }\n\n    function numberOfStakeHolders() external view override returns (uint256) {\n        return holders.length();\n    }\n\n    function unclaimedRewardsOf(address account)\n        external\n        view\n        override\n        returns (uint256)\n    {\n        return _calculateUnclaimedRewards(account);\n    }\n\n    function unclaimedRewardsOfUsers(uint256 begin, uint256 end)\n        external\n        view\n        override\n        returns (uint256)\n    {\n        uint256 totalUnclaimedRewards = 0;\n        for (uint256 i = begin; i < end && i < holders.length(); i++) {\n            totalUnclaimedRewards = totalUnclaimedRewards.add(\n                _calculateUnclaimedRewards(holders.at(i))\n            );\n        }\n        return totalUnclaimedRewards;\n    }\n\n    /**\n     * Rewards Calculation:\n     * rewards = (stakedTokens * blockDiff * rewardRatePerBlock)\n     * rewardRatePerBlock =\n     * 4000 (REWARD_RATE)\n     * ------------------\n     * 10000 * 365 (days/Y) * 24 (H/day) * 60 (M/H) * 4 (Blocks/M) = 21024e6 (BLOCKS_IN_YEAR_MULTIPLIED)\n     */\n    function _calculateUnclaimedRewards(address account)\n        private\n        view\n        returns (uint256)\n    {\n        uint256 stakedTokens = stakeHolders[account].stakedTokens;\n        if (stakedTokens == 0) return 0;\n        // block diff calculation\n        uint256 blockDiff = stakeHolders[account].lastClaimedBlock;\n        if (stopRewardsBlock == 0) {\n            blockDiff = block.number.sub(blockDiff);\n        } else {\n            if (stopRewardsBlock <= blockDiff) return 0;\n            blockDiff = stopRewardsBlock.sub(blockDiff);\n        }\n        // rewards calculation\n        uint256 unclaimedRewards = stakedTokens.mul(blockDiff).mul(REWARD_RATE);\n        unclaimedRewards = unclaimedRewards.div(BLOCKS_IN_YEAR_MULTIPLIED); // Audit: for gas efficieny\n        if (unclaimedRewards > availableRewards) return 0;\n        return unclaimedRewards;\n    }\n\n    // Mutative\n    function stake(uint256 amount)\n        external\n        override\n        whenNotPaused\n        onlyInitialized\n    {\n        require(amount > 0, \"Cannot stake 0 tokens\");\n        if (stakeHolders[msg.sender].stakedTokens > 0) {\n            _restakeRewards(); // Audit: return value not check purposely\n        } else {\n            stakeHolders[msg.sender].lastClaimedBlock = block.number;\n        }\n        require(\n            token.transferFrom(msg.sender, address(this), amount),\n            \"Could not transfer tokens from msg.sender to staking contract\"\n        );\n        uint256 amountAfterFees = _takeFees(\n            amount,\n            takeStakeFee,\n            STAKE_FEE_RATE\n        );\n        stakeHolders[msg.sender].stakedTokens = stakeHolders[msg.sender]\n            .stakedTokens\n            .add(amountAfterFees);\n        totalStaked = totalStaked.add(amountAfterFees);\n        holders.add(msg.sender);\n        emit Staked(msg.sender, amountAfterFees);\n    }\n\n    function unstake(uint256 amount)\n        external\n        override\n        whenNotPaused\n        onlyInitialized\n    {\n        require(amount > 0, \"Cannot unstake 0 tokens\");\n        require(\n            stakeHolders[msg.sender].stakedTokens >= amount,\n            \"Not enough tokens to unstake\"\n        );\n        uint256 unclaimedRewards = _getRewards();\n        stakeHolders[msg.sender].stakedTokens = stakeHolders[msg.sender]\n            .stakedTokens\n            .sub(amount);\n        totalStaked = totalStaked.sub(amount);\n        if (stakeHolders[msg.sender].stakedTokens == 0)\n            holders.remove(msg.sender);\n        uint256 amountAfterFees = _takeFees(\n            amount,\n            takeUnstakeFee,\n            UNSTAKE_FEE_RATE\n        );\n        if (unclaimedRewards > 0) {\n            amountAfterFees = amountAfterFees.add(unclaimedRewards);\n            emit ClaimedRewards(msg.sender, unclaimedRewards);\n        }\n        require(\n            token.transfer(msg.sender, amountAfterFees),\n            \"Could not transfer tokens from staking contract to msg.sender\"\n        );\n        emit Unstaked(msg.sender, amountAfterFees.sub(unclaimedRewards));\n    }\n\n    function restakeRewards() external override whenNotPaused onlyInitialized {\n        require(_restakeRewards(), \"No rewards to restake\");\n    }\n\n    function claimRewards() external override whenNotPaused onlyInitialized {\n        uint256 unclaimedRewards = _getRewards();\n        require(unclaimedRewards > 0, \"No rewards to claim\");\n        require(\n            token.transfer(msg.sender, unclaimedRewards),\n            \"Could not transfer rewards from staking contract to msg.sender\"\n        );\n        emit ClaimedRewards(msg.sender, unclaimedRewards);\n    }\n\n    // Mutative & Private\n    function _restakeRewards() private returns (bool) {\n        uint256 unclaimedRewards = _getRewards();\n        if (unclaimedRewards == 0) return false;\n        unclaimedRewards = _takeFees(\n            unclaimedRewards,\n            takeRestakeFee,\n            RESTAKE_FEE_RATE\n        );\n        stakeHolders[msg.sender].stakedTokens = stakeHolders[msg.sender]\n            .stakedTokens\n            .add(unclaimedRewards);\n        totalStaked = totalStaked.add(unclaimedRewards);\n        emit RestakedRewards(msg.sender, unclaimedRewards);\n        return true;\n    }\n\n    function _getRewards() private returns (uint256) {\n        uint256 unclaimedRewards = _calculateUnclaimedRewards(msg.sender);\n        if (unclaimedRewards == 0) return 0;\n        availableRewards = availableRewards.sub(unclaimedRewards);\n        stakeHolders[msg.sender].lastClaimedBlock = block.number;\n        stakeHolders[msg.sender].totalEarnedTokens = stakeHolders[msg.sender]\n            .totalEarnedTokens\n            .add(unclaimedRewards);\n        return unclaimedRewards;\n    }\n\n    function _takeFees(\n        uint256 amount,\n        bool takeFee,\n        uint256 feeRate\n    ) private returns (uint256) {\n        if (takeFee) {\n            uint256 fee = (amount.mul(feeRate)).div(1e4);\n            require(token.transfer(feeAddress, fee), \"Could not transfer fees\");\n            stakeHolders[msg.sender].totalFeesPayed = stakeHolders[msg.sender]\n                .totalFeesPayed\n                .add(fee);\n            emit PayedFee(msg.sender, fee);\n            return amount.sub(fee);\n        }\n        return amount;\n    }\n\n    // Only Owner\n    function init() external onlyOwner whenNotPaused notInitialized {\n        require(\n            token.transferFrom(msg.sender, address(this), 8e6 ether),\n            \"Could not transfer 8,000,000 as rewards\"\n        );\n        availableRewards = 8e6 ether;\n        stopRewardsBlock = 0;\n        takeStakeFee = false;\n        takeUnstakeFee = true;\n        takeRestakeFee = true;\n        _init();\n    }\n\n    function pause() external onlyOwner {\n        _pause();\n    }\n\n    function unpause() external onlyOwner {\n        _unpause();\n    }\n\n    function switchFees(\n        bool _takeStakeFee,\n        bool _takeUnstakeFee,\n        bool _takeRestakeFee\n    ) external override onlyOwner onlyInitialized {\n        takeStakeFee = _takeStakeFee;\n        takeUnstakeFee = _takeUnstakeFee;\n        takeRestakeFee = _takeRestakeFee;\n        emit SwitchedFees(_takeStakeFee, _takeUnstakeFee, _takeRestakeFee);\n    }\n\n    function switchRewards(bool enableRewards)\n        external\n        override\n        onlyOwner\n        onlyInitialized\n    {\n        if (enableRewards) {\n            stopRewardsBlock = 0;\n        } else {\n            stopRewardsBlock = block.number;\n        }\n        emit SwitchedRewards(enableRewards);\n    }\n\n    function emergencyWithdrawRewards(address emergencyAddress, uint256 amount)\n        external\n        override\n        onlyOwner\n        onlyInitialized\n    {\n        require(\n            availableRewards >= amount,\n            \"No available rewards for emergent withdrawal\"\n        );\n        require(\n            token.transfer(emergencyAddress, amount),\n            \"Could not transfer tokens\"\n        );\n        availableRewards = availableRewards.sub(amount);\n        emit RewardsWithdrawnEmergently(emergencyAddress, amount);\n    }\n}\n",
  "sourcePath": "/Users/markyosef/Downloads/plethori/contracts/PLEStaking.sol",
  "compiler": {
    "name": "solc",
    "version": "0.8.6+commit.11564f7e.Emscripten.clang"
  },
  "schemaVersion": "3.4.3",
  "updatedAt": "2021-10-31T20:20:53.263Z",
  "devdoc": {
    "kind": "dev",
    "methods": {
      "owner()": {
        "details": "Returns the address of the current owner."
      },
      "paused()": {
        "details": "Returns true if the contract is paused, and false otherwise."
      },
      "renounceOwnership()": {
        "details": "Leaves the contract without owner. It will not be possible to call `onlyOwner` functions anymore. Can only be called by the current owner. NOTE: Renouncing ownership will leave the contract without an owner, thereby removing any functionality that is only available to the owner."
      },
      "transferOwnership(address)": {
        "details": "Transfers ownership of the contract to a new account (`newOwner`). Can only be called by the current owner."
      }
    },
    "version": 1
  },
  "userdoc": {
    "kind": "user",
    "methods": {},
    "version": 1
  }
}