{
  "contractName": "PLEStaking",
  "abi": [
    {
      "anonymous": false,
      "inputs": [
        {
          "indexed": false,
          "internalType": "address",
          "name": "account",
          "type": "address"
        },
        {
          "indexed": false,
          "internalType": "uint256",
          "name": "amount",
          "type": "uint256"
        }
      ],
      "name": "ClaimedRewards",
      "type": "event"
    },
    {
      "anonymous": false,
      "inputs": [
        {
          "indexed": false,
          "internalType": "address",
          "name": "account",
          "type": "address"
        }
      ],
      "name": "Initialized",
      "type": "event"
    },
    {
      "anonymous": false,
      "inputs": [
        {
          "indexed": true,
          "internalType": "address",
          "name": "previousOwner",
          "type": "address"
        },
        {
          "indexed": true,
          "internalType": "address",
          "name": "newOwner",
          "type": "address"
        }
      ],
      "name": "OwnershipTransferred",
      "type": "event"
    },
    {
      "anonymous": false,
      "inputs": [
        {
          "indexed": false,
          "internalType": "address",
          "name": "account",
          "type": "address"
        }
      ],
      "name": "Paused",
      "type": "event"
    },
    {
      "anonymous": false,
      "inputs": [
        {
          "indexed": false,
          "internalType": "address",
          "name": "account",
          "type": "address"
        },
        {
          "indexed": false,
          "internalType": "uint256",
          "name": "amount",
          "type": "uint256"
        }
      ],
      "name": "PayedFee",
      "type": "event"
    },
    {
      "anonymous": false,
      "inputs": [
        {
          "indexed": false,
          "internalType": "address",
          "name": "account",
          "type": "address"
        },
        {
          "indexed": false,
          "internalType": "uint256",
          "name": "amount",
          "type": "uint256"
        }
      ],
      "name": "RestakedRewards",
      "type": "event"
    },
    {
      "anonymous": false,
      "inputs": [
        {
          "indexed": false,
          "internalType": "address",
          "name": "emergencyAddress",
          "type": "address"
        },
        {
          "indexed": false,
          "internalType": "uint256",
          "name": "amount",
          "type": "uint256"
        }
      ],
      "name": "RewardsWithdrawnEmergently",
      "type": "event"
    },
    {
      "anonymous": false,
      "inputs": [
        {
          "indexed": false,
          "internalType": "address",
          "name": "account",
          "type": "address"
        },
        {
          "indexed": false,
          "internalType": "uint256",
          "name": "amount",
          "type": "uint256"
        }
      ],
      "name": "Staked",
      "type": "event"
    },
    {
      "anonymous": false,
      "inputs": [
        {
          "indexed": false,
          "internalType": "bool",
          "name": "_takeStakeFee",
          "type": "bool"
        },
        {
          "indexed": false,
          "internalType": "bool",
          "name": "_takeUnstakeFee",
          "type": "bool"
        },
        {
          "indexed": false,
          "internalType": "bool",
          "name": "_takeRestakeFee",
          "type": "bool"
        }
      ],
      "name": "SwitchedFees",
      "type": "event"
    },
    {
      "anonymous": false,
      "inputs": [
        {
          "indexed": false,
          "internalType": "bool",
          "name": "enableRewards",
          "type": "bool"
        }
      ],
      "name": "SwitchedRewards",
      "type": "event"
    },
    {
      "anonymous": false,
      "inputs": [
        {
          "indexed": false,
          "internalType": "address",
          "name": "account",
          "type": "address"
        }
      ],
      "name": "Unpaused",
      "type": "event"
    },
    {
      "anonymous": false,
      "inputs": [
        {
          "indexed": false,
          "internalType": "address",
          "name": "account",
          "type": "address"
        },
        {
          "indexed": false,
          "internalType": "uint256",
          "name": "amount",
          "type": "uint256"
        }
      ],
      "name": "Unstaked",
      "type": "event"
    },
    {
      "inputs": [],
      "name": "RESTAKE_FEE_RATE",
      "outputs": [
        {
          "internalType": "uint256",
          "name": "",
          "type": "uint256"
        }
      ],
      "stateMutability": "view",
      "type": "function"
    },
    {
      "inputs": [],
      "name": "REWARD_RATE",
      "outputs": [
        {
          "internalType": "uint256",
          "name": "",
          "type": "uint256"
        }
      ],
      "stateMutability": "view",
      "type": "function"
    },
    {
      "inputs": [],
      "name": "STAKE_FEE_RATE",
      "outputs": [
        {
          "internalType": "uint256",
          "name": "",
          "type": "uint256"
        }
      ],
      "stateMutability": "view",
      "type": "function"
    },
    {
      "inputs": [],
      "name": "UNSTAKE_FEE_RATE",
      "outputs": [
        {
          "internalType": "uint256",
          "name": "",
          "type": "uint256"
        }
      ],
      "stateMutability": "view",
      "type": "function"
    },
    {
      "inputs": [],
      "name": "availableRewards",
      "outputs": [
        {
          "internalType": "uint256",
          "name": "",
          "type": "uint256"
        }
      ],
      "stateMutability": "view",
      "type": "function"
    },
    {
      "inputs": [],
      "name": "feeAddress",
      "outputs": [
        {
          "internalType": "address",
          "name": "",
          "type": "address"
        }
      ],
      "stateMutability": "view",
      "type": "function"
    },
    {
      "inputs": [],
      "name": "initialized",
      "outputs": [
        {
          "internalType": "bool",
          "name": "",
          "type": "bool"
        }
      ],
      "stateMutability": "view",
      "type": "function"
    },
    {
      "inputs": [],
      "name": "owner",
      "outputs": [
        {
          "internalType": "address",
          "name": "",
          "type": "address"
        }
      ],
      "stateMutability": "view",
      "type": "function"
    },
    {
      "inputs": [],
      "name": "paused",
      "outputs": [
        {
          "internalType": "bool",
          "name": "",
          "type": "bool"
        }
      ],
      "stateMutability": "view",
      "type": "function"
    },
    {
      "inputs": [],
      "name": "renounceOwnership",
      "outputs": [],
      "stateMutability": "nonpayable",
      "type": "function"
    },
    {
      "inputs": [
        {
          "internalType": "address",
          "name": "",
          "type": "address"
        }
      ],
      "name": "stakeHolders",
      "outputs": [
        {
          "internalType": "uint256",
          "name": "stakedTokens",
          "type": "uint256"
        },
        {
          "internalType": "uint256",
          "name": "lastClaimedBlock",
          "type": "uint256"
        },
        {
          "internalType": "uint256",
          "name": "totalEarnedTokens",
          "type": "uint256"
        },
        {
          "internalType": "uint256",
          "name": "totalFeesPayed",
          "type": "uint256"
        }
      ],
      "stateMutability": "view",
      "type": "function"
    },
    {
      "inputs": [],
      "name": "stopRewardsBlock",
      "outputs": [
        {
          "internalType": "uint256",
          "name": "",
          "type": "uint256"
        }
      ],
      "stateMutability": "view",
      "type": "function"
    },
    {
      "inputs": [],
      "name": "takeRestakeFee",
      "outputs": [
        {
          "internalType": "bool",
          "name": "",
          "type": "bool"
        }
      ],
      "stateMutability": "view",
      "type": "function"
    },
    {
      "inputs": [],
      "name": "takeStakeFee",
      "outputs": [
        {
          "internalType": "bool",
          "name": "",
          "type": "bool"
        }
      ],
      "stateMutability": "view",
      "type": "function"
    },
    {
      "inputs": [],
      "name": "takeUnstakeFee",
      "outputs": [
        {
          "internalType": "bool",
          "name": "",
          "type": "bool"
        }
      ],
      "stateMutability": "view",
      "type": "function"
    },
    {
      "inputs": [],
      "name": "token",
      "outputs": [
        {
          "internalType": "contract IERC20",
          "name": "",
          "type": "address"
        }
      ],
      "stateMutability": "view",
      "type": "function"
    },
    {
      "inputs": [],
      "name": "totalStaked",
      "outputs": [
        {
          "internalType": "uint256",
          "name": "",
          "type": "uint256"
        }
      ],
      "stateMutability": "view",
      "type": "function"
    },
    {
      "inputs": [
        {
          "internalType": "address",
          "name": "newOwner",
          "type": "address"
        }
      ],
      "name": "transferOwnership",
      "outputs": [],
      "stateMutability": "nonpayable",
      "type": "function"
    },
    {
      "inputs": [
        {
          "internalType": "address",
          "name": "account",
          "type": "address"
        }
      ],
      "name": "balanceOf",
      "outputs": [
        {
          "internalType": "uint256",
          "name": "",
          "type": "uint256"
        }
      ],
      "stateMutability": "view",
      "type": "function"
    },
    {
      "inputs": [],
      "name": "numberOfStakeHolders",
      "outputs": [
        {
          "internalType": "uint256",
          "name": "",
          "type": "uint256"
        }
      ],
      "stateMutability": "view",
      "type": "function"
    },
    {
      "inputs": [
        {
          "internalType": "address",
          "name": "account",
          "type": "address"
        }
      ],
      "name": "unclaimedRewardsOf",
      "outputs": [
        {
          "internalType": "uint256",
          "name": "",
          "type": "uint256"
        }
      ],
      "stateMutability": "view",
      "type": "function"
    },
    {
      "inputs": [
        {
          "internalType": "uint256",
          "name": "begin",
          "type": "uint256"
        },
        {
          "internalType": "uint256",
          "name": "end",
          "type": "uint256"
        }
      ],
      "name": "unclaimedRewardsOfUsers",
      "outputs": [
        {
          "internalType": "uint256",
          "name": "",
          "type": "uint256"
        }
      ],
      "stateMutability": "view",
      "type": "function"
    },
    {
      "inputs": [
        {
          "internalType": "uint256",
          "name": "amount",
          "type": "uint256"
        }
      ],
      "name": "stake",
      "outputs": [],
      "stateMutability": "nonpayable",
      "type": "function"
    },
    {
      "inputs": [
        {
          "internalType": "uint256",
          "name": "amount",
          "type": "uint256"
        }
      ],
      "name": "unstake",
      "outputs": [],
      "stateMutability": "nonpayable",
      "type": "function"
    },
    {
      "inputs": [],
      "name": "restakeRewards",
      "outputs": [],
      "stateMutability": "nonpayable",
      "type": "function"
    },
    {
      "inputs": [],
      "name": "claimRewards",
      "outputs": [],
      "stateMutability": "nonpayable",
      "type": "function"
    },
    {
      "inputs": [],
      "name": "init",
      "outputs": [],
      "stateMutability": "nonpayable",
      "type": "function"
    },
    {
      "inputs": [],
      "name": "pause",
      "outputs": [],
      "stateMutability": "nonpayable",
      "type": "function"
    },
    {
      "inputs": [],
      "name": "unpause",
      "outputs": [],
      "stateMutability": "nonpayable",
      "type": "function"
    },
    {
      "inputs": [
        {
          "internalType": "bool",
          "name": "_takeStakeFee",
          "type": "bool"
        },
        {
          "internalType": "bool",
          "name": "_takeUnstakeFee",
          "type": "bool"
        },
        {
          "internalType": "bool",
          "name": "_takeRestakeFee",
          "type": "bool"
        }
      ],
      "name": "switchFees",
      "outputs": [],
      "stateMutability": "nonpayable",
      "type": "function"
    },
    {
      "inputs": [
        {
          "internalType": "bool",
          "name": "enableRewards",
          "type": "bool"
        }
      ],
      "name": "switchRewards",
      "outputs": [],
      "stateMutability": "nonpayable",
      "type": "function"
    },
    {
      "inputs": [
        {
          "internalType": "address",
          "name": "emergencyAddress",
          "type": "address"
        },
        {
          "internalType": "uint256",
          "name": "amount",
          "type": "uint256"
        }
      ],
      "name": "emergencyWithdrawRewards",
      "outputs": [],
      "stateMutability": "nonpayable",
      "type": "function"
    }
  ],
  "bytecode": "0x6080604052733873965e73d9a21f88e645ce40b7db187fde4931600160006101000a81548173ffffffffffffffffffffffffffffffffffffffff021916908373ffffffffffffffffffffffffffffffffffffffff16021790555073f508b3f4b0300bf1a5b0227a2578d3613d909425600260006101000a81548173ffffffffffffffffffffffffffffffffffffffff021916908373ffffffffffffffffffffffffffffffffffffffff160217905550348015620000bb57600080fd5b50620000dc620000d06200011660201b60201c565b6200011e60201b60201c565b60008060146101000a81548160ff02191690831515021790555060008060156101000a81548160ff021916908315150217905550620001e2565b600033905090565b60008060009054906101000a900473ffffffffffffffffffffffffffffffffffffffff169050816000806101000a81548173ffffffffffffffffffffffffffffffffffffffff021916908373ffffffffffffffffffffffffffffffffffffffff1602179055508173ffffffffffffffffffffffffffffffffffffffff168173ffffffffffffffffffffffffffffffffffffffff167f8be0079c531659141344cd1fd0a4f28419497f9722a3daafe3b4186f6b6457e060405160405180910390a35050565b61371380620001f26000396000f3fe608060405234801561001057600080fd5b50600436106101f05760003560e01c806370a082311161010f578063a694fc3a116100a2578063e26ff10a11610071578063e26ff10a146104f1578063e6107c1014610524578063f2fde38b14610542578063fc0c546a1461055e576101f0565b8063a694fc3a14610491578063aa9e1753146104ad578063d28d441e146104cb578063e1c7392a146104e7576101f0565b8063817b1cd2116100de578063817b1cd21461042d5780638456cb591461044b578063879d9090146104555780638da5cb5b14610473576101f0565b806370a08231146103b9578063715018a6146103e957806372121437146103f35780637f9fe6261461040f576101f0565b806343ff00dc116101875780635997bb37116101565780635997bb37146103315780635c975abb1461034f5780635e55935b1461036d5780636dba522a14610389576101f0565b806343ff00dc146102a7578063458dafcc146102c55780634e916a4f146102e357806353515bd014610313576101f0565b8063372500ab116101c3578063372500ab1461026b5780633d8527ba146102755780633f4ba83a1461027f5780634127535814610289576101f0565b806306f1cf73146101f5578063158ef93e146102135780631757e67c146102315780632e17de781461024f575b600080fd5b6101fd61057c565b60405161020a9190612cf1565b60405180910390f35b61021b61058f565b6040516102289190612cf1565b60405180910390f35b6102396105a5565b6040516102469190612f9e565b60405180910390f35b61026960048036038101906102649190612911565b6105aa565b005b6102736109d9565b005b61027d610be1565b005b610287610cb9565b005b610291610d3f565b60405161029e9190612c3f565b60405180910390f35b6102af610d65565b6040516102bc9190612f9e565b60405180910390f35b6102cd610d6b565b6040516102da9190612f9e565b60405180910390f35b6102fd60048036038101906102f891906127f7565b610d70565b60405161030a9190612f9e565b60405180910390f35b61031b610d82565b6040516103289190612f9e565b60405180910390f35b610339610d87565b6040516103469190612f9e565b60405180910390f35b610357610d8d565b6040516103649190612cf1565b60405180910390f35b61038760048036038101906103829190612864565b610da3565b005b6103a3600480360381019061039e919061293e565b610ebb565b6040516103b09190612f9e565b60405180910390f35b6103d360048036038101906103ce91906127f7565b610f32565b6040516103e09190612f9e565b60405180910390f35b6103f1610f7e565b005b61040d600480360381019061040891906128be565b611006565b005b610417611157565b6040516104249190612cf1565b60405180910390f35b61043561116a565b6040516104429190612f9e565b60405180910390f35b610453611170565b005b61045d6111f6565b60405161046a9190612f9e565b60405180910390f35b61047b6111fc565b6040516104889190612c3f565b60405180910390f35b6104ab60048036038101906104a69190612911565b611225565b005b6104b56115c8565b6040516104c29190612f9e565b60405180910390f35b6104e560048036038101906104e09190612824565b6115d9565b005b6104ef611827565b005b61050b600480360381019061050691906127f7565b611aa3565b60405161051b9493929190612fb9565b60405180910390f35b61052c611ad3565b6040516105399190612cf1565b60405180910390f35b61055c600480360381019061055791906127f7565b611ae6565b005b610566611bde565b6040516105739190612d43565b60405180910390f35b600260169054906101000a900460ff1681565b60008060159054906101000a900460ff16905090565b603281565b6105b2610d8d565b156105f2576040517f08c379a00000000000000000000000000000000000000000000000000000000081526004016105e990612e5e565b60405180910390fd5b6105fa61058f565b610639576040517f08c379a000000000000000000000000000000000000000000000000000000000815260040161063090612f3e565b60405180910390fd5b6000811161067c576040517f08c379a000000000000000000000000000000000000000000000000000000000815260040161067390612dfe565b60405180910390fd5b80600660003373ffffffffffffffffffffffffffffffffffffffff1673ffffffffffffffffffffffffffffffffffffffff168152602001908152602001600020600001541015610701576040517f08c379a00000000000000000000000000000000000000000000000000000000081526004016106f890612dde565b60405180910390fd5b600061070b611c04565b905061076282600660003373ffffffffffffffffffffffffffffffffffffffff1673ffffffffffffffffffffffffffffffffffffffff16815260200190815260200160002060000154611d2a90919063ffffffff16565b600660003373ffffffffffffffffffffffffffffffffffffffff1673ffffffffffffffffffffffffffffffffffffffff168152602001908152602001600020600001819055506107bd82600554611d2a90919063ffffffff16565b6005819055506000600660003373ffffffffffffffffffffffffffffffffffffffff1673ffffffffffffffffffffffffffffffffffffffff16815260200190815260200160002060000154141561082457610822336007611d4090919063ffffffff16565b505b600061084183600260159054906101000a900460ff166032611d70565b9050600082111561089b5761085f8282611fad90919063ffffffff16565b90507f2d5429efdeca7741a8cd94067b18d988bc4e5f1d5b8272c37b7bfc31e9bfa32c3383604051610892929190612cc8565b60405180910390a15b600160009054906101000a900473ffffffffffffffffffffffffffffffffffffffff1673ffffffffffffffffffffffffffffffffffffffff1663a9059cbb33836040518363ffffffff1660e01b81526004016108f8929190612cc8565b602060405180830381600087803b15801561091257600080fd5b505af1158015610926573d6000803e3d6000fd5b505050506040513d601f19601f8201168201806040525081019061094a9190612891565b610989576040517f08c379a000000000000000000000000000000000000000000000000000000000815260040161098090612efe565b60405180910390fd5b7f0f5bb82176feb1b5e747e28471aa92156a04d9f3ab9f45f28e2d704232b93f75336109be8484611d2a90919063ffffffff16565b6040516109cc929190612cc8565b60405180910390a1505050565b6109e1610d8d565b15610a21576040517f08c379a0000000000000000000000000000000000000000000000000000000008152600401610a1890612e5e565b60405180910390fd5b610a2961058f565b610a68576040517f08c379a0000000000000000000000000000000000000000000000000000000008152600401610a5f90612f3e565b60405180910390fd5b6000610a72611c04565b905060008111610ab7576040517f08c379a0000000000000000000000000000000000000000000000000000000008152600401610aae90612e1e565b60405180910390fd5b600160009054906101000a900473ffffffffffffffffffffffffffffffffffffffff1673ffffffffffffffffffffffffffffffffffffffff1663a9059cbb33836040518363ffffffff1660e01b8152600401610b14929190612cc8565b602060405180830381600087803b158015610b2e57600080fd5b505af1158015610b42573d6000803e3d6000fd5b505050506040513d601f19601f82011682018060405250810190610b669190612891565b610ba5576040517f08c379a0000000000000000000000000000000000000000000000000000000008152600401610b9c90612e9e565b60405180910390fd5b7f2d5429efdeca7741a8cd94067b18d988bc4e5f1d5b8272c37b7bfc31e9bfa32c3382604051610bd6929190612cc8565b60405180910390a150565b610be9610d8d565b15610c29576040517f08c379a0000000000000000000000000000000000000000000000000000000008152600401610c2090612e5e565b60405180910390fd5b610c3161058f565b610c70576040517f08c379a0000000000000000000000000000000000000000000000000000000008152600401610c6790612f3e565b60405180910390fd5b610c78611fc3565b610cb7576040517f08c379a0000000000000000000000000000000000000000000000000000000008152600401610cae90612f1e565b60405180910390fd5b565b610cc16120f8565b73ffffffffffffffffffffffffffffffffffffffff16610cdf6111fc565b73ffffffffffffffffffffffffffffffffffffffff1614610d35576040517f08c379a0000000000000000000000000000000000000000000000000000000008152600401610d2c90612ede565b60405180910390fd5b610d3d612100565b565b600260009054906101000a900473ffffffffffffffffffffffffffffffffffffffff1681565b60035481565b609681565b6000610d7b826121a1565b9050919050565b603281565b610fa081565b60008060149054906101000a900460ff16905090565b610dab6120f8565b73ffffffffffffffffffffffffffffffffffffffff16610dc96111fc565b73ffffffffffffffffffffffffffffffffffffffff1614610e1f576040517f08c379a0000000000000000000000000000000000000000000000000000000008152600401610e1690612ede565b60405180910390fd5b610e2761058f565b610e66576040517f08c379a0000000000000000000000000000000000000000000000000000000008152600401610e5d90612f3e565b60405180910390fd5b8015610e79576000600381905550610e81565b436003819055505b7fb2b1411ada6604eafdeac748f24feb6a6b68a3d894573e2d7269c0bc36cab1cf81604051610eb09190612cf1565b60405180910390a150565b6000806000905060008490505b8381108015610edf5750610edc60076122fb565b81105b15610f2757610f12610f03610efe83600761231090919063ffffffff16565b6121a1565b83611fad90919063ffffffff16565b91508080610f1f906131a2565b915050610ec8565b508091505092915050565b6000600660008373ffffffffffffffffffffffffffffffffffffffff1673ffffffffffffffffffffffffffffffffffffffff168152602001908152602001600020600001549050919050565b610f866120f8565b73ffffffffffffffffffffffffffffffffffffffff16610fa46111fc565b73ffffffffffffffffffffffffffffffffffffffff1614610ffa576040517f08c379a0000000000000000000000000000000000000000000000000000000008152600401610ff190612ede565b60405180910390fd5b611004600061232a565b565b61100e6120f8565b73ffffffffffffffffffffffffffffffffffffffff1661102c6111fc565b73ffffffffffffffffffffffffffffffffffffffff1614611082576040517f08c379a000000000000000000000000000000000000000000000000000000000815260040161107990612ede565b60405180910390fd5b61108a61058f565b6110c9576040517f08c379a00000000000000000000000000000000000000000000000000000000081526004016110c090612f3e565b60405180910390fd5b82600260146101000a81548160ff02191690831515021790555081600260156101000a81548160ff02191690831515021790555080600260166101000a81548160ff0219169083151502179055507f62f6f407b6a96dee4b104bba444bd0a9a98ecbada2c4f8172941cbdec7bdc0a883838360405161114a93929190612d0c565b60405180910390a1505050565b600260149054906101000a900460ff1681565b60055481565b6111786120f8565b73ffffffffffffffffffffffffffffffffffffffff166111966111fc565b73ffffffffffffffffffffffffffffffffffffffff16146111ec576040517f08c379a00000000000000000000000000000000000000000000000000000000081526004016111e390612ede565b60405180910390fd5b6111f46123ee565b565b60045481565b60008060009054906101000a900473ffffffffffffffffffffffffffffffffffffffff16905090565b61122d610d8d565b1561126d576040517f08c379a000000000000000000000000000000000000000000000000000000000815260040161126490612e5e565b60405180910390fd5b61127561058f565b6112b4576040517f08c379a00000000000000000000000000000000000000000000000000000000081526004016112ab90612f3e565b60405180910390fd5b600081116112f7576040517f08c379a00000000000000000000000000000000000000000000000000000000081526004016112ee90612f7e565b60405180910390fd5b6000600660003373ffffffffffffffffffffffffffffffffffffffff1673ffffffffffffffffffffffffffffffffffffffff1681526020019081526020016000206000015411156113505761134a611fc3565b50611398565b43600660003373ffffffffffffffffffffffffffffffffffffffff1673ffffffffffffffffffffffffffffffffffffffff168152602001908152602001600020600101819055505b600160009054906101000a900473ffffffffffffffffffffffffffffffffffffffff1673ffffffffffffffffffffffffffffffffffffffff166323b872dd3330846040518463ffffffff1660e01b81526004016113f793929190612c91565b602060405180830381600087803b15801561141157600080fd5b505af1158015611425573d6000803e3d6000fd5b505050506040513d601f19601f820116820180604052508101906114499190612891565b611488576040517f08c379a000000000000000000000000000000000000000000000000000000000815260040161147f90612dbe565b60405180910390fd5b60006114a582600260149054906101000a900460ff166096611d70565b90506114fc81600660003373ffffffffffffffffffffffffffffffffffffffff1673ffffffffffffffffffffffffffffffffffffffff16815260200190815260200160002060000154611fad90919063ffffffff16565b600660003373ffffffffffffffffffffffffffffffffffffffff1673ffffffffffffffffffffffffffffffffffffffff1681526020019081526020016000206000018190555061155781600554611fad90919063ffffffff16565b60058190555061157133600761249190919063ffffffff16565b61158b576115893360076124c190919063ffffffff16565b505b7f9e71bc8eea02a63969f509818f2dafb9254532904319f9dbda79b67bd34a5f3d33826040516115bc929190612cc8565b60405180910390a15050565b60006115d460076122fb565b905090565b6115e16120f8565b73ffffffffffffffffffffffffffffffffffffffff166115ff6111fc565b73ffffffffffffffffffffffffffffffffffffffff1614611655576040517f08c379a000000000000000000000000000000000000000000000000000000000815260040161164c90612ede565b60405180910390fd5b61165d61058f565b61169c576040517f08c379a000000000000000000000000000000000000000000000000000000000815260040161169390612f3e565b60405180910390fd5b8060045410156116e1576040517f08c379a00000000000000000000000000000000000000000000000000000000081526004016116d890612e7e565b60405180910390fd5b600160009054906101000a900473ffffffffffffffffffffffffffffffffffffffff1673ffffffffffffffffffffffffffffffffffffffff1663a9059cbb83836040518363ffffffff1660e01b815260040161173e929190612cc8565b602060405180830381600087803b15801561175857600080fd5b505af115801561176c573d6000803e3d6000fd5b505050506040513d601f19601f820116820180604052508101906117909190612891565b6117cf576040517f08c379a00000000000000000000000000000000000000000000000000000000081526004016117c690612ebe565b60405180910390fd5b6117e481600454611d2a90919063ffffffff16565b6004819055507f9e49045bf2481e71ef100980f62b070b5348abbf047259ece0649006918efbf1828260405161181b929190612cc8565b60405180910390a15050565b61182f6120f8565b73ffffffffffffffffffffffffffffffffffffffff1661184d6111fc565b73ffffffffffffffffffffffffffffffffffffffff16146118a3576040517f08c379a000000000000000000000000000000000000000000000000000000000815260040161189a90612ede565b60405180910390fd5b6118ab610d8d565b156118eb576040517f08c379a00000000000000000000000000000000000000000000000000000000081526004016118e290612e5e565b60405180910390fd5b6118f361058f565b15611933576040517f08c379a000000000000000000000000000000000000000000000000000000000815260040161192a90612d9e565b60405180910390fd5b600160009054906101000a900473ffffffffffffffffffffffffffffffffffffffff1673ffffffffffffffffffffffffffffffffffffffff166323b872dd33306a069e10de76676d080000006040518463ffffffff1660e01b815260040161199d93929190612c5a565b602060405180830381600087803b1580156119b757600080fd5b505af11580156119cb573d6000803e3d6000fd5b505050506040513d601f19601f820116820180604052508101906119ef9190612891565b611a2e576040517f08c379a0000000000000000000000000000000000000000000000000000000008152600401611a2590612e3e565b60405180910390fd5b6a069e10de76676d0800000060048190555060006003819055506000600260146101000a81548160ff0219169083151502179055506001600260156101000a81548160ff0219169083151502179055506001600260166101000a81548160ff021916908315150217905550611aa16124f1565b565b60066020528060005260406000206000915090508060000154908060010154908060020154908060030154905084565b600260159054906101000a900460ff1681565b611aee6120f8565b73ffffffffffffffffffffffffffffffffffffffff16611b0c6111fc565b73ffffffffffffffffffffffffffffffffffffffff1614611b62576040517f08c379a0000000000000000000000000000000000000000000000000000000008152600401611b5990612ede565b60405180910390fd5b600073ffffffffffffffffffffffffffffffffffffffff168173ffffffffffffffffffffffffffffffffffffffff161415611bd2576040517f08c379a0000000000000000000000000000000000000000000000000000000008152600401611bc990612d7e565b60405180910390fd5b611bdb8161232a565b50565b600160009054906101000a900473ffffffffffffffffffffffffffffffffffffffff1681565b600080611c10336121a1565b90506000811415611c25576000915050611d27565b611c3a81600454611d2a90919063ffffffff16565b60048190555043600660003373ffffffffffffffffffffffffffffffffffffffff1673ffffffffffffffffffffffffffffffffffffffff16815260200190815260200160002060010181905550611cdc81600660003373ffffffffffffffffffffffffffffffffffffffff1673ffffffffffffffffffffffffffffffffffffffff16815260200190815260200160002060020154611fad90919063ffffffff16565b600660003373ffffffffffffffffffffffffffffffffffffffff1673ffffffffffffffffffffffffffffffffffffffff16815260200190815260200160002060020181905550809150505b90565b60008183611d3891906130f0565b905092915050565b6000611d68836000018373ffffffffffffffffffffffffffffffffffffffff1660001b612594565b905092915050565b60008215611fa2576000611da1612710611d9385886126a890919063ffffffff16565b6126be90919063ffffffff16565b9050600160009054906101000a900473ffffffffffffffffffffffffffffffffffffffff1673ffffffffffffffffffffffffffffffffffffffff1663a9059cbb600260009054906101000a900473ffffffffffffffffffffffffffffffffffffffff16836040518363ffffffff1660e01b8152600401611e22929190612cc8565b602060405180830381600087803b158015611e3c57600080fd5b505af1158015611e50573d6000803e3d6000fd5b505050506040513d601f19601f82011682018060405250810190611e749190612891565b611eb3576040517f08c379a0000000000000000000000000000000000000000000000000000000008152600401611eaa90612f5e565b60405180910390fd5b611f0881600660003373ffffffffffffffffffffffffffffffffffffffff1673ffffffffffffffffffffffffffffffffffffffff16815260200190815260200160002060030154611fad90919063ffffffff16565b600660003373ffffffffffffffffffffffffffffffffffffffff1673ffffffffffffffffffffffffffffffffffffffff168152602001908152602001600020600301819055507f0ae4b56b451967e88c61b6cd8a4c6808b926c9ce02191e2e9d8490a2f84626a53382604051611f7f929190612cc8565b60405180910390a1611f9a8186611d2a90919063ffffffff16565b915050611fa6565b8390505b9392505050565b60008183611fbb919061300f565b905092915050565b600080611fce611c04565b90506000811415611fe35760009150506120f5565b611ffe81600260169054906101000a900460ff166032611d70565b905061205581600660003373ffffffffffffffffffffffffffffffffffffffff1673ffffffffffffffffffffffffffffffffffffffff16815260200190815260200160002060000154611fad90919063ffffffff16565b600660003373ffffffffffffffffffffffffffffffffffffffff1673ffffffffffffffffffffffffffffffffffffffff168152602001908152602001600020600001819055506120b081600554611fad90919063ffffffff16565b6005819055507fa6e04b577d8dcbd6df137c7e70cdc883b23b197be16d321ccbdbde96daa75a4333826040516120e7929190612cc8565b60405180910390a160019150505b90565b600033905090565b612108610d8d565b612147576040517f08c379a000000000000000000000000000000000000000000000000000000000815260040161213e90612d5e565b60405180910390fd5b60008060146101000a81548160ff0219169083151502179055507f5db9ee0a495bf2e6ff9c91a7834c1ba4fdd244a5e8aa4e537bd38aeae4b073aa61218a6120f8565b6040516121979190612c3f565b60405180910390a1565b600080600660008473ffffffffffffffffffffffffffffffffffffffff1673ffffffffffffffffffffffffffffffffffffffff16815260200190815260200160002060000154905060008114156121fc5760009150506122f6565b6000600660008573ffffffffffffffffffffffffffffffffffffffff1673ffffffffffffffffffffffffffffffffffffffff16815260200190815260200160002060010154905060006003541415612268576122618143611d2a90919063ffffffff16565b9050612294565b806003541161227c576000925050506122f6565b61229181600354611d2a90919063ffffffff16565b90505b60006122bd610fa06122af84866126a890919063ffffffff16565b6126a890919063ffffffff16565b90506122d76404e520c800826126be90919063ffffffff16565b90506004548111156122ef57600093505050506122f6565b8093505050505b919050565b6000612309826000016126d4565b9050919050565b600061231f83600001836126e5565b60001c905092915050565b60008060009054906101000a900473ffffffffffffffffffffffffffffffffffffffff169050816000806101000a81548173ffffffffffffffffffffffffffffffffffffffff021916908373ffffffffffffffffffffffffffffffffffffffff1602179055508173ffffffffffffffffffffffffffffffffffffffff168173ffffffffffffffffffffffffffffffffffffffff167f8be0079c531659141344cd1fd0a4f28419497f9722a3daafe3b4186f6b6457e060405160405180910390a35050565b6123f6610d8d565b15612436576040517f08c379a000000000000000000000000000000000000000000000000000000000815260040161242d90612e5e565b60405180910390fd5b6001600060146101000a81548160ff0219169083151502179055507f62e78cea01bee320cd4e420270b5ea74000d11b0c9f74754ebdbfc544b05a25861247a6120f8565b6040516124879190612c3f565b60405180910390a1565b60006124b9836000018373ffffffffffffffffffffffffffffffffffffffff1660001b612710565b905092915050565b60006124e9836000018373ffffffffffffffffffffffffffffffffffffffff1660001b612733565b905092915050565b6124f961058f565b15612539576040517f08c379a000000000000000000000000000000000000000000000000000000000815260040161253090612d9e565b60405180910390fd5b6001600060156101000a81548160ff0219169083151502179055507f908408e307fc569b417f6cbec5d5a06f44a0a505ac0479b47d421a4b2fd6a1e661257d6120f8565b60405161258a9190612c3f565b60405180910390a1565b6000808360010160008481526020019081526020016000205490506000811461269c5760006001826125c691906130f0565b90506000600186600001805490506125de91906130f0565b905081811461264d5760008660000182815481106125ff576125fe613278565b5b906000526020600020015490508087600001848154811061262357612622613278565b5b90600052602060002001819055508387600101600083815260200190815260200160002081905550505b8560000180548061266157612660613249565b5b6001900381819060005260206000200160009055905585600101600086815260200190815260200160002060009055600193505050506126a2565b60009150505b92915050565b600081836126b69190613096565b905092915050565b600081836126cc9190613065565b905092915050565b600081600001805490509050919050565b60008260000182815481106126fd576126fc613278565b5b9060005260206000200154905092915050565b600080836001016000848152602001908152602001600020541415905092915050565b600061273f8383612710565b61279857826000018290806001815401808255809150506001900390600052602060002001600090919091909150558260000180549050836001016000848152602001908152602001600020819055506001905061279d565b600090505b92915050565b6000813590506127b281613698565b92915050565b6000813590506127c7816136af565b92915050565b6000815190506127dc816136af565b92915050565b6000813590506127f1816136c6565b92915050565b60006020828403121561280d5761280c6132a7565b5b600061281b848285016127a3565b91505092915050565b6000806040838503121561283b5761283a6132a7565b5b6000612849858286016127a3565b925050602061285a858286016127e2565b9150509250929050565b60006020828403121561287a576128796132a7565b5b6000612888848285016127b8565b91505092915050565b6000602082840312156128a7576128a66132a7565b5b60006128b5848285016127cd565b91505092915050565b6000806000606084860312156128d7576128d66132a7565b5b60006128e5868287016127b8565b93505060206128f6868287016127b8565b9250506040612907868287016127b8565b9150509250925092565b600060208284031215612927576129266132a7565b5b6000612935848285016127e2565b91505092915050565b60008060408385031215612955576129546132a7565b5b6000612963858286016127e2565b9250506020612974858286016127e2565b9150509250929050565b61298781613124565b82525050565b61299681613136565b82525050565b6129a58161316c565b82525050565b6129b481613190565b82525050565b60006129c7601483612ffe565b91506129d2826132ac565b602082019050919050565b60006129ea602683612ffe565b91506129f5826132d5565b604082019050919050565b6000612a0d602283612ffe565b9150612a1882613324565b604082019050919050565b6000612a30603d83612ffe565b9150612a3b82613373565b604082019050919050565b6000612a53601c83612ffe565b9150612a5e826133c2565b602082019050919050565b6000612a76601783612ffe565b9150612a81826133eb565b602082019050919050565b6000612a99601483612ffe565b9150612aa482613414565b602082019050919050565b6000612abc602783612ffe565b9150612ac78261343d565b604082019050919050565b6000612adf601083612ffe565b9150612aea8261348c565b602082019050919050565b6000612b02602c83612ffe565b9150612b0d826134b5565b604082019050919050565b6000612b25603e83612ffe565b9150612b3082613504565b604082019050919050565b6000612b48601983612ffe565b9150612b5382613553565b602082019050919050565b6000612b6b602083612ffe565b9150612b768261357c565b602082019050919050565b6000612b8e603d83612ffe565b9150612b99826135a5565b604082019050919050565b6000612bb1601683612ffe565b9150612bbc826135f4565b602082019050919050565b6000612bd4601e83612ffe565b9150612bdf8261361d565b602082019050919050565b6000612bf7601783612ffe565b9150612c0282613646565b602082019050919050565b6000612c1a601583612ffe565b9150612c258261366f565b602082019050919050565b612c3981613162565b82525050565b6000602082019050612c54600083018461297e565b92915050565b6000606082019050612c6f600083018661297e565b612c7c602083018561297e565b612c8960408301846129ab565b949350505050565b6000606082019050612ca6600083018661297e565b612cb3602083018561297e565b612cc06040830184612c30565b949350505050565b6000604082019050612cdd600083018561297e565b612cea6020830184612c30565b9392505050565b6000602082019050612d06600083018461298d565b92915050565b6000606082019050612d21600083018661298d565b612d2e602083018561298d565b612d3b604083018461298d565b949350505050565b6000602082019050612d58600083018461299c565b92915050565b60006020820190508181036000830152612d77816129ba565b9050919050565b60006020820190508181036000830152612d97816129dd565b9050919050565b60006020820190508181036000830152612db781612a00565b9050919050565b60006020820190508181036000830152612dd781612a23565b9050919050565b60006020820190508181036000830152612df781612a46565b9050919050565b60006020820190508181036000830152612e1781612a69565b9050919050565b60006020820190508181036000830152612e3781612a8c565b9050919050565b60006020820190508181036000830152612e5781612aaf565b9050919050565b60006020820190508181036000830152612e7781612ad2565b9050919050565b60006020820190508181036000830152612e9781612af5565b9050919050565b60006020820190508181036000830152612eb781612b18565b9050919050565b60006020820190508181036000830152612ed781612b3b565b9050919050565b60006020820190508181036000830152612ef781612b5e565b9050919050565b60006020820190508181036000830152612f1781612b81565b9050919050565b60006020820190508181036000830152612f3781612ba4565b9050919050565b60006020820190508181036000830152612f5781612bc7565b9050919050565b60006020820190508181036000830152612f7781612bea565b9050919050565b60006020820190508181036000830152612f9781612c0d565b9050919050565b6000602082019050612fb36000830184612c30565b92915050565b6000608082019050612fce6000830187612c30565b612fdb6020830186612c30565b612fe86040830185612c30565b612ff56060830184612c30565b95945050505050565b600082825260208201905092915050565b600061301a82613162565b915061302583613162565b9250827fffffffffffffffffffffffffffffffffffffffffffffffffffffffffffffffff0382111561305a576130596131eb565b5b828201905092915050565b600061307082613162565b915061307b83613162565b92508261308b5761308a61321a565b5b828204905092915050565b60006130a182613162565b91506130ac83613162565b9250817fffffffffffffffffffffffffffffffffffffffffffffffffffffffffffffffff04831182151516156130e5576130e46131eb565b5b828202905092915050565b60006130fb82613162565b915061310683613162565b925082821015613119576131186131eb565b5b828203905092915050565b600061312f82613142565b9050919050565b60008115159050919050565b600073ffffffffffffffffffffffffffffffffffffffff82169050919050565b6000819050919050565b60006131778261317e565b9050919050565b600061318982613142565b9050919050565b600061319b82613162565b9050919050565b60006131ad82613162565b91507fffffffffffffffffffffffffffffffffffffffffffffffffffffffffffffffff8214156131e0576131df6131eb565b5b600182019050919050565b7f4e487b7100000000000000000000000000000000000000000000000000000000600052601160045260246000fd5b7f4e487b7100000000000000000000000000000000000000000000000000000000600052601260045260246000fd5b7f4e487b7100000000000000000000000000000000000000000000000000000000600052603160045260246000fd5b7f4e487b7100000000000000000000000000000000000000000000000000000000600052603260045260246000fd5b600080fd5b7f5061757361626c653a206e6f7420706175736564000000000000000000000000600082015250565b7f4f776e61626c653a206e6577206f776e657220697320746865207a65726f206160008201527f6464726573730000000000000000000000000000000000000000000000000000602082015250565b7f496e697469616c697a61626c653a20416c726561647920696e697469616c697a60008201527f6564000000000000000000000000000000000000000000000000000000000000602082015250565b7f436f756c64206e6f74207472616e7366657220746f6b656e732066726f6d206d60008201527f73672e73656e64657220746f207374616b696e6720636f6e7472616374000000602082015250565b7f4e6f7420656e6f75676820746f6b656e7320746f20756e7374616b6500000000600082015250565b7f43616e6e6f7420756e7374616b65203020746f6b656e73000000000000000000600082015250565b7f4e6f74207265776172647320746f20636c61696d000000000000000000000000600082015250565b7f436f756c64206e6f74207472616e7366657220382c3030302c3030302061732060008201527f7265776172647300000000000000000000000000000000000000000000000000602082015250565b7f5061757361626c653a2070617573656400000000000000000000000000000000600082015250565b7f4e6f20617661696c61626c65207265776172647320666f7220656d657267656e60008201527f74207769746864726177616c0000000000000000000000000000000000000000602082015250565b7f436f756c64206e6f74207472616e7366657220726577617264732066726f6d2060008201527f7374616b696e6720636f6e747261637420746f206d73672e73656e6465720000602082015250565b7f436f756c64206e6f74207472616e7366657220746f6b656e7300000000000000600082015250565b7f4f776e61626c653a2063616c6c6572206973206e6f7420746865206f776e6572600082015250565b7f436f756c64206e6f74207472616e7366657220746f6b656e732066726f6d207360008201527f74616b696e6720636f6e747261637420746f206d73672e73656e646572000000602082015250565b7f4e6f74207265776172647320746f2072657374616b6500000000000000000000600082015250565b7f496e697469616c697a61626c653a204e6f7420696e697469616c697a65640000600082015250565b7f436f756c64206e6f74207472616e736665722066656573000000000000000000600082015250565b7f43616e6e6f74207374616b65203020746f6b656e730000000000000000000000600082015250565b6136a181613124565b81146136ac57600080fd5b50565b6136b881613136565b81146136c357600080fd5b50565b6136cf81613162565b81146136da57600080fd5b5056fea2646970667358221220dd6fb0cde58d66e3ae65b49348bf9056d61a36eb4a3d92168b6f9701ace1b0d964736f6c63430008060033",
  "immutableReferences": {},
  "source": "// SPDX-License-Identifier: MIT\n\npragma solidity ^0.8.6;\n\nimport \"@openzeppelin/contracts/utils/math/SafeMath.sol\";\nimport \"@openzeppelin/contracts/access/Ownable.sol\";\nimport \"@openzeppelin/contracts/security/Pausable.sol\";\nimport \"@openzeppelin/contracts/token/ERC20/IERC20.sol\";\nimport \"@openzeppelin/contracts/utils/structs/EnumerableSet.sol\";\nimport \"./Initializable.sol\";\n\ninterface IStaking {\n    // Views\n    function balanceOf(address account) external view returns (uint256);\n\n    function numberOfStakeHolders() external view returns (uint256);\n\n    function unclaimedRewardsOf(address account)\n        external\n        view\n        returns (uint256);\n\n    function unclaimedRewardsOfUsers(uint256 begin, uint256 end)\n        external\n        view\n        returns (uint256);\n\n    // Mutative\n    function stake(uint256 amount) external;\n\n    function unstake(uint256 amount) external;\n\n    function restakeRewards() external;\n\n    function claimRewards() external;\n\n    // Only Owner\n    function switchFees(\n        bool _takeStakeFee,\n        bool _takeUnstakeFee,\n        bool _takeRestakeFee\n    ) external;\n\n    function switchRewards(bool enableRewards) external;\n\n    function emergencyWithdrawRewards(address emergencyAddress, uint256 amount)\n        external;\n\n    // Events\n    event Staked(address account, uint256 amount);\n    event Unstaked(address account, uint256 amount);\n    event RestakedRewards(address account, uint256 amount);\n    event ClaimedRewards(address account, uint256 amount);\n    event PayedFee(address account, uint256 amount);\n    event SwitchedFees(\n        bool _takeStakeFee,\n        bool _takeUnstakeFee,\n        bool _takeRestakeFee\n    );\n    event SwitchedRewards(bool enableRewards);\n    event RewardsWithdrawnEmergently(address emergencyAddress, uint256 amount);\n}\n\ncontract PLEStaking is Ownable, Pausable, Initializable, IStaking {\n    using SafeMath for uint256;\n    using EnumerableSet for EnumerableSet.AddressSet;\n\n    IERC20 public token = IERC20(0x3873965e73d9A21F88e645ce40B7db187FDE4931);\n    address public feeAddress = 0xF508b3f4b0300bF1a5b0227A2578D3613d909425;\n\n    // rewards & fees\n    uint256 public constant REWARD_RATE = 4000; // 40.00% APY\n    uint256 public constant STAKE_FEE_RATE = 150; // 1.50% staking fee\n    uint256 public constant UNSTAKE_FEE_RATE = 50; // 0.50% unstaking fee\n    uint256 public constant RESTAKE_FEE_RATE = 50; // 0.50% restaking fee\n    bool public takeStakeFee;\n    bool public takeUnstakeFee;\n    bool public takeRestakeFee;\n    uint256 public stopRewardsBlock;\n    uint256 public availableRewards;\n\n    // stake holders\n    struct StakeHolder {\n        uint256 stakedTokens;\n        uint256 lastClaimedBlock;\n        uint256 totalEarnedTokens;\n        uint256 totalFeesPayed;\n    }\n    uint256 public totalStaked;\n    mapping(address => StakeHolder) public stakeHolders;\n    EnumerableSet.AddressSet private holders;\n\n    // Views\n    function balanceOf(address account)\n        external\n        view\n        override\n        returns (uint256)\n    {\n        return stakeHolders[account].stakedTokens;\n    }\n\n    function numberOfStakeHolders() external view override returns (uint256) {\n        return holders.length();\n    }\n\n    function unclaimedRewardsOf(address account)\n        external\n        view\n        override\n        returns (uint256)\n    {\n        return _calculateUnclaimedRewards(account);\n    }\n\n    function unclaimedRewardsOfUsers(uint256 begin, uint256 end)\n        external\n        view\n        override\n        returns (uint256)\n    {\n        uint256 totalUnclaimedRewards = 0;\n        for (uint256 i = begin; i < end && i < holders.length(); i++) {\n            totalUnclaimedRewards = totalUnclaimedRewards.add(\n                _calculateUnclaimedRewards(holders.at(i))\n            );\n        }\n        return totalUnclaimedRewards;\n    }\n\n    /**\n     * Rewards Calculation:\n     * rewards = (stakedTokens * blockDiff * rewardRatePerBlock)\n     * rewardRatePerBlock =\n     * 4000 (REWARD_RATE)\n     * ------------------\n     * 10000 * 365 (days/Y) * 24 (H/day) * 60 (M/H) * 4 (Blocks/M) = 21024e6\n     */\n    function _calculateUnclaimedRewards(address account)\n        private\n        view\n        returns (uint256)\n    {\n        uint256 stakedTokens = stakeHolders[account].stakedTokens;\n        if (stakedTokens == 0) return 0;\n        // block diff calculation\n        uint256 blockDiff = stakeHolders[account].lastClaimedBlock;\n        if (stopRewardsBlock == 0) {\n            blockDiff = block.number.sub(blockDiff);\n        } else {\n            if (stopRewardsBlock <= blockDiff) return 0;\n            blockDiff = stopRewardsBlock.sub(blockDiff);\n        }\n        // rewards calculation\n        uint256 unclaimedRewards = stakedTokens.mul(blockDiff).mul(REWARD_RATE);\n        unclaimedRewards = unclaimedRewards.div(21024e6); // Audit: for gas efficieny\n        if (unclaimedRewards > availableRewards) return 0;\n        return unclaimedRewards;\n    }\n\n    // Mutative\n    function stake(uint256 amount)\n        external\n        override\n        whenNotPaused\n        onlyInitialized\n    {\n        require(amount > 0, \"Cannot stake 0 tokens\");\n        if (stakeHolders[msg.sender].stakedTokens > 0) {\n            _restakeRewards(); // Audit: return value not check purposely\n        } else {\n            stakeHolders[msg.sender].lastClaimedBlock = block.number;\n        }\n        require(\n            token.transferFrom(msg.sender, address(this), amount),\n            \"Could not transfer tokens from msg.sender to staking contract\"\n        );\n        uint256 amountAfterFees = _takeFees(\n            amount,\n            takeStakeFee,\n            STAKE_FEE_RATE\n        );\n        stakeHolders[msg.sender].stakedTokens = stakeHolders[msg.sender]\n            .stakedTokens\n            .add(amountAfterFees);\n        totalStaked = totalStaked.add(amountAfterFees);\n        if (!holders.contains(msg.sender)) holders.add(msg.sender);\n        emit Staked(msg.sender, amountAfterFees);\n    }\n\n    function unstake(uint256 amount)\n        external\n        override\n        whenNotPaused\n        onlyInitialized\n    {\n        require(amount > 0, \"Cannot unstake 0 tokens\");\n        require(\n            stakeHolders[msg.sender].stakedTokens >= amount,\n            \"Not enough tokens to unstake\"\n        );\n        uint256 unclaimedRewards = _getRewards();\n        stakeHolders[msg.sender].stakedTokens = stakeHolders[msg.sender]\n            .stakedTokens\n            .sub(amount);\n        totalStaked = totalStaked.sub(amount);\n        if (stakeHolders[msg.sender].stakedTokens == 0)\n            holders.remove(msg.sender);\n        uint256 amountAfterFees = _takeFees(\n            amount,\n            takeUnstakeFee,\n            UNSTAKE_FEE_RATE\n        );\n        if (unclaimedRewards > 0) {\n            amountAfterFees = amountAfterFees.add(unclaimedRewards);\n            emit ClaimedRewards(msg.sender, unclaimedRewards);\n        }\n        require(\n            token.transfer(msg.sender, amountAfterFees),\n            \"Could not transfer tokens from staking contract to msg.sender\"\n        );\n        emit Unstaked(msg.sender, amountAfterFees.sub(unclaimedRewards));\n    }\n\n    function restakeRewards() external override whenNotPaused onlyInitialized {\n        require(_restakeRewards(), \"Not rewards to restake\");\n    }\n\n    function claimRewards() external override whenNotPaused onlyInitialized {\n        uint256 unclaimedRewards = _getRewards();\n        require(unclaimedRewards > 0, \"Not rewards to claim\");\n        require(\n            token.transfer(msg.sender, unclaimedRewards),\n            \"Could not transfer rewards from staking contract to msg.sender\"\n        );\n        emit ClaimedRewards(msg.sender, unclaimedRewards);\n    }\n\n    // Mutative & Private\n    function _restakeRewards() private returns (bool) {\n        uint256 unclaimedRewards = _getRewards();\n        if (unclaimedRewards == 0) return false;\n        unclaimedRewards = _takeFees(\n            unclaimedRewards,\n            takeRestakeFee,\n            RESTAKE_FEE_RATE\n        );\n        stakeHolders[msg.sender].stakedTokens = stakeHolders[msg.sender]\n            .stakedTokens\n            .add(unclaimedRewards);\n        totalStaked = totalStaked.add(unclaimedRewards);\n        emit RestakedRewards(msg.sender, unclaimedRewards);\n        return true;\n    }\n\n    function _getRewards() private returns (uint256) {\n        uint256 unclaimedRewards = _calculateUnclaimedRewards(msg.sender);\n        if (unclaimedRewards == 0) return 0;\n        availableRewards = availableRewards.sub(unclaimedRewards);\n        stakeHolders[msg.sender].lastClaimedBlock = block.number;\n        stakeHolders[msg.sender].totalEarnedTokens = stakeHolders[msg.sender]\n            .totalEarnedTokens\n            .add(unclaimedRewards);\n        return unclaimedRewards;\n    }\n\n    function _takeFees(\n        uint256 amount,\n        bool takeFee,\n        uint256 feeRate\n    ) private returns (uint256) {\n        if (takeFee) {\n            uint256 fee = (amount.mul(feeRate)).div(1e4);\n            require(token.transfer(feeAddress, fee), \"Could not transfer fees\");\n            stakeHolders[msg.sender].totalFeesPayed = stakeHolders[msg.sender]\n                .totalFeesPayed\n                .add(fee);\n            emit PayedFee(msg.sender, fee);\n            return amount.sub(fee);\n        }\n        return amount;\n    }\n\n    // Only Owner\n    function init() external onlyOwner whenNotPaused notInitialized {\n        require(\n            token.transferFrom(msg.sender, address(this), 8e6 ether),\n            \"Could not transfer 8,000,000 as rewards\"\n        );\n        availableRewards = 8e6 ether;\n        stopRewardsBlock = 0;\n        takeStakeFee = false;\n        takeUnstakeFee = true;\n        takeRestakeFee = true;\n        _init();\n    }\n\n    function pause() external onlyOwner {\n        _pause();\n    }\n\n    function unpause() external onlyOwner {\n        _unpause();\n    }\n\n    function switchFees(\n        bool _takeStakeFee,\n        bool _takeUnstakeFee,\n        bool _takeRestakeFee\n    ) external override onlyOwner onlyInitialized {\n        takeStakeFee = _takeStakeFee;\n        takeUnstakeFee = _takeUnstakeFee;\n        takeRestakeFee = _takeRestakeFee;\n        emit SwitchedFees(_takeStakeFee, _takeUnstakeFee, _takeRestakeFee);\n    }\n\n    function switchRewards(bool enableRewards)\n        external\n        override\n        onlyOwner\n        onlyInitialized\n    {\n        if (enableRewards) {\n            stopRewardsBlock = 0;\n        } else {\n            stopRewardsBlock = block.number;\n        }\n        emit SwitchedRewards(enableRewards);\n    }\n\n    function emergencyWithdrawRewards(address emergencyAddress, uint256 amount)\n        external\n        override\n        onlyOwner\n        onlyInitialized\n    {\n        require(\n            availableRewards >= amount,\n            \"No available rewards for emergent withdrawal\"\n        );\n        require(\n            token.transfer(emergencyAddress, amount),\n            \"Could not transfer tokens\"\n        );\n        availableRewards = availableRewards.sub(amount);\n        emit RewardsWithdrawnEmergently(emergencyAddress, amount);\n    }\n}\n",
  "sourcePath": "/Users/markyosef/Downloads/plethori/contracts/PLEStaking.sol",
  "compiler": {
    "name": "solc",
    "version": "0.8.6+commit.11564f7e.Emscripten.clang"
  },
  "schemaVersion": "3.4.3",
  "updatedAt": "2021-10-26T15:24:24.379Z",
  "devdoc": {
    "kind": "dev",
    "methods": {
      "owner()": {
        "details": "Returns the address of the current owner."
      },
      "paused()": {
        "details": "Returns true if the contract is paused, and false otherwise."
      },
      "renounceOwnership()": {
        "details": "Leaves the contract without owner. It will not be possible to call `onlyOwner` functions anymore. Can only be called by the current owner. NOTE: Renouncing ownership will leave the contract without an owner, thereby removing any functionality that is only available to the owner."
      },
      "transferOwnership(address)": {
        "details": "Transfers ownership of the contract to a new account (`newOwner`). Can only be called by the current owner."
      }
    },
    "version": 1
  },
  "userdoc": {
    "kind": "user",
    "methods": {},
    "version": 1
  }
}