{
  "contractName": "PLEStaking",
  "abi": [
    {
      "anonymous": false,
      "inputs": [
        {
          "indexed": false,
          "internalType": "address",
          "name": "account",
          "type": "address"
        },
        {
          "indexed": false,
          "internalType": "uint256",
          "name": "amount",
          "type": "uint256"
        }
      ],
      "name": "ClaimedRewards",
      "type": "event"
    },
    {
      "anonymous": false,
      "inputs": [
        {
          "indexed": false,
          "internalType": "address",
          "name": "account",
          "type": "address"
        }
      ],
      "name": "Initialized",
      "type": "event"
    },
    {
      "anonymous": false,
      "inputs": [
        {
          "indexed": true,
          "internalType": "address",
          "name": "previousOwner",
          "type": "address"
        },
        {
          "indexed": true,
          "internalType": "address",
          "name": "newOwner",
          "type": "address"
        }
      ],
      "name": "OwnershipTransferred",
      "type": "event"
    },
    {
      "anonymous": false,
      "inputs": [
        {
          "indexed": false,
          "internalType": "address",
          "name": "account",
          "type": "address"
        }
      ],
      "name": "Paused",
      "type": "event"
    },
    {
      "anonymous": false,
      "inputs": [
        {
          "indexed": false,
          "internalType": "address",
          "name": "account",
          "type": "address"
        },
        {
          "indexed": false,
          "internalType": "uint256",
          "name": "amount",
          "type": "uint256"
        }
      ],
      "name": "PayedFee",
      "type": "event"
    },
    {
      "anonymous": false,
      "inputs": [
        {
          "indexed": false,
          "internalType": "address",
          "name": "account",
          "type": "address"
        },
        {
          "indexed": false,
          "internalType": "uint256",
          "name": "amount",
          "type": "uint256"
        }
      ],
      "name": "RestakedRewards",
      "type": "event"
    },
    {
      "anonymous": false,
      "inputs": [
        {
          "indexed": false,
          "internalType": "address",
          "name": "emergencyAddress",
          "type": "address"
        },
        {
          "indexed": false,
          "internalType": "uint256",
          "name": "amount",
          "type": "uint256"
        }
      ],
      "name": "RewardsWithdrawnEmergently",
      "type": "event"
    },
    {
      "anonymous": false,
      "inputs": [
        {
          "indexed": false,
          "internalType": "address",
          "name": "account",
          "type": "address"
        },
        {
          "indexed": false,
          "internalType": "uint256",
          "name": "amount",
          "type": "uint256"
        }
      ],
      "name": "Staked",
      "type": "event"
    },
    {
      "anonymous": false,
      "inputs": [
        {
          "indexed": false,
          "internalType": "bool",
          "name": "_takeStakeFee",
          "type": "bool"
        },
        {
          "indexed": false,
          "internalType": "bool",
          "name": "_takeUnstakeFee",
          "type": "bool"
        },
        {
          "indexed": false,
          "internalType": "bool",
          "name": "_takeRestakeFee",
          "type": "bool"
        }
      ],
      "name": "SwitchedFees",
      "type": "event"
    },
    {
      "anonymous": false,
      "inputs": [
        {
          "indexed": false,
          "internalType": "bool",
          "name": "enableRewards",
          "type": "bool"
        }
      ],
      "name": "SwitchedRewards",
      "type": "event"
    },
    {
      "anonymous": false,
      "inputs": [
        {
          "indexed": false,
          "internalType": "address",
          "name": "account",
          "type": "address"
        }
      ],
      "name": "Unpaused",
      "type": "event"
    },
    {
      "anonymous": false,
      "inputs": [
        {
          "indexed": false,
          "internalType": "address",
          "name": "account",
          "type": "address"
        },
        {
          "indexed": false,
          "internalType": "uint256",
          "name": "amount",
          "type": "uint256"
        }
      ],
      "name": "Unstaked",
      "type": "event"
    },
    {
      "inputs": [],
      "name": "BLOCKS_IN_YEAR_MULTIPLIED",
      "outputs": [
        {
          "internalType": "uint256",
          "name": "",
          "type": "uint256"
        }
      ],
      "stateMutability": "view",
      "type": "function"
    },
    {
      "inputs": [],
      "name": "RESTAKE_FEE_RATE",
      "outputs": [
        {
          "internalType": "uint256",
          "name": "",
          "type": "uint256"
        }
      ],
      "stateMutability": "view",
      "type": "function"
    },
    {
      "inputs": [],
      "name": "REWARD_RATE",
      "outputs": [
        {
          "internalType": "uint256",
          "name": "",
          "type": "uint256"
        }
      ],
      "stateMutability": "view",
      "type": "function"
    },
    {
      "inputs": [],
      "name": "STAKE_FEE_RATE",
      "outputs": [
        {
          "internalType": "uint256",
          "name": "",
          "type": "uint256"
        }
      ],
      "stateMutability": "view",
      "type": "function"
    },
    {
      "inputs": [],
      "name": "UNSTAKE_FEE_RATE",
      "outputs": [
        {
          "internalType": "uint256",
          "name": "",
          "type": "uint256"
        }
      ],
      "stateMutability": "view",
      "type": "function"
    },
    {
      "inputs": [],
      "name": "availableRewards",
      "outputs": [
        {
          "internalType": "uint256",
          "name": "",
          "type": "uint256"
        }
      ],
      "stateMutability": "view",
      "type": "function"
    },
    {
      "inputs": [],
      "name": "feeAddress",
      "outputs": [
        {
          "internalType": "address",
          "name": "",
          "type": "address"
        }
      ],
      "stateMutability": "view",
      "type": "function"
    },
    {
      "inputs": [],
      "name": "initialized",
      "outputs": [
        {
          "internalType": "bool",
          "name": "",
          "type": "bool"
        }
      ],
      "stateMutability": "view",
      "type": "function"
    },
    {
      "inputs": [],
      "name": "owner",
      "outputs": [
        {
          "internalType": "address",
          "name": "",
          "type": "address"
        }
      ],
      "stateMutability": "view",
      "type": "function"
    },
    {
      "inputs": [],
      "name": "paused",
      "outputs": [
        {
          "internalType": "bool",
          "name": "",
          "type": "bool"
        }
      ],
      "stateMutability": "view",
      "type": "function"
    },
    {
      "inputs": [],
      "name": "renounceOwnership",
      "outputs": [],
      "stateMutability": "nonpayable",
      "type": "function"
    },
    {
      "inputs": [
        {
          "internalType": "address",
          "name": "",
          "type": "address"
        }
      ],
      "name": "stakeHolders",
      "outputs": [
        {
          "internalType": "uint256",
          "name": "stakedTokens",
          "type": "uint256"
        },
        {
          "internalType": "uint256",
          "name": "lastClaimedBlock",
          "type": "uint256"
        },
        {
          "internalType": "uint256",
          "name": "totalEarnedTokens",
          "type": "uint256"
        },
        {
          "internalType": "uint256",
          "name": "totalFeesPayed",
          "type": "uint256"
        }
      ],
      "stateMutability": "view",
      "type": "function"
    },
    {
      "inputs": [],
      "name": "stopRewardsBlock",
      "outputs": [
        {
          "internalType": "uint256",
          "name": "",
          "type": "uint256"
        }
      ],
      "stateMutability": "view",
      "type": "function"
    },
    {
      "inputs": [],
      "name": "takeRestakeFee",
      "outputs": [
        {
          "internalType": "bool",
          "name": "",
          "type": "bool"
        }
      ],
      "stateMutability": "view",
      "type": "function"
    },
    {
      "inputs": [],
      "name": "takeStakeFee",
      "outputs": [
        {
          "internalType": "bool",
          "name": "",
          "type": "bool"
        }
      ],
      "stateMutability": "view",
      "type": "function"
    },
    {
      "inputs": [],
      "name": "takeUnstakeFee",
      "outputs": [
        {
          "internalType": "bool",
          "name": "",
          "type": "bool"
        }
      ],
      "stateMutability": "view",
      "type": "function"
    },
    {
      "inputs": [],
      "name": "token",
      "outputs": [
        {
          "internalType": "contract IERC20",
          "name": "",
          "type": "address"
        }
      ],
      "stateMutability": "view",
      "type": "function"
    },
    {
      "inputs": [],
      "name": "totalStaked",
      "outputs": [
        {
          "internalType": "uint256",
          "name": "",
          "type": "uint256"
        }
      ],
      "stateMutability": "view",
      "type": "function"
    },
    {
      "inputs": [
        {
          "internalType": "address",
          "name": "newOwner",
          "type": "address"
        }
      ],
      "name": "transferOwnership",
      "outputs": [],
      "stateMutability": "nonpayable",
      "type": "function"
    },
    {
      "inputs": [
        {
          "internalType": "address",
          "name": "account",
          "type": "address"
        }
      ],
      "name": "balanceOf",
      "outputs": [
        {
          "internalType": "uint256",
          "name": "",
          "type": "uint256"
        }
      ],
      "stateMutability": "view",
      "type": "function"
    },
    {
      "inputs": [
        {
          "internalType": "address",
          "name": "account",
          "type": "address"
        }
      ],
      "name": "totalClaimedRewardsOf",
      "outputs": [
        {
          "internalType": "uint256",
          "name": "",
          "type": "uint256"
        }
      ],
      "stateMutability": "view",
      "type": "function"
    },
    {
      "inputs": [],
      "name": "numberOfStakeHolders",
      "outputs": [
        {
          "internalType": "uint256",
          "name": "",
          "type": "uint256"
        }
      ],
      "stateMutability": "view",
      "type": "function"
    },
    {
      "inputs": [
        {
          "internalType": "address",
          "name": "account",
          "type": "address"
        }
      ],
      "name": "unclaimedRewardsOf",
      "outputs": [
        {
          "internalType": "uint256",
          "name": "",
          "type": "uint256"
        }
      ],
      "stateMutability": "view",
      "type": "function"
    },
    {
      "inputs": [
        {
          "internalType": "uint256",
          "name": "begin",
          "type": "uint256"
        },
        {
          "internalType": "uint256",
          "name": "end",
          "type": "uint256"
        }
      ],
      "name": "unclaimedRewardsOfUsers",
      "outputs": [
        {
          "internalType": "uint256",
          "name": "",
          "type": "uint256"
        }
      ],
      "stateMutability": "view",
      "type": "function"
    },
    {
      "inputs": [
        {
          "internalType": "uint256",
          "name": "amount",
          "type": "uint256"
        }
      ],
      "name": "stake",
      "outputs": [],
      "stateMutability": "nonpayable",
      "type": "function"
    },
    {
      "inputs": [
        {
          "internalType": "uint256",
          "name": "amount",
          "type": "uint256"
        }
      ],
      "name": "unstake",
      "outputs": [],
      "stateMutability": "nonpayable",
      "type": "function"
    },
    {
      "inputs": [],
      "name": "restakeRewards",
      "outputs": [],
      "stateMutability": "nonpayable",
      "type": "function"
    },
    {
      "inputs": [],
      "name": "claimRewards",
      "outputs": [],
      "stateMutability": "nonpayable",
      "type": "function"
    },
    {
      "inputs": [],
      "name": "init",
      "outputs": [],
      "stateMutability": "nonpayable",
      "type": "function"
    },
    {
      "inputs": [],
      "name": "pause",
      "outputs": [],
      "stateMutability": "nonpayable",
      "type": "function"
    },
    {
      "inputs": [],
      "name": "unpause",
      "outputs": [],
      "stateMutability": "nonpayable",
      "type": "function"
    },
    {
      "inputs": [
        {
          "internalType": "bool",
          "name": "_takeStakeFee",
          "type": "bool"
        },
        {
          "internalType": "bool",
          "name": "_takeUnstakeFee",
          "type": "bool"
        },
        {
          "internalType": "bool",
          "name": "_takeRestakeFee",
          "type": "bool"
        }
      ],
      "name": "switchFees",
      "outputs": [],
      "stateMutability": "nonpayable",
      "type": "function"
    },
    {
      "inputs": [
        {
          "internalType": "bool",
          "name": "enableRewards",
          "type": "bool"
        }
      ],
      "name": "switchRewards",
      "outputs": [],
      "stateMutability": "nonpayable",
      "type": "function"
    },
    {
      "inputs": [
        {
          "internalType": "address",
          "name": "emergencyAddress",
          "type": "address"
        },
        {
          "internalType": "uint256",
          "name": "amount",
          "type": "uint256"
        }
      ],
      "name": "emergencyWithdrawRewards",
      "outputs": [],
      "stateMutability": "nonpayable",
      "type": "function"
    }
  ],
  "bytecode": "0x6080604052733873965e73d9a21f88e645ce40b7db187fde4931600160006101000a81548173ffffffffffffffffffffffffffffffffffffffff021916908373ffffffffffffffffffffffffffffffffffffffff160217905550738b176d1d547afd831e5c74787e4ec6d184a5078e600260006101000a81548173ffffffffffffffffffffffffffffffffffffffff021916908373ffffffffffffffffffffffffffffffffffffffff160217905550348015620000bb57600080fd5b50620000dc620000d06200011660201b60201c565b6200011e60201b60201c565b60008060146101000a81548160ff02191690831515021790555060008060156101000a81548160ff021916908315150217905550620001e2565b600033905090565b60008060009054906101000a900473ffffffffffffffffffffffffffffffffffffffff169050816000806101000a81548173ffffffffffffffffffffffffffffffffffffffff021916908373ffffffffffffffffffffffffffffffffffffffff1602179055508173ffffffffffffffffffffffffffffffffffffffff168173ffffffffffffffffffffffffffffffffffffffff167f8be0079c531659141344cd1fd0a4f28419497f9722a3daafe3b4186f6b6457e060405160405180910390a35050565b61378380620001f26000396000f3fe608060405234801561001057600080fd5b50600436106102065760003560e01c806370a082311161011a578063a694fc3a116100ad578063e1c7392a1161007c578063e1c7392a1461054b578063e26ff10a14610555578063e6107c1014610588578063f2fde38b146105a6578063fc0c546a146105c257610206565b8063a694fc3a146104c5578063aa9e1753146104e1578063d28d441e146104ff578063e1a476da1461051b57610206565b8063817b1cd2116100e9578063817b1cd2146104615780638456cb591461047f578063879d9090146104895780638da5cb5b146104a757610206565b806370a08231146103ed578063715018a61461041d57806372121437146104275780637f9fe6261461044357610206565b8063412753581161019d57806353515bd01161016c57806353515bd0146103475780635997bb37146103655780635c975abb146103835780635e55935b146103a15780636dba522a146103bd57610206565b806341275358146102bd57806343ff00dc146102db578063458dafcc146102f95780634e916a4f1461031757610206565b80632e17de78116101d95780632e17de7814610283578063372500ab1461029f5780633d8527ba146102a95780633f4ba83a146102b357610206565b806306f1cf731461020b578063158ef93e146102295780631757e67c1461024757806323fed5aa14610265575b600080fd5b6102136105e0565b6040516102209190612d61565b60405180910390f35b6102316105f3565b60405161023e9190612d61565b60405180910390f35b61024f610609565b60405161025c919061300e565b60405180910390f35b61026d61060e565b60405161027a919061300e565b60405180910390f35b61029d60048036038101906102989190612981565b610617565b005b6102a7610a46565b005b6102b1610c4e565b005b6102bb610d26565b005b6102c5610dac565b6040516102d29190612caf565b60405180910390f35b6102e3610dd2565b6040516102f0919061300e565b60405180910390f35b610301610dd8565b60405161030e919061300e565b60405180910390f35b610331600480360381019061032c9190612867565b610ddd565b60405161033e919061300e565b60405180910390f35b61034f610def565b60405161035c919061300e565b60405180910390f35b61036d610df4565b60405161037a919061300e565b60405180910390f35b61038b610dfa565b6040516103989190612d61565b60405180910390f35b6103bb60048036038101906103b691906128d4565b610e10565b005b6103d760048036038101906103d291906129ae565b610f28565b6040516103e4919061300e565b60405180910390f35b61040760048036038101906104029190612867565b610f9f565b604051610414919061300e565b60405180910390f35b610425610feb565b005b610441600480360381019061043c919061292e565b611073565b005b61044b6111c4565b6040516104589190612d61565b60405180910390f35b6104696111d7565b604051610476919061300e565b60405180910390f35b6104876111dd565b005b610491611263565b60405161049e919061300e565b60405180910390f35b6104af611269565b6040516104bc9190612caf565b60405180910390f35b6104df60048036038101906104da9190612981565b611292565b005b6104e961161c565b6040516104f6919061300e565b60405180910390f35b61051960048036038101906105149190612894565b61162d565b005b61053560048036038101906105309190612867565b61187b565b604051610542919061300e565b60405180910390f35b6105536118c7565b005b61056f600480360381019061056a9190612867565b611b43565b60405161057f9493929190613029565b60405180910390f35b610590611b73565b60405161059d9190612d61565b60405180910390f35b6105c060048036038101906105bb9190612867565b611b86565b005b6105ca611c7e565b6040516105d79190612db3565b60405180910390f35b600260169054906101000a900460ff1681565b60008060159054906101000a900460ff16905090565b603281565b6404e520c80081565b61061f610dfa565b1561065f576040517f08c379a000000000000000000000000000000000000000000000000000000000815260040161065690612ece565b60405180910390fd5b6106676105f3565b6106a6576040517f08c379a000000000000000000000000000000000000000000000000000000000815260040161069d90612fae565b60405180910390fd5b600081116106e9576040517f08c379a00000000000000000000000000000000000000000000000000000000081526004016106e090612e6e565b60405180910390fd5b80600660003373ffffffffffffffffffffffffffffffffffffffff1673ffffffffffffffffffffffffffffffffffffffff16815260200190815260200160002060000154101561076e576040517f08c379a000000000000000000000000000000000000000000000000000000000815260040161076590612e4e565b60405180910390fd5b6000610778611ca4565b90506107cf82600660003373ffffffffffffffffffffffffffffffffffffffff1673ffffffffffffffffffffffffffffffffffffffff16815260200190815260200160002060000154611dca90919063ffffffff16565b600660003373ffffffffffffffffffffffffffffffffffffffff1673ffffffffffffffffffffffffffffffffffffffff1681526020019081526020016000206000018190555061082a82600554611dca90919063ffffffff16565b6005819055506000600660003373ffffffffffffffffffffffffffffffffffffffff1673ffffffffffffffffffffffffffffffffffffffff1681526020019081526020016000206000015414156108915761088f336007611de090919063ffffffff16565b505b60006108ae83600260159054906101000a900460ff166032611e10565b90506000821115610908576108cc828261204d90919063ffffffff16565b90507f2d5429efdeca7741a8cd94067b18d988bc4e5f1d5b8272c37b7bfc31e9bfa32c33836040516108ff929190612d38565b60405180910390a15b600160009054906101000a900473ffffffffffffffffffffffffffffffffffffffff1673ffffffffffffffffffffffffffffffffffffffff1663a9059cbb33836040518363ffffffff1660e01b8152600401610965929190612d38565b602060405180830381600087803b15801561097f57600080fd5b505af1158015610993573d6000803e3d6000fd5b505050506040513d601f19601f820116820180604052508101906109b79190612901565b6109f6576040517f08c379a00000000000000000000000000000000000000000000000000000000081526004016109ed90612f8e565b60405180910390fd5b7f0f5bb82176feb1b5e747e28471aa92156a04d9f3ab9f45f28e2d704232b93f7533610a2b8484611dca90919063ffffffff16565b604051610a39929190612d38565b60405180910390a1505050565b610a4e610dfa565b15610a8e576040517f08c379a0000000000000000000000000000000000000000000000000000000008152600401610a8590612ece565b60405180910390fd5b610a966105f3565b610ad5576040517f08c379a0000000000000000000000000000000000000000000000000000000008152600401610acc90612fae565b60405180910390fd5b6000610adf611ca4565b905060008111610b24576040517f08c379a0000000000000000000000000000000000000000000000000000000008152600401610b1b90612e8e565b60405180910390fd5b600160009054906101000a900473ffffffffffffffffffffffffffffffffffffffff1673ffffffffffffffffffffffffffffffffffffffff1663a9059cbb33836040518363ffffffff1660e01b8152600401610b81929190612d38565b602060405180830381600087803b158015610b9b57600080fd5b505af1158015610baf573d6000803e3d6000fd5b505050506040513d601f19601f82011682018060405250810190610bd39190612901565b610c12576040517f08c379a0000000000000000000000000000000000000000000000000000000008152600401610c0990612f0e565b60405180910390fd5b7f2d5429efdeca7741a8cd94067b18d988bc4e5f1d5b8272c37b7bfc31e9bfa32c3382604051610c43929190612d38565b60405180910390a150565b610c56610dfa565b15610c96576040517f08c379a0000000000000000000000000000000000000000000000000000000008152600401610c8d90612ece565b60405180910390fd5b610c9e6105f3565b610cdd576040517f08c379a0000000000000000000000000000000000000000000000000000000008152600401610cd490612fae565b60405180910390fd5b610ce5612063565b610d24576040517f08c379a0000000000000000000000000000000000000000000000000000000008152600401610d1b90612f2e565b60405180910390fd5b565b610d2e612198565b73ffffffffffffffffffffffffffffffffffffffff16610d4c611269565b73ffffffffffffffffffffffffffffffffffffffff1614610da2576040517f08c379a0000000000000000000000000000000000000000000000000000000008152600401610d9990612f6e565b60405180910390fd5b610daa6121a0565b565b600260009054906101000a900473ffffffffffffffffffffffffffffffffffffffff1681565b60035481565b609681565b6000610de882612241565b9050919050565b603281565b610fa081565b60008060149054906101000a900460ff16905090565b610e18612198565b73ffffffffffffffffffffffffffffffffffffffff16610e36611269565b73ffffffffffffffffffffffffffffffffffffffff1614610e8c576040517f08c379a0000000000000000000000000000000000000000000000000000000008152600401610e8390612f6e565b60405180910390fd5b610e946105f3565b610ed3576040517f08c379a0000000000000000000000000000000000000000000000000000000008152600401610eca90612fae565b60405180910390fd5b8015610ee6576000600381905550610eee565b436003819055505b7fb2b1411ada6604eafdeac748f24feb6a6b68a3d894573e2d7269c0bc36cab1cf81604051610f1d9190612d61565b60405180910390a150565b6000806000905060008490505b8381108015610f4c5750610f49600761239b565b81105b15610f9457610f7f610f70610f6b8360076123b090919063ffffffff16565b612241565b8361204d90919063ffffffff16565b91508080610f8c90613212565b915050610f35565b508091505092915050565b6000600660008373ffffffffffffffffffffffffffffffffffffffff1673ffffffffffffffffffffffffffffffffffffffff168152602001908152602001600020600001549050919050565b610ff3612198565b73ffffffffffffffffffffffffffffffffffffffff16611011611269565b73ffffffffffffffffffffffffffffffffffffffff1614611067576040517f08c379a000000000000000000000000000000000000000000000000000000000815260040161105e90612f6e565b60405180910390fd5b61107160006123ca565b565b61107b612198565b73ffffffffffffffffffffffffffffffffffffffff16611099611269565b73ffffffffffffffffffffffffffffffffffffffff16146110ef576040517f08c379a00000000000000000000000000000000000000000000000000000000081526004016110e690612f6e565b60405180910390fd5b6110f76105f3565b611136576040517f08c379a000000000000000000000000000000000000000000000000000000000815260040161112d90612fae565b60405180910390fd5b82600260146101000a81548160ff02191690831515021790555081600260156101000a81548160ff02191690831515021790555080600260166101000a81548160ff0219169083151502179055507f62f6f407b6a96dee4b104bba444bd0a9a98ecbada2c4f8172941cbdec7bdc0a88383836040516111b793929190612d7c565b60405180910390a1505050565b600260149054906101000a900460ff1681565b60055481565b6111e5612198565b73ffffffffffffffffffffffffffffffffffffffff16611203611269565b73ffffffffffffffffffffffffffffffffffffffff1614611259576040517f08c379a000000000000000000000000000000000000000000000000000000000815260040161125090612f6e565b60405180910390fd5b61126161248e565b565b60045481565b60008060009054906101000a900473ffffffffffffffffffffffffffffffffffffffff16905090565b61129a610dfa565b156112da576040517f08c379a00000000000000000000000000000000000000000000000000000000081526004016112d190612ece565b60405180910390fd5b6112e26105f3565b611321576040517f08c379a000000000000000000000000000000000000000000000000000000000815260040161131890612fae565b60405180910390fd5b60008111611364576040517f08c379a000000000000000000000000000000000000000000000000000000000815260040161135b90612fee565b60405180910390fd5b6000600660003373ffffffffffffffffffffffffffffffffffffffff1673ffffffffffffffffffffffffffffffffffffffff1681526020019081526020016000206000015411156113bd576113b7612063565b50611405565b43600660003373ffffffffffffffffffffffffffffffffffffffff1673ffffffffffffffffffffffffffffffffffffffff168152602001908152602001600020600101819055505b600160009054906101000a900473ffffffffffffffffffffffffffffffffffffffff1673ffffffffffffffffffffffffffffffffffffffff166323b872dd3330846040518463ffffffff1660e01b815260040161146493929190612d01565b602060405180830381600087803b15801561147e57600080fd5b505af1158015611492573d6000803e3d6000fd5b505050506040513d601f19601f820116820180604052508101906114b69190612901565b6114f5576040517f08c379a00000000000000000000000000000000000000000000000000000000081526004016114ec90612e2e565b60405180910390fd5b600061151282600260149054906101000a900460ff166096611e10565b905061156981600660003373ffffffffffffffffffffffffffffffffffffffff1673ffffffffffffffffffffffffffffffffffffffff1681526020019081526020016000206000015461204d90919063ffffffff16565b600660003373ffffffffffffffffffffffffffffffffffffffff1673ffffffffffffffffffffffffffffffffffffffff168152602001908152602001600020600001819055506115c48160055461204d90919063ffffffff16565b6005819055506115de33600761253190919063ffffffff16565b507f9e71bc8eea02a63969f509818f2dafb9254532904319f9dbda79b67bd34a5f3d3382604051611610929190612d38565b60405180910390a15050565b6000611628600761239b565b905090565b611635612198565b73ffffffffffffffffffffffffffffffffffffffff16611653611269565b73ffffffffffffffffffffffffffffffffffffffff16146116a9576040517f08c379a00000000000000000000000000000000000000000000000000000000081526004016116a090612f6e565b60405180910390fd5b6116b16105f3565b6116f0576040517f08c379a00000000000000000000000000000000000000000000000000000000081526004016116e790612fae565b60405180910390fd5b806004541015611735576040517f08c379a000000000000000000000000000000000000000000000000000000000815260040161172c90612eee565b60405180910390fd5b600160009054906101000a900473ffffffffffffffffffffffffffffffffffffffff1673ffffffffffffffffffffffffffffffffffffffff1663a9059cbb83836040518363ffffffff1660e01b8152600401611792929190612d38565b602060405180830381600087803b1580156117ac57600080fd5b505af11580156117c0573d6000803e3d6000fd5b505050506040513d601f19601f820116820180604052508101906117e49190612901565b611823576040517f08c379a000000000000000000000000000000000000000000000000000000000815260040161181a90612f4e565b60405180910390fd5b61183881600454611dca90919063ffffffff16565b6004819055507f9e49045bf2481e71ef100980f62b070b5348abbf047259ece0649006918efbf1828260405161186f929190612d38565b60405180910390a15050565b6000600660008373ffffffffffffffffffffffffffffffffffffffff1673ffffffffffffffffffffffffffffffffffffffff168152602001908152602001600020600201549050919050565b6118cf612198565b73ffffffffffffffffffffffffffffffffffffffff166118ed611269565b73ffffffffffffffffffffffffffffffffffffffff1614611943576040517f08c379a000000000000000000000000000000000000000000000000000000000815260040161193a90612f6e565b60405180910390fd5b61194b610dfa565b1561198b576040517f08c379a000000000000000000000000000000000000000000000000000000000815260040161198290612ece565b60405180910390fd5b6119936105f3565b156119d3576040517f08c379a00000000000000000000000000000000000000000000000000000000081526004016119ca90612e0e565b60405180910390fd5b600160009054906101000a900473ffffffffffffffffffffffffffffffffffffffff1673ffffffffffffffffffffffffffffffffffffffff166323b872dd33306a069e10de76676d080000006040518463ffffffff1660e01b8152600401611a3d93929190612cca565b602060405180830381600087803b158015611a5757600080fd5b505af1158015611a6b573d6000803e3d6000fd5b505050506040513d601f19601f82011682018060405250810190611a8f9190612901565b611ace576040517f08c379a0000000000000000000000000000000000000000000000000000000008152600401611ac590612eae565b60405180910390fd5b6a069e10de76676d0800000060048190555060006003819055506000600260146101000a81548160ff0219169083151502179055506001600260156101000a81548160ff0219169083151502179055506001600260166101000a81548160ff021916908315150217905550611b41612561565b565b60066020528060005260406000206000915090508060000154908060010154908060020154908060030154905084565b600260159054906101000a900460ff1681565b611b8e612198565b73ffffffffffffffffffffffffffffffffffffffff16611bac611269565b73ffffffffffffffffffffffffffffffffffffffff1614611c02576040517f08c379a0000000000000000000000000000000000000000000000000000000008152600401611bf990612f6e565b60405180910390fd5b600073ffffffffffffffffffffffffffffffffffffffff168173ffffffffffffffffffffffffffffffffffffffff161415611c72576040517f08c379a0000000000000000000000000000000000000000000000000000000008152600401611c6990612dee565b60405180910390fd5b611c7b816123ca565b50565b600160009054906101000a900473ffffffffffffffffffffffffffffffffffffffff1681565b600080611cb033612241565b90506000811415611cc5576000915050611dc7565b611cda81600454611dca90919063ffffffff16565b60048190555043600660003373ffffffffffffffffffffffffffffffffffffffff1673ffffffffffffffffffffffffffffffffffffffff16815260200190815260200160002060010181905550611d7c81600660003373ffffffffffffffffffffffffffffffffffffffff1673ffffffffffffffffffffffffffffffffffffffff1681526020019081526020016000206002015461204d90919063ffffffff16565b600660003373ffffffffffffffffffffffffffffffffffffffff1673ffffffffffffffffffffffffffffffffffffffff16815260200190815260200160002060020181905550809150505b90565b60008183611dd89190613160565b905092915050565b6000611e08836000018373ffffffffffffffffffffffffffffffffffffffff1660001b612604565b905092915050565b60008215612042576000611e41612710611e33858861271890919063ffffffff16565b61272e90919063ffffffff16565b9050600160009054906101000a900473ffffffffffffffffffffffffffffffffffffffff1673ffffffffffffffffffffffffffffffffffffffff1663a9059cbb600260009054906101000a900473ffffffffffffffffffffffffffffffffffffffff16836040518363ffffffff1660e01b8152600401611ec2929190612d38565b602060405180830381600087803b158015611edc57600080fd5b505af1158015611ef0573d6000803e3d6000fd5b505050506040513d601f19601f82011682018060405250810190611f149190612901565b611f53576040517f08c379a0000000000000000000000000000000000000000000000000000000008152600401611f4a90612fce565b60405180910390fd5b611fa881600660003373ffffffffffffffffffffffffffffffffffffffff1673ffffffffffffffffffffffffffffffffffffffff1681526020019081526020016000206003015461204d90919063ffffffff16565b600660003373ffffffffffffffffffffffffffffffffffffffff1673ffffffffffffffffffffffffffffffffffffffff168152602001908152602001600020600301819055507f0ae4b56b451967e88c61b6cd8a4c6808b926c9ce02191e2e9d8490a2f84626a5338260405161201f929190612d38565b60405180910390a161203a8186611dca90919063ffffffff16565b915050612046565b8390505b9392505050565b6000818361205b919061307f565b905092915050565b60008061206e611ca4565b90506000811415612083576000915050612195565b61209e81600260169054906101000a900460ff166032611e10565b90506120f581600660003373ffffffffffffffffffffffffffffffffffffffff1673ffffffffffffffffffffffffffffffffffffffff1681526020019081526020016000206000015461204d90919063ffffffff16565b600660003373ffffffffffffffffffffffffffffffffffffffff1673ffffffffffffffffffffffffffffffffffffffff168152602001908152602001600020600001819055506121508160055461204d90919063ffffffff16565b6005819055507fa6e04b577d8dcbd6df137c7e70cdc883b23b197be16d321ccbdbde96daa75a433382604051612187929190612d38565b60405180910390a160019150505b90565b600033905090565b6121a8610dfa565b6121e7576040517f08c379a00000000000000000000000000000000000000000000000000000000081526004016121de90612dce565b60405180910390fd5b60008060146101000a81548160ff0219169083151502179055507f5db9ee0a495bf2e6ff9c91a7834c1ba4fdd244a5e8aa4e537bd38aeae4b073aa61222a612198565b6040516122379190612caf565b60405180910390a1565b600080600660008473ffffffffffffffffffffffffffffffffffffffff1673ffffffffffffffffffffffffffffffffffffffff168152602001908152602001600020600001549050600081141561229c576000915050612396565b6000600660008573ffffffffffffffffffffffffffffffffffffffff1673ffffffffffffffffffffffffffffffffffffffff16815260200190815260200160002060010154905060006003541415612308576123018143611dca90919063ffffffff16565b9050612334565b806003541161231c57600092505050612396565b61233181600354611dca90919063ffffffff16565b90505b600061235d610fa061234f848661271890919063ffffffff16565b61271890919063ffffffff16565b90506123776404e520c8008261272e90919063ffffffff16565b905060045481111561238f5760009350505050612396565b8093505050505b919050565b60006123a982600001612744565b9050919050565b60006123bf8360000183612755565b60001c905092915050565b60008060009054906101000a900473ffffffffffffffffffffffffffffffffffffffff169050816000806101000a81548173ffffffffffffffffffffffffffffffffffffffff021916908373ffffffffffffffffffffffffffffffffffffffff1602179055508173ffffffffffffffffffffffffffffffffffffffff168173ffffffffffffffffffffffffffffffffffffffff167f8be0079c531659141344cd1fd0a4f28419497f9722a3daafe3b4186f6b6457e060405160405180910390a35050565b612496610dfa565b156124d6576040517f08c379a00000000000000000000000000000000000000000000000000000000081526004016124cd90612ece565b60405180910390fd5b6001600060146101000a81548160ff0219169083151502179055507f62e78cea01bee320cd4e420270b5ea74000d11b0c9f74754ebdbfc544b05a25861251a612198565b6040516125279190612caf565b60405180910390a1565b6000612559836000018373ffffffffffffffffffffffffffffffffffffffff1660001b612780565b905092915050565b6125696105f3565b156125a9576040517f08c379a00000000000000000000000000000000000000000000000000000000081526004016125a090612e0e565b60405180910390fd5b6001600060156101000a81548160ff0219169083151502179055507f908408e307fc569b417f6cbec5d5a06f44a0a505ac0479b47d421a4b2fd6a1e66125ed612198565b6040516125fa9190612caf565b60405180910390a1565b6000808360010160008481526020019081526020016000205490506000811461270c5760006001826126369190613160565b905060006001866000018054905061264e9190613160565b90508181146126bd57600086600001828154811061266f5761266e6132e8565b5b9060005260206000200154905080876000018481548110612693576126926132e8565b5b90600052602060002001819055508387600101600083815260200190815260200160002081905550505b856000018054806126d1576126d06132b9565b5b600190038181906000526020600020016000905590558560010160008681526020019081526020016000206000905560019350505050612712565b60009150505b92915050565b600081836127269190613106565b905092915050565b6000818361273c91906130d5565b905092915050565b600081600001805490509050919050565b600082600001828154811061276d5761276c6132e8565b5b9060005260206000200154905092915050565b600061278c83836127f0565b6127e55782600001829080600181540180825580915050600190039060005260206000200160009091909190915055826000018054905083600101600084815260200190815260200160002081905550600190506127ea565b600090505b92915050565b600080836001016000848152602001908152602001600020541415905092915050565b60008135905061282281613708565b92915050565b6000813590506128378161371f565b92915050565b60008151905061284c8161371f565b92915050565b60008135905061286181613736565b92915050565b60006020828403121561287d5761287c613317565b5b600061288b84828501612813565b91505092915050565b600080604083850312156128ab576128aa613317565b5b60006128b985828601612813565b92505060206128ca85828601612852565b9150509250929050565b6000602082840312156128ea576128e9613317565b5b60006128f884828501612828565b91505092915050565b60006020828403121561291757612916613317565b5b60006129258482850161283d565b91505092915050565b60008060006060848603121561294757612946613317565b5b600061295586828701612828565b935050602061296686828701612828565b925050604061297786828701612828565b9150509250925092565b60006020828403121561299757612996613317565b5b60006129a584828501612852565b91505092915050565b600080604083850312156129c5576129c4613317565b5b60006129d385828601612852565b92505060206129e485828601612852565b9150509250929050565b6129f781613194565b82525050565b612a06816131a6565b82525050565b612a15816131dc565b82525050565b612a2481613200565b82525050565b6000612a3760148361306e565b9150612a428261331c565b602082019050919050565b6000612a5a60268361306e565b9150612a6582613345565b604082019050919050565b6000612a7d60228361306e565b9150612a8882613394565b604082019050919050565b6000612aa0603d8361306e565b9150612aab826133e3565b604082019050919050565b6000612ac3601c8361306e565b9150612ace82613432565b602082019050919050565b6000612ae660178361306e565b9150612af18261345b565b602082019050919050565b6000612b0960138361306e565b9150612b1482613484565b602082019050919050565b6000612b2c60278361306e565b9150612b37826134ad565b604082019050919050565b6000612b4f60108361306e565b9150612b5a826134fc565b602082019050919050565b6000612b72602c8361306e565b9150612b7d82613525565b604082019050919050565b6000612b95603e8361306e565b9150612ba082613574565b604082019050919050565b6000612bb860158361306e565b9150612bc3826135c3565b602082019050919050565b6000612bdb60198361306e565b9150612be6826135ec565b602082019050919050565b6000612bfe60208361306e565b9150612c0982613615565b602082019050919050565b6000612c21603d8361306e565b9150612c2c8261363e565b604082019050919050565b6000612c44601e8361306e565b9150612c4f8261368d565b602082019050919050565b6000612c6760178361306e565b9150612c72826136b6565b602082019050919050565b6000612c8a60158361306e565b9150612c95826136df565b602082019050919050565b612ca9816131d2565b82525050565b6000602082019050612cc460008301846129ee565b92915050565b6000606082019050612cdf60008301866129ee565b612cec60208301856129ee565b612cf96040830184612a1b565b949350505050565b6000606082019050612d1660008301866129ee565b612d2360208301856129ee565b612d306040830184612ca0565b949350505050565b6000604082019050612d4d60008301856129ee565b612d5a6020830184612ca0565b9392505050565b6000602082019050612d7660008301846129fd565b92915050565b6000606082019050612d9160008301866129fd565b612d9e60208301856129fd565b612dab60408301846129fd565b949350505050565b6000602082019050612dc86000830184612a0c565b92915050565b60006020820190508181036000830152612de781612a2a565b9050919050565b60006020820190508181036000830152612e0781612a4d565b9050919050565b60006020820190508181036000830152612e2781612a70565b9050919050565b60006020820190508181036000830152612e4781612a93565b9050919050565b60006020820190508181036000830152612e6781612ab6565b9050919050565b60006020820190508181036000830152612e8781612ad9565b9050919050565b60006020820190508181036000830152612ea781612afc565b9050919050565b60006020820190508181036000830152612ec781612b1f565b9050919050565b60006020820190508181036000830152612ee781612b42565b9050919050565b60006020820190508181036000830152612f0781612b65565b9050919050565b60006020820190508181036000830152612f2781612b88565b9050919050565b60006020820190508181036000830152612f4781612bab565b9050919050565b60006020820190508181036000830152612f6781612bce565b9050919050565b60006020820190508181036000830152612f8781612bf1565b9050919050565b60006020820190508181036000830152612fa781612c14565b9050919050565b60006020820190508181036000830152612fc781612c37565b9050919050565b60006020820190508181036000830152612fe781612c5a565b9050919050565b6000602082019050818103600083015261300781612c7d565b9050919050565b60006020820190506130236000830184612ca0565b92915050565b600060808201905061303e6000830187612ca0565b61304b6020830186612ca0565b6130586040830185612ca0565b6130656060830184612ca0565b95945050505050565b600082825260208201905092915050565b600061308a826131d2565b9150613095836131d2565b9250827fffffffffffffffffffffffffffffffffffffffffffffffffffffffffffffffff038211156130ca576130c961325b565b5b828201905092915050565b60006130e0826131d2565b91506130eb836131d2565b9250826130fb576130fa61328a565b5b828204905092915050565b6000613111826131d2565b915061311c836131d2565b9250817fffffffffffffffffffffffffffffffffffffffffffffffffffffffffffffffff04831182151516156131555761315461325b565b5b828202905092915050565b600061316b826131d2565b9150613176836131d2565b9250828210156131895761318861325b565b5b828203905092915050565b600061319f826131b2565b9050919050565b60008115159050919050565b600073ffffffffffffffffffffffffffffffffffffffff82169050919050565b6000819050919050565b60006131e7826131ee565b9050919050565b60006131f9826131b2565b9050919050565b600061320b826131d2565b9050919050565b600061321d826131d2565b91507fffffffffffffffffffffffffffffffffffffffffffffffffffffffffffffffff8214156132505761324f61325b565b5b600182019050919050565b7f4e487b7100000000000000000000000000000000000000000000000000000000600052601160045260246000fd5b7f4e487b7100000000000000000000000000000000000000000000000000000000600052601260045260246000fd5b7f4e487b7100000000000000000000000000000000000000000000000000000000600052603160045260246000fd5b7f4e487b7100000000000000000000000000000000000000000000000000000000600052603260045260246000fd5b600080fd5b7f5061757361626c653a206e6f7420706175736564000000000000000000000000600082015250565b7f4f776e61626c653a206e6577206f776e657220697320746865207a65726f206160008201527f6464726573730000000000000000000000000000000000000000000000000000602082015250565b7f496e697469616c697a61626c653a20416c726561647920696e697469616c697a60008201527f6564000000000000000000000000000000000000000000000000000000000000602082015250565b7f436f756c64206e6f74207472616e7366657220746f6b656e732066726f6d206d60008201527f73672e73656e64657220746f207374616b696e6720636f6e7472616374000000602082015250565b7f4e6f7420656e6f75676820746f6b656e7320746f20756e7374616b6500000000600082015250565b7f43616e6e6f7420756e7374616b65203020746f6b656e73000000000000000000600082015250565b7f4e6f207265776172647320746f20636c61696d00000000000000000000000000600082015250565b7f436f756c64206e6f74207472616e7366657220382c3030302c3030302061732060008201527f7265776172647300000000000000000000000000000000000000000000000000602082015250565b7f5061757361626c653a2070617573656400000000000000000000000000000000600082015250565b7f4e6f20617661696c61626c65207265776172647320666f7220656d657267656e60008201527f74207769746864726177616c0000000000000000000000000000000000000000602082015250565b7f436f756c64206e6f74207472616e7366657220726577617264732066726f6d2060008201527f7374616b696e6720636f6e747261637420746f206d73672e73656e6465720000602082015250565b7f4e6f207265776172647320746f2072657374616b650000000000000000000000600082015250565b7f436f756c64206e6f74207472616e7366657220746f6b656e7300000000000000600082015250565b7f4f776e61626c653a2063616c6c6572206973206e6f7420746865206f776e6572600082015250565b7f436f756c64206e6f74207472616e7366657220746f6b656e732066726f6d207360008201527f74616b696e6720636f6e747261637420746f206d73672e73656e646572000000602082015250565b7f496e697469616c697a61626c653a204e6f7420696e697469616c697a65640000600082015250565b7f436f756c64206e6f74207472616e736665722066656573000000000000000000600082015250565b7f43616e6e6f74207374616b65203020746f6b656e730000000000000000000000600082015250565b61371181613194565b811461371c57600080fd5b50565b613728816131a6565b811461373357600080fd5b50565b61373f816131d2565b811461374a57600080fd5b5056fea26469706673582212205a6121110bd569f7684539d77b1cc1f90d830a7ef8f6f92c1e41cfc1f23142cd64736f6c63430008060033",
  "immutableReferences": {},
  "source": "// SPDX-License-Identifier: MIT\n\npragma solidity ^0.8.6;\n\nimport \"@openzeppelin/contracts/utils/math/SafeMath.sol\";\nimport \"@openzeppelin/contracts/access/Ownable.sol\";\nimport \"@openzeppelin/contracts/security/Pausable.sol\";\nimport \"@openzeppelin/contracts/token/ERC20/IERC20.sol\";\nimport \"@openzeppelin/contracts/utils/structs/EnumerableSet.sol\";\nimport \"./Initializable.sol\";\n\ninterface IStaking {\n    // Views\n    function balanceOf(address account) external view returns (uint256);\n\n    function totalClaimedRewardsOf(address account)\n        external\n        view\n        returns (uint256);\n\n    function numberOfStakeHolders() external view returns (uint256);\n\n    function unclaimedRewardsOf(address account)\n        external\n        view\n        returns (uint256);\n\n    function unclaimedRewardsOfUsers(uint256 begin, uint256 end)\n        external\n        view\n        returns (uint256);\n\n    // Mutative\n    function stake(uint256 amount) external;\n\n    function unstake(uint256 amount) external;\n\n    function restakeRewards() external;\n\n    function claimRewards() external;\n\n    // Only Owner\n    function switchFees(\n        bool _takeStakeFee,\n        bool _takeUnstakeFee,\n        bool _takeRestakeFee\n    ) external;\n\n    function switchRewards(bool enableRewards) external;\n\n    function emergencyWithdrawRewards(address emergencyAddress, uint256 amount)\n        external;\n\n    // Events\n    event Staked(address account, uint256 amount);\n    event Unstaked(address account, uint256 amount);\n    event RestakedRewards(address account, uint256 amount);\n    event ClaimedRewards(address account, uint256 amount);\n    event PayedFee(address account, uint256 amount);\n    event SwitchedFees(\n        bool _takeStakeFee,\n        bool _takeUnstakeFee,\n        bool _takeRestakeFee\n    );\n    event SwitchedRewards(bool enableRewards);\n    event RewardsWithdrawnEmergently(address emergencyAddress, uint256 amount);\n}\n\ncontract PLEStaking is Ownable, Pausable, Initializable, IStaking {\n    using SafeMath for uint256;\n    using EnumerableSet for EnumerableSet.AddressSet;\n\n    IERC20 public token = IERC20(0x3873965e73d9A21F88e645ce40B7db187FDE4931);\n    address public feeAddress = 0x8B176d1D547aFd831E5c74787e4ec6d184a5078E;\n\n    // rewards & fees\n    uint256 public constant REWARD_RATE = 4000; // 40.00% APY\n    uint256 public constant BLOCKS_IN_YEAR_MULTIPLIED = 21024e6;\n    uint256 public constant STAKE_FEE_RATE = 150; // 1.50% staking fee\n    uint256 public constant UNSTAKE_FEE_RATE = 50; // 0.50% unstaking fee\n    uint256 public constant RESTAKE_FEE_RATE = 50; // 0.50% restaking fee\n    bool public takeStakeFee;\n    bool public takeUnstakeFee;\n    bool public takeRestakeFee;\n    uint256 public stopRewardsBlock;\n    uint256 public availableRewards;\n\n    // stake holders\n    struct StakeHolder {\n        uint256 stakedTokens;\n        uint256 lastClaimedBlock;\n        uint256 totalEarnedTokens;\n        uint256 totalFeesPayed;\n    }\n    uint256 public totalStaked;\n    mapping(address => StakeHolder) public stakeHolders;\n    EnumerableSet.AddressSet private holders;\n\n    // Views\n    function balanceOf(address account)\n        external\n        view\n        override\n        returns (uint256)\n    {\n        return stakeHolders[account].stakedTokens;\n    }\n\n    function totalClaimedRewardsOf(address account)\n        external\n        view\n        override\n        returns (uint256)\n    {\n        return stakeHolders[account].totalEarnedTokens;\n    }\n\n    function numberOfStakeHolders() external view override returns (uint256) {\n        return holders.length();\n    }\n\n    function unclaimedRewardsOf(address account)\n        external\n        view\n        override\n        returns (uint256)\n    {\n        return _calculateUnclaimedRewards(account);\n    }\n\n    function unclaimedRewardsOfUsers(uint256 begin, uint256 end)\n        external\n        view\n        override\n        returns (uint256)\n    {\n        uint256 totalUnclaimedRewards = 0;\n        for (uint256 i = begin; i < end && i < holders.length(); i++) {\n            totalUnclaimedRewards = totalUnclaimedRewards.add(\n                _calculateUnclaimedRewards(holders.at(i))\n            );\n        }\n        return totalUnclaimedRewards;\n    }\n\n    /**\n     * Rewards Calculation:\n     * rewards = (stakedTokens * blockDiff * rewardRatePerBlock)\n     * rewardRatePerBlock =\n     * 4000 (REWARD_RATE)\n     * ------------------\n     * 10000 * 365 (days/Y) * 24 (H/day) * 60 (M/H) * 4 (Blocks/M) = 21024e6 (BLOCKS_IN_YEAR_MULTIPLIED)\n     */\n    function _calculateUnclaimedRewards(address account)\n        private\n        view\n        returns (uint256)\n    {\n        uint256 stakedTokens = stakeHolders[account].stakedTokens;\n        if (stakedTokens == 0) return 0;\n        // block diff calculation\n        uint256 blockDiff = stakeHolders[account].lastClaimedBlock;\n        if (stopRewardsBlock == 0) {\n            blockDiff = block.number.sub(blockDiff);\n        } else {\n            if (stopRewardsBlock <= blockDiff) return 0;\n            blockDiff = stopRewardsBlock.sub(blockDiff);\n        }\n        // rewards calculation\n        uint256 unclaimedRewards = stakedTokens.mul(blockDiff).mul(REWARD_RATE);\n        unclaimedRewards = unclaimedRewards.div(BLOCKS_IN_YEAR_MULTIPLIED); // Audit: for gas efficieny\n        if (unclaimedRewards > availableRewards) return 0;\n        return unclaimedRewards;\n    }\n\n    // Mutative\n    function stake(uint256 amount)\n        external\n        override\n        whenNotPaused\n        onlyInitialized\n    {\n        require(amount > 0, \"Cannot stake 0 tokens\");\n        if (stakeHolders[msg.sender].stakedTokens > 0) {\n            _restakeRewards(); // Audit: return value not check purposely\n        } else {\n            stakeHolders[msg.sender].lastClaimedBlock = block.number;\n        }\n        require(\n            token.transferFrom(msg.sender, address(this), amount),\n            \"Could not transfer tokens from msg.sender to staking contract\"\n        );\n        uint256 amountAfterFees = _takeFees(\n            amount,\n            takeStakeFee,\n            STAKE_FEE_RATE\n        );\n        stakeHolders[msg.sender].stakedTokens = stakeHolders[msg.sender]\n            .stakedTokens\n            .add(amountAfterFees);\n        totalStaked = totalStaked.add(amountAfterFees);\n        holders.add(msg.sender);\n        emit Staked(msg.sender, amountAfterFees);\n    }\n\n    function unstake(uint256 amount)\n        external\n        override\n        whenNotPaused\n        onlyInitialized\n    {\n        require(amount > 0, \"Cannot unstake 0 tokens\");\n        require(\n            stakeHolders[msg.sender].stakedTokens >= amount,\n            \"Not enough tokens to unstake\"\n        );\n        uint256 unclaimedRewards = _getRewards();\n        stakeHolders[msg.sender].stakedTokens = stakeHolders[msg.sender]\n            .stakedTokens\n            .sub(amount);\n        totalStaked = totalStaked.sub(amount);\n        if (stakeHolders[msg.sender].stakedTokens == 0)\n            holders.remove(msg.sender);\n        uint256 amountAfterFees = _takeFees(\n            amount,\n            takeUnstakeFee,\n            UNSTAKE_FEE_RATE\n        );\n        if (unclaimedRewards > 0) {\n            amountAfterFees = amountAfterFees.add(unclaimedRewards);\n            emit ClaimedRewards(msg.sender, unclaimedRewards);\n        }\n        require(\n            token.transfer(msg.sender, amountAfterFees),\n            \"Could not transfer tokens from staking contract to msg.sender\"\n        );\n        emit Unstaked(msg.sender, amountAfterFees.sub(unclaimedRewards));\n    }\n\n    function restakeRewards() external override whenNotPaused onlyInitialized {\n        require(_restakeRewards(), \"No rewards to restake\");\n    }\n\n    function claimRewards() external override whenNotPaused onlyInitialized {\n        uint256 unclaimedRewards = _getRewards();\n        require(unclaimedRewards > 0, \"No rewards to claim\");\n        require(\n            token.transfer(msg.sender, unclaimedRewards),\n            \"Could not transfer rewards from staking contract to msg.sender\"\n        );\n        emit ClaimedRewards(msg.sender, unclaimedRewards);\n    }\n\n    // Mutative & Private\n    function _restakeRewards() private returns (bool) {\n        uint256 unclaimedRewards = _getRewards();\n        if (unclaimedRewards == 0) return false;\n        unclaimedRewards = _takeFees(\n            unclaimedRewards,\n            takeRestakeFee,\n            RESTAKE_FEE_RATE\n        );\n        stakeHolders[msg.sender].stakedTokens = stakeHolders[msg.sender]\n            .stakedTokens\n            .add(unclaimedRewards);\n        totalStaked = totalStaked.add(unclaimedRewards);\n        emit RestakedRewards(msg.sender, unclaimedRewards);\n        return true;\n    }\n\n    function _getRewards() private returns (uint256) {\n        uint256 unclaimedRewards = _calculateUnclaimedRewards(msg.sender);\n        if (unclaimedRewards == 0) return 0;\n        availableRewards = availableRewards.sub(unclaimedRewards);\n        stakeHolders[msg.sender].lastClaimedBlock = block.number;\n        stakeHolders[msg.sender].totalEarnedTokens = stakeHolders[msg.sender]\n            .totalEarnedTokens\n            .add(unclaimedRewards);\n        return unclaimedRewards;\n    }\n\n    function _takeFees(\n        uint256 amount,\n        bool takeFee,\n        uint256 feeRate\n    ) private returns (uint256) {\n        if (takeFee) {\n            uint256 fee = (amount.mul(feeRate)).div(1e4);\n            require(token.transfer(feeAddress, fee), \"Could not transfer fees\");\n            stakeHolders[msg.sender].totalFeesPayed = stakeHolders[msg.sender]\n                .totalFeesPayed\n                .add(fee);\n            emit PayedFee(msg.sender, fee);\n            return amount.sub(fee);\n        }\n        return amount;\n    }\n\n    // Only Owner\n    function init() external onlyOwner whenNotPaused notInitialized {\n        require(\n            token.transferFrom(msg.sender, address(this), 8e6 ether),\n            \"Could not transfer 8,000,000 as rewards\"\n        );\n        availableRewards = 8e6 ether;\n        stopRewardsBlock = 0;\n        takeStakeFee = false;\n        takeUnstakeFee = true;\n        takeRestakeFee = true;\n        _init();\n    }\n\n    function pause() external onlyOwner {\n        _pause();\n    }\n\n    function unpause() external onlyOwner {\n        _unpause();\n    }\n\n    function switchFees(\n        bool _takeStakeFee,\n        bool _takeUnstakeFee,\n        bool _takeRestakeFee\n    ) external override onlyOwner onlyInitialized {\n        takeStakeFee = _takeStakeFee;\n        takeUnstakeFee = _takeUnstakeFee;\n        takeRestakeFee = _takeRestakeFee;\n        emit SwitchedFees(_takeStakeFee, _takeUnstakeFee, _takeRestakeFee);\n    }\n\n    function switchRewards(bool enableRewards)\n        external\n        override\n        onlyOwner\n        onlyInitialized\n    {\n        if (enableRewards) {\n            stopRewardsBlock = 0;\n        } else {\n            stopRewardsBlock = block.number;\n        }\n        emit SwitchedRewards(enableRewards);\n    }\n\n    function emergencyWithdrawRewards(address emergencyAddress, uint256 amount)\n        external\n        override\n        onlyOwner\n        onlyInitialized\n    {\n        require(\n            availableRewards >= amount,\n            \"No available rewards for emergent withdrawal\"\n        );\n        require(\n            token.transfer(emergencyAddress, amount),\n            \"Could not transfer tokens\"\n        );\n        availableRewards = availableRewards.sub(amount);\n        emit RewardsWithdrawnEmergently(emergencyAddress, amount);\n    }\n}\n",
  "sourcePath": "/Users/markyosef/Downloads/plethori/contracts/PLEStaking.sol",
  "compiler": {
    "name": "solc",
    "version": "0.8.6+commit.11564f7e.Emscripten.clang"
  },
  "schemaVersion": "3.4.3",
  "updatedAt": "2021-11-01T13:53:34.545Z",
  "devdoc": {
    "kind": "dev",
    "methods": {
      "owner()": {
        "details": "Returns the address of the current owner."
      },
      "paused()": {
        "details": "Returns true if the contract is paused, and false otherwise."
      },
      "renounceOwnership()": {
        "details": "Leaves the contract without owner. It will not be possible to call `onlyOwner` functions anymore. Can only be called by the current owner. NOTE: Renouncing ownership will leave the contract without an owner, thereby removing any functionality that is only available to the owner."
      },
      "transferOwnership(address)": {
        "details": "Transfers ownership of the contract to a new account (`newOwner`). Can only be called by the current owner."
      }
    },
    "version": 1
  },
  "userdoc": {
    "kind": "user",
    "methods": {},
    "version": 1
  }
}