{
  "contractName": "PLETokenAvax",
  "abi": [
    {
      "inputs": [],
      "stateMutability": "nonpayable",
      "type": "constructor"
    },
    {
      "anonymous": false,
      "inputs": [
        {
          "indexed": true,
          "internalType": "address",
          "name": "owner",
          "type": "address"
        },
        {
          "indexed": true,
          "internalType": "address",
          "name": "spender",
          "type": "address"
        },
        {
          "indexed": false,
          "internalType": "uint256",
          "name": "value",
          "type": "uint256"
        }
      ],
      "name": "Approval",
      "type": "event"
    },
    {
      "anonymous": false,
      "inputs": [
        {
          "indexed": true,
          "internalType": "address",
          "name": "issuer",
          "type": "address"
        },
        {
          "indexed": false,
          "internalType": "bool",
          "name": "value",
          "type": "bool"
        }
      ],
      "name": "IssuerRights",
      "type": "event"
    },
    {
      "anonymous": false,
      "inputs": [
        {
          "indexed": true,
          "internalType": "address",
          "name": "from",
          "type": "address"
        },
        {
          "indexed": true,
          "internalType": "address",
          "name": "to",
          "type": "address"
        },
        {
          "indexed": false,
          "internalType": "uint256",
          "name": "value",
          "type": "uint256"
        }
      ],
      "name": "Transfer",
      "type": "event"
    },
    {
      "anonymous": false,
      "inputs": [
        {
          "indexed": true,
          "internalType": "address",
          "name": "previousOwner",
          "type": "address"
        },
        {
          "indexed": true,
          "internalType": "address",
          "name": "newOwner",
          "type": "address"
        }
      ],
      "name": "TransferOwnership",
      "type": "event"
    },
    {
      "inputs": [],
      "name": "MAX_SUPPLY",
      "outputs": [
        {
          "internalType": "uint256",
          "name": "",
          "type": "uint256"
        }
      ],
      "stateMutability": "view",
      "type": "function"
    },
    {
      "inputs": [
        {
          "internalType": "address",
          "name": "",
          "type": "address"
        },
        {
          "internalType": "address",
          "name": "",
          "type": "address"
        }
      ],
      "name": "allowance",
      "outputs": [
        {
          "internalType": "uint256",
          "name": "",
          "type": "uint256"
        }
      ],
      "stateMutability": "view",
      "type": "function"
    },
    {
      "inputs": [
        {
          "internalType": "address",
          "name": "",
          "type": "address"
        }
      ],
      "name": "balanceOf",
      "outputs": [
        {
          "internalType": "uint256",
          "name": "",
          "type": "uint256"
        }
      ],
      "stateMutability": "view",
      "type": "function"
    },
    {
      "inputs": [],
      "name": "decimals",
      "outputs": [
        {
          "internalType": "uint8",
          "name": "",
          "type": "uint8"
        }
      ],
      "stateMutability": "view",
      "type": "function"
    },
    {
      "inputs": [
        {
          "internalType": "address",
          "name": "",
          "type": "address"
        }
      ],
      "name": "isIssuer",
      "outputs": [
        {
          "internalType": "bool",
          "name": "",
          "type": "bool"
        }
      ],
      "stateMutability": "view",
      "type": "function"
    },
    {
      "inputs": [],
      "name": "name",
      "outputs": [
        {
          "internalType": "string",
          "name": "",
          "type": "string"
        }
      ],
      "stateMutability": "view",
      "type": "function"
    },
    {
      "inputs": [],
      "name": "owner",
      "outputs": [
        {
          "internalType": "address",
          "name": "",
          "type": "address"
        }
      ],
      "stateMutability": "view",
      "type": "function"
    },
    {
      "inputs": [],
      "name": "symbol",
      "outputs": [
        {
          "internalType": "string",
          "name": "",
          "type": "string"
        }
      ],
      "stateMutability": "view",
      "type": "function"
    },
    {
      "inputs": [],
      "name": "totalSupply",
      "outputs": [
        {
          "internalType": "uint256",
          "name": "",
          "type": "uint256"
        }
      ],
      "stateMutability": "view",
      "type": "function"
    },
    {
      "inputs": [],
      "name": "getOwner",
      "outputs": [
        {
          "internalType": "address",
          "name": "",
          "type": "address"
        }
      ],
      "stateMutability": "view",
      "type": "function"
    },
    {
      "inputs": [
        {
          "internalType": "address",
          "name": "_to",
          "type": "address"
        },
        {
          "internalType": "uint256",
          "name": "_amount",
          "type": "uint256"
        }
      ],
      "name": "mint",
      "outputs": [
        {
          "internalType": "bool",
          "name": "success",
          "type": "bool"
        }
      ],
      "stateMutability": "nonpayable",
      "type": "function"
    },
    {
      "inputs": [
        {
          "internalType": "uint256",
          "name": "_amount",
          "type": "uint256"
        }
      ],
      "name": "burn",
      "outputs": [
        {
          "internalType": "bool",
          "name": "success",
          "type": "bool"
        }
      ],
      "stateMutability": "nonpayable",
      "type": "function"
    },
    {
      "inputs": [
        {
          "internalType": "address",
          "name": "_from",
          "type": "address"
        },
        {
          "internalType": "uint256",
          "name": "_amount",
          "type": "uint256"
        }
      ],
      "name": "burnFrom",
      "outputs": [
        {
          "internalType": "bool",
          "name": "success",
          "type": "bool"
        }
      ],
      "stateMutability": "nonpayable",
      "type": "function"
    },
    {
      "inputs": [
        {
          "internalType": "address",
          "name": "_spender",
          "type": "address"
        },
        {
          "internalType": "uint256",
          "name": "_amount",
          "type": "uint256"
        }
      ],
      "name": "approve",
      "outputs": [
        {
          "internalType": "bool",
          "name": "success",
          "type": "bool"
        }
      ],
      "stateMutability": "nonpayable",
      "type": "function"
    },
    {
      "inputs": [
        {
          "internalType": "address",
          "name": "_to",
          "type": "address"
        },
        {
          "internalType": "uint256",
          "name": "_amount",
          "type": "uint256"
        }
      ],
      "name": "transfer",
      "outputs": [
        {
          "internalType": "bool",
          "name": "success",
          "type": "bool"
        }
      ],
      "stateMutability": "nonpayable",
      "type": "function"
    },
    {
      "inputs": [
        {
          "internalType": "address",
          "name": "_from",
          "type": "address"
        },
        {
          "internalType": "address",
          "name": "_to",
          "type": "address"
        },
        {
          "internalType": "uint256",
          "name": "_amount",
          "type": "uint256"
        }
      ],
      "name": "transferFrom",
      "outputs": [
        {
          "internalType": "bool",
          "name": "success",
          "type": "bool"
        }
      ],
      "stateMutability": "nonpayable",
      "type": "function"
    },
    {
      "inputs": [
        {
          "internalType": "address",
          "name": "_newOwner",
          "type": "address"
        }
      ],
      "name": "transferOwnership",
      "outputs": [],
      "stateMutability": "nonpayable",
      "type": "function"
    },
    {
      "inputs": [
        {
          "internalType": "address",
          "name": "_issuer",
          "type": "address"
        },
        {
          "internalType": "bool",
          "name": "_value",
          "type": "bool"
        }
      ],
      "name": "setIssuerRights",
      "outputs": [],
      "stateMutability": "nonpayable",
      "type": "function"
    }
  ],
  "bytecode": "0x608060405234801561001057600080fd5b5033600160006101000a81548173ffffffffffffffffffffffffffffffffffffffff021916908373ffffffffffffffffffffffffffffffffffffffff1602179055503373ffffffffffffffffffffffffffffffffffffffff16600073ffffffffffffffffffffffffffffffffffffffff167f5c486528ec3e3f0ea91181cff8116f02bfa350e03b8b6f12e00765adbb5af85c60405160405180910390a3611791806100bc6000396000f3fe608060405234801561001057600080fd5b50600436106101165760003560e01c806370a08231116100a25780638da5cb5b116100715780638da5cb5b1461031d57806395d89b411461033b578063a9059cbb14610359578063dd62ed3e14610389578063f2fde38b146103b957610116565b806370a082311461026f57806379cc67901461029f578063877b9a67146102cf578063893d20e8146102ff57610116565b806323b872dd116100e957806323b872dd146101a3578063313ce567146101d357806332cb6b0c146101f157806340c10f191461020f57806342966c681461023f57610116565b806306fdde031461011b578063095ea7b31461013957806318160ddd146101695780631e2487d514610187575b600080fd5b6101236103d5565b60405161013091906113db565b60405180910390f35b610153600480360381019061014e9190611237565b61040e565b60405161016091906113c0565b60405180910390f35b610171610500565b60405161017e919061147d565b60405180910390f35b6101a1600480360381019061019c91906111f7565b610506565b005b6101bd60048036038101906101b891906111a4565b61063f565b6040516101ca91906113c0565b60405180910390f35b6101db6107f0565b6040516101e89190611498565b60405180910390f35b6101f96107f5565b604051610206919061147d565b60405180910390f35b61022960048036038101906102249190611237565b610804565b60405161023691906113c0565b60405180910390f35b61025960048036038101906102549190611277565b6109cb565b60405161026691906113c0565b60405180910390f35b61028960048036038101906102849190611137565b610b36565b604051610296919061147d565b60405180910390f35b6102b960048036038101906102b49190611237565b610b4e565b6040516102c691906113c0565b60405180910390f35b6102e960048036038101906102e49190611137565b610d4d565b6040516102f691906113c0565b60405180910390f35b610307610d6d565b60405161031491906113a5565b60405180910390f35b610325610d97565b60405161033291906113a5565b60405180910390f35b610343610dbd565b60405161035091906113db565b60405180910390f35b610373600480360381019061036e9190611237565b610df6565b60405161038091906113c0565b60405180910390f35b6103a3600480360381019061039e9190611164565b610f13565b6040516103b0919061147d565b60405180910390f35b6103d360048036038101906103ce9190611137565b610f38565b005b6040518060400160405280600881526020017f506c6574686f726900000000000000000000000000000000000000000000000081525081565b600081600360003373ffffffffffffffffffffffffffffffffffffffff1673ffffffffffffffffffffffffffffffffffffffff16815260200190815260200160002060008573ffffffffffffffffffffffffffffffffffffffff1673ffffffffffffffffffffffffffffffffffffffff168152602001908152602001600020819055508273ffffffffffffffffffffffffffffffffffffffff163373ffffffffffffffffffffffffffffffffffffffff167f8c5be1e5ebec7d5bd14f71427d1e84f3dd0314c0f7b2291e5b200ac8c7c3b925846040516104ee919061147d565b60405180910390a36001905092915050565b60005481565b600160009054906101000a900473ffffffffffffffffffffffffffffffffffffffff1673ffffffffffffffffffffffffffffffffffffffff163373ffffffffffffffffffffffffffffffffffffffff1614610596576040517f08c379a000000000000000000000000000000000000000000000000000000000815260040161058d906113fd565b60405180910390fd5b80600460008473ffffffffffffffffffffffffffffffffffffffff1673ffffffffffffffffffffffffffffffffffffffff16815260200190815260200160002060006101000a81548160ff0219169083151502179055508173ffffffffffffffffffffffffffffffffffffffff167f4d8b9faf0fbe6a82229a9d56d9c20817dda2fe0bbdd64ad9f97d551f38022ba68260405161063391906113c0565b60405180910390a25050565b600081600360008673ffffffffffffffffffffffffffffffffffffffff1673ffffffffffffffffffffffffffffffffffffffff16815260200190815260200160002060003373ffffffffffffffffffffffffffffffffffffffff1673ffffffffffffffffffffffffffffffffffffffff16815260200190815260200160002060008282546106cd9190611525565b9250508190555081600260008673ffffffffffffffffffffffffffffffffffffffff1673ffffffffffffffffffffffffffffffffffffffff16815260200190815260200160002060008282546107239190611525565b9250508190555081600260008573ffffffffffffffffffffffffffffffffffffffff1673ffffffffffffffffffffffffffffffffffffffff168152602001908152602001600020600082825461077991906114cf565b925050819055508273ffffffffffffffffffffffffffffffffffffffff168473ffffffffffffffffffffffffffffffffffffffff167fddf252ad1be2c89b69c2b068fc378daa952ba7f163c4a11628f55a4df523b3ef846040516107dd919061147d565b60405180910390a3600190509392505050565b601281565b6a52b7d2dcc80cd2e400000081565b6000600460003373ffffffffffffffffffffffffffffffffffffffff1673ffffffffffffffffffffffffffffffffffffffff16815260200190815260200160002060009054906101000a900460ff16610892576040517f08c379a00000000000000000000000000000000000000000000000000000000081526004016108899061145d565b60405180910390fd5b6a52b7d2dcc80cd2e4000000600054836108ac91906114cf565b11156108ed576040517f08c379a00000000000000000000000000000000000000000000000000000000081526004016108e49061141d565b60405180910390fd5b816000808282546108fe91906114cf565b9250508190555081600260008573ffffffffffffffffffffffffffffffffffffffff1673ffffffffffffffffffffffffffffffffffffffff168152602001908152602001600020600082825461095491906114cf565b925050819055508273ffffffffffffffffffffffffffffffffffffffff16600073ffffffffffffffffffffffffffffffffffffffff167fddf252ad1be2c89b69c2b068fc378daa952ba7f163c4a11628f55a4df523b3ef846040516109b9919061147d565b60405180910390a36001905092915050565b6000600460003373ffffffffffffffffffffffffffffffffffffffff1673ffffffffffffffffffffffffffffffffffffffff16815260200190815260200160002060009054906101000a900460ff16610a59576040517f08c379a0000000000000000000000000000000000000000000000000000000008152600401610a509061145d565b60405180910390fd5b81600080828254610a6a9190611525565b9250508190555081600260003373ffffffffffffffffffffffffffffffffffffffff1673ffffffffffffffffffffffffffffffffffffffff1681526020019081526020016000206000828254610ac09190611525565b92505081905550600073ffffffffffffffffffffffffffffffffffffffff163373ffffffffffffffffffffffffffffffffffffffff167fddf252ad1be2c89b69c2b068fc378daa952ba7f163c4a11628f55a4df523b3ef84604051610b25919061147d565b60405180910390a360019050919050565b60026020528060005260406000206000915090505481565b6000600460003373ffffffffffffffffffffffffffffffffffffffff1673ffffffffffffffffffffffffffffffffffffffff16815260200190815260200160002060009054906101000a900460ff16610bdc576040517f08c379a0000000000000000000000000000000000000000000000000000000008152600401610bd39061145d565b60405180910390fd5b81600360008573ffffffffffffffffffffffffffffffffffffffff1673ffffffffffffffffffffffffffffffffffffffff16815260200190815260200160002060003373ffffffffffffffffffffffffffffffffffffffff1673ffffffffffffffffffffffffffffffffffffffff1681526020019081526020016000206000828254610c689190611525565b9250508190555081600260008573ffffffffffffffffffffffffffffffffffffffff1673ffffffffffffffffffffffffffffffffffffffff1681526020019081526020016000206000828254610cbe9190611525565b9250508190555081600080828254610cd69190611525565b92505081905550600073ffffffffffffffffffffffffffffffffffffffff168373ffffffffffffffffffffffffffffffffffffffff167fddf252ad1be2c89b69c2b068fc378daa952ba7f163c4a11628f55a4df523b3ef84604051610d3b919061147d565b60405180910390a36001905092915050565b60046020528060005260406000206000915054906101000a900460ff1681565b6000600160009054906101000a900473ffffffffffffffffffffffffffffffffffffffff16905090565b600160009054906101000a900473ffffffffffffffffffffffffffffffffffffffff1681565b6040518060400160405280600381526020017f504c45000000000000000000000000000000000000000000000000000000000081525081565b600081600260003373ffffffffffffffffffffffffffffffffffffffff1673ffffffffffffffffffffffffffffffffffffffff1681526020019081526020016000206000828254610e479190611525565b9250508190555081600260008573ffffffffffffffffffffffffffffffffffffffff1673ffffffffffffffffffffffffffffffffffffffff1681526020019081526020016000206000828254610e9d91906114cf565b925050819055508273ffffffffffffffffffffffffffffffffffffffff163373ffffffffffffffffffffffffffffffffffffffff167fddf252ad1be2c89b69c2b068fc378daa952ba7f163c4a11628f55a4df523b3ef84604051610f01919061147d565b60405180910390a36001905092915050565b6003602052816000526040600020602052806000526040600020600091509150505481565b600160009054906101000a900473ffffffffffffffffffffffffffffffffffffffff1673ffffffffffffffffffffffffffffffffffffffff163373ffffffffffffffffffffffffffffffffffffffff1614610fc8576040517f08c379a0000000000000000000000000000000000000000000000000000000008152600401610fbf906113fd565b60405180910390fd5b600073ffffffffffffffffffffffffffffffffffffffff168173ffffffffffffffffffffffffffffffffffffffff161415611038576040517f08c379a000000000000000000000000000000000000000000000000000000000815260040161102f9061143d565b60405180910390fd5b8073ffffffffffffffffffffffffffffffffffffffff16600160009054906101000a900473ffffffffffffffffffffffffffffffffffffffff1673ffffffffffffffffffffffffffffffffffffffff167f5c486528ec3e3f0ea91181cff8116f02bfa350e03b8b6f12e00765adbb5af85c60405160405180910390a380600160006101000a81548173ffffffffffffffffffffffffffffffffffffffff021916908373ffffffffffffffffffffffffffffffffffffffff16021790555050565b60008135905061110781611716565b92915050565b60008135905061111c8161172d565b92915050565b60008135905061113181611744565b92915050565b60006020828403121561114d5761114c611610565b5b600061115b848285016110f8565b91505092915050565b6000806040838503121561117b5761117a611610565b5b6000611189858286016110f8565b925050602061119a858286016110f8565b9150509250929050565b6000806000606084860312156111bd576111bc611610565b5b60006111cb868287016110f8565b93505060206111dc868287016110f8565b92505060406111ed86828701611122565b9150509250925092565b6000806040838503121561120e5761120d611610565b5b600061121c858286016110f8565b925050602061122d8582860161110d565b9150509250929050565b6000806040838503121561124e5761124d611610565b5b600061125c858286016110f8565b925050602061126d85828601611122565b9150509250929050565b60006020828403121561128d5761128c611610565b5b600061129b84828501611122565b91505092915050565b6112ad81611559565b82525050565b6112bc8161156b565b82525050565b60006112cd826114b3565b6112d781856114be565b93506112e78185602086016115ae565b6112f081611615565b840191505092915050565b60006113086024836114be565b915061131382611626565b604082019050919050565b600061132b600e836114be565b915061133682611675565b602082019050919050565b600061134e6022836114be565b91506113598261169e565b604082019050919050565b6000611371601d836114be565b915061137c826116ed565b602082019050919050565b61139081611597565b82525050565b61139f816115a1565b82525050565b60006020820190506113ba60008301846112a4565b92915050565b60006020820190506113d560008301846112b3565b92915050565b600060208201905081810360008301526113f581846112c2565b905092915050565b60006020820190508181036000830152611416816112fb565b9050919050565b600060208201905081810360008301526114368161131e565b9050919050565b6000602082019050818103600083015261145681611341565b9050919050565b6000602082019050818103600083015261147681611364565b9050919050565b60006020820190506114926000830184611387565b92915050565b60006020820190506114ad6000830184611396565b92915050565b600081519050919050565b600082825260208201905092915050565b60006114da82611597565b91506114e583611597565b9250827fffffffffffffffffffffffffffffffffffffffffffffffffffffffffffffffff0382111561151a576115196115e1565b5b828201905092915050565b600061153082611597565b915061153b83611597565b92508282101561154e5761154d6115e1565b5b828203905092915050565b600061156482611577565b9050919050565b60008115159050919050565b600073ffffffffffffffffffffffffffffffffffffffff82169050919050565b6000819050919050565b600060ff82169050919050565b60005b838110156115cc5780820151818401526020810190506115b1565b838111156115db576000848401525b50505050565b7f4e487b7100000000000000000000000000000000000000000000000000000000600052601160045260246000fd5b600080fd5b6000601f19601f8301169050919050565b7f546869732066756e6374696f6e206973207265737472696374656420746f206f60008201527f776e657200000000000000000000000000000000000000000000000000000000602082015250565b7f4d61786361702072656163686564000000000000000000000000000000000000600082015250565b7f496e76616c696420616464726573733a2073686f756c64206e6f74206265203060008201527f7830000000000000000000000000000000000000000000000000000000000000602082015250565b7f596f7520646f206e6f7420686176652069737375657220726967687473000000600082015250565b61171f81611559565b811461172a57600080fd5b50565b6117368161156b565b811461174157600080fd5b50565b61174d81611597565b811461175857600080fd5b5056fea2646970667358221220406055edc995c4168eb785822901ecafb82e888af428ca340f30560a9870697164736f6c63430008060033",
  "immutableReferences": {},
  "source": "// SPDX-License-Identifier: MIT\npragma solidity ^0.8.6;\n\ncontract PLETokenAvax {\n    string public constant name = \"Plethori\";\n    string public constant symbol = \"PLE\";\n    uint8 public constant decimals = 18;\n    uint public constant MAX_SUPPLY = 100000000 * (10 ** 18);\n    uint256 public totalSupply;\n    address public owner;\n\n    modifier restricted {\n        require(msg.sender == owner, \"This function is restricted to owner\");\n        _;\n    }\n    modifier issuerOnly {\n        require(isIssuer[msg.sender], \"You do not have issuer rights\");\n        _;\n    }\n\n    mapping(address => uint256) public balanceOf;\n    mapping(address => mapping(address => uint256)) public allowance;\n    mapping(address => bool) public isIssuer;\n\n    event Transfer(address indexed from, address indexed to, uint256 value);\n    event Approval(address indexed owner, address indexed spender, uint256 value);\n    event IssuerRights(address indexed issuer, bool value);\n    event TransferOwnership(address indexed previousOwner, address indexed newOwner);\n\n    constructor() {\n        owner = msg.sender;\n        emit TransferOwnership(address(0), msg.sender);\n    }\n\n    function getOwner() public view returns (address) {\n        return owner;\n    }\n\n    function mint(address _to, uint256 _amount) public issuerOnly returns (bool success) {\n        require(_amount + totalSupply <= MAX_SUPPLY, \"Maxcap reached\");\n        totalSupply += _amount;\n        balanceOf[_to] += _amount;\n        emit Transfer(address(0), _to, _amount);\n        return true;\n    }\n\n    function burn(uint256 _amount) public issuerOnly returns (bool success) {\n        totalSupply -= _amount;\n        balanceOf[msg.sender] -= _amount;\n        emit Transfer(msg.sender, address(0), _amount);\n        return true;\n    }\n\n    function burnFrom(address _from, uint256 _amount) public issuerOnly returns (bool success) {\n        allowance[_from][msg.sender] -= _amount;\n        balanceOf[_from] -= _amount;\n        totalSupply -= _amount;\n        emit Transfer(_from, address(0), _amount);\n        return true;\n    }\n\n    function approve(address _spender, uint256 _amount) public returns (bool success) {\n        allowance[msg.sender][_spender] = _amount;\n        emit Approval(msg.sender, _spender, _amount);\n        return true;\n    }\n\n    function transfer(address _to, uint256 _amount) public returns (bool success) {\n        balanceOf[msg.sender] -= _amount;\n        balanceOf[_to] += _amount;\n        emit Transfer(msg.sender, _to, _amount);\n        return true;\n    }\n\n    function transferFrom( address _from, address _to, uint256 _amount) public returns (bool success) {\n        allowance[_from][msg.sender] -= _amount;\n        balanceOf[_from] -= _amount;\n        balanceOf[_to] += _amount;\n        emit Transfer(_from, _to, _amount);\n        return true;\n    }\n\n    function transferOwnership(address _newOwner) public restricted {\n        require(_newOwner != address(0), \"Invalid address: should not be 0x0\");\n        emit TransferOwnership(owner, _newOwner);\n        owner = _newOwner;\n    }\n\n    function setIssuerRights(address _issuer, bool _value) public restricted {\n        isIssuer[_issuer] = _value;\n        emit IssuerRights(_issuer, _value);\n    }\n\n\n}",
  "sourcePath": "/Users/markyosef/Library/Mobile Documents/com~apple~CloudDocs/Plethori/PLEStaking2.0/contracts/avax/PLETokenAVAX.sol",
  "compiler": {
    "name": "solc",
    "version": "0.8.6+commit.11564f7e.Emscripten.clang"
  },
  "schemaVersion": "3.4.3",
  "updatedAt": "2021-12-24T18:39:32.446Z",
  "devdoc": {
    "kind": "dev",
    "methods": {},
    "version": 1
  },
  "userdoc": {
    "kind": "user",
    "methods": {},
    "version": 1
  }
}